{
  "address": "0x3ac6c5e081E5d2B02354b8E448DBE180eaD33125",
  "abi": [
    {
      "anonymous": false,
      "inputs": [
        {
          "indexed": true,
          "internalType": "address",
          "name": "previousOwner",
          "type": "address"
        },
        {
          "indexed": true,
          "internalType": "address",
          "name": "newOwner",
          "type": "address"
        }
      ],
      "name": "OwnershipTransferred",
      "type": "event"
    },
    {
      "anonymous": false,
      "inputs": [
        {
          "indexed": true,
          "internalType": "address",
          "name": "owner",
          "type": "address"
        },
        {
          "indexed": true,
          "internalType": "address",
          "name": "token",
          "type": "address"
        },
        {
          "indexed": true,
          "internalType": "address",
          "name": "pollAddress",
          "type": "address"
        },
        {
          "indexed": false,
          "internalType": "address",
          "name": "resultController",
          "type": "address"
        },
        {
          "indexed": false,
          "internalType": "uint256",
          "name": "poolIndex",
          "type": "uint256"
        }
      ],
      "name": "PoolCreated",
      "type": "event"
    },
    {
      "inputs": [
        {
          "internalType": "address",
          "name": "token",
          "type": "address"
        }
      ],
      "name": "createDefaultPool",
      "outputs": [
        {
          "internalType": "uint256",
          "name": "",
          "type": "uint256"
        }
      ],
      "stateMutability": "nonpayable",
      "type": "function"
    },
    {
      "inputs": [
        {
          "internalType": "address",
          "name": "token",
          "type": "address"
        }
      ],
      "name": "createNotQuiteRandomPool",
      "outputs": [
        {
          "internalType": "uint256",
          "name": "",
          "type": "uint256"
        }
      ],
      "stateMutability": "nonpayable",
      "type": "function"
    },
    {
      "inputs": [
        {
          "internalType": "address",
          "name": "token",
          "type": "address"
        },
        {
          "internalType": "address",
          "name": "resultController",
          "type": "address"
        },
        {
          "internalType": "address",
          "name": "yieldSrc",
          "type": "address"
        }
      ],
      "name": "createPool",
      "outputs": [
        {
          "internalType": "uint256",
          "name": "",
          "type": "uint256"
        }
      ],
      "stateMutability": "nonpayable",
      "type": "function"
    },
    {
      "inputs": [
        {
          "internalType": "address",
          "name": "token",
          "type": "address"
        }
      ],
      "name": "createVRFPool",
      "outputs": [
        {
          "internalType": "uint256",
          "name": "",
          "type": "uint256"
        }
      ],
      "stateMutability": "nonpayable",
      "type": "function"
    },
    {
      "inputs": [],
      "name": "owner",
      "outputs": [
        {
          "internalType": "address",
          "name": "",
          "type": "address"
        }
      ],
      "stateMutability": "view",
      "type": "function"
    },
    {
      "inputs": [],
      "name": "poolCount",
      "outputs": [
        {
          "internalType": "uint256",
          "name": "",
          "type": "uint256"
        }
      ],
      "stateMutability": "view",
      "type": "function"
    },
    {
      "inputs": [
        {
          "internalType": "uint256",
          "name": "",
          "type": "uint256"
        }
      ],
      "name": "pools",
      "outputs": [
        {
          "internalType": "contract BettingPool",
          "name": "",
          "type": "address"
        }
      ],
      "stateMutability": "view",
      "type": "function"
    },
    {
      "inputs": [],
      "name": "renounceOwnership",
      "outputs": [],
      "stateMutability": "nonpayable",
      "type": "function"
    },
    {
      "inputs": [
        {
          "internalType": "address",
          "name": "a",
          "type": "address"
        }
      ],
      "name": "setVrfFactory",
      "outputs": [],
      "stateMutability": "nonpayable",
      "type": "function"
    },
    {
      "inputs": [
        {
          "internalType": "address",
          "name": "newOwner",
          "type": "address"
        }
      ],
      "name": "transferOwnership",
      "outputs": [],
      "stateMutability": "nonpayable",
      "type": "function"
    },
    {
      "inputs": [],
      "name": "vrfFactory",
      "outputs": [
        {
          "internalType": "contract VRFResultFactory",
          "name": "",
          "type": "address"
        }
      ],
      "stateMutability": "view",
      "type": "function"
    }
  ],
  "transactionHash": "0x42922dcd68c8c9270a1fa653feb4ad7234a7908c5731c83080b4872fa052228f",
  "args": [],
  "numDeployments": 5,
  "solcInputHash": "7e67f4c5a24899f4ccc2daa956985abe",
  "bytecode": "0x608060405234801561001057600080fd5b5061002d61002261003260201b60201c565b61003a60201b60201c565b6100fe565b600033905090565b60008060009054906101000a900473ffffffffffffffffffffffffffffffffffffffff169050816000806101000a81548173ffffffffffffffffffffffffffffffffffffffff021916908373ffffffffffffffffffffffffffffffffffffffff1602179055508173ffffffffffffffffffffffffffffffffffffffff168173ffffffffffffffffffffffffffffffffffffffff167f8be0079c531659141344cd1fd0a4f28419497f9722a3daafe3b4186f6b6457e060405160405180910390a35050565b614b6d8061010d6000396000f3fe60806040523480156200001157600080fd5b5060043610620000b85760003560e01c8063ac4afa38116200007b578063ac4afa381462000177578063d68a2f0a14620001ad578063dceb0f5614620001cf578063e8292cae1462000205578063f2fde38b146200023b578063f525cb68146200025b57620000b8565b8063236aea2e14620000bd578063715018a614620000f35780638da5cb5b14620000ff5780638f4fbef31462000121578063a9867d641462000141575b600080fd5b620000db6004803603810190620000d5919062000986565b6200027d565b604051620000ea9190620009fd565b60405180910390f35b620000fd62000295565b005b62000109620002ad565b60405162000118919062000a2b565b60405180910390f35b6200013f600480360381019062000139919062000a48565b620002d6565b005b6200015f600480360381019062000159919062000a48565b62000324565b6040516200016e9190620009fd565b60405180910390f35b6200019560048036038101906200018f919062000aab565b620003b5565b604051620001a4919062000b48565b60405180910390f35b620001b7620003f5565b604051620001c6919062000b8a565b60405180910390f35b620001ed6004803603810190620001e7919062000a48565b6200041b565b604051620001fc9190620009fd565b60405180910390f35b6200022360048036038101906200021d919062000a48565b6200042f565b604051620002329190620009fd565b60405180910390f35b62000259600480360381019062000253919062000a48565b620005bf565b005b620002656200064a565b604051620002749190620009fd565b60405180910390f35b60006200028c84848462000657565b90509392505050565b6200029f620007a1565b620002ab600062000826565b565b60008060009054906101000a900473ffffffffffffffffffffffffffffffffffffffff16905090565b620002e0620007a1565b80600260006101000a81548173ffffffffffffffffffffffffffffffffffffffff021916908373ffffffffffffffffffffffffffffffffffffffff16021790555050565b600080336040516200033690620008f2565b62000342919062000a2b565b604051809103906000f0801580156200035f573d6000803e3d6000fd5b509050600083604051620003739062000900565b6200037f919062000a2b565b604051809103906000f0801580156200039c573d6000803e3d6000fd5b509050620003ac84838362000657565b92505050919050565b60018181548110620003c657600080fd5b906000526020600020016000915054906101000a900473ffffffffffffffffffffffffffffffffffffffff1681565b600260009054906101000a900473ffffffffffffffffffffffffffffffffffffffff1681565b600062000428826200042f565b9050919050565b60008073ffffffffffffffffffffffffffffffffffffffff16600260009054906101000a900473ffffffffffffffffffffffffffffffffffffffff1673ffffffffffffffffffffffffffffffffffffffff161415620004c5576040517f08c379a0000000000000000000000000000000000000000000000000000000008152600401620004bc9062000c08565b60405180910390fd5b6000600260009054906101000a900473ffffffffffffffffffffffffffffffffffffffff1673ffffffffffffffffffffffffffffffffffffffff1663d5422257336040518263ffffffff1660e01b815260040162000524919062000a2b565b6020604051808303816000875af115801562000544573d6000803e3d6000fd5b505050506040513d601f19601f820116820180604052508101906200056a919062000c41565b90506000836040516200057d9062000900565b62000589919062000a2b565b604051809103906000f080158015620005a6573d6000803e3d6000fd5b509050620005b684838362000657565b92505050919050565b620005c9620007a1565b600073ffffffffffffffffffffffffffffffffffffffff168173ffffffffffffffffffffffffffffffffffffffff1614156200063c576040517f08c379a0000000000000000000000000000000000000000000000000000000008152600401620006339062000ce9565b60405180910390fd5b620006478162000826565b50565b6000600180549050905090565b600080338585856040516200066c906200090e565b6200067b949392919062000d0b565b604051809103906000f08015801562000698573d6000803e3d6000fd5b5090506001819080600181540180825580915050600190039060005260206000200160009091909190916101000a81548173ffffffffffffffffffffffffffffffffffffffff021916908373ffffffffffffffffffffffffffffffffffffffff16021790555060006001808054905062000713919062000d87565b90508473ffffffffffffffffffffffffffffffffffffffff168673ffffffffffffffffffffffffffffffffffffffff163373ffffffffffffffffffffffffffffffffffffffff167f45d43f0d6767b37a70a442985866e6b596772c5a7f529f2b9f6798423b26a3e885856040516200078d92919062000dc2565b60405180910390a480925050509392505050565b620007ab620008ea565b73ffffffffffffffffffffffffffffffffffffffff16620007cb620002ad565b73ffffffffffffffffffffffffffffffffffffffff161462000824576040517f08c379a00000000000000000000000000000000000000000000000000000000081526004016200081b9062000e3f565b60405180910390fd5b565b60008060009054906101000a900473ffffffffffffffffffffffffffffffffffffffff169050816000806101000a81548173ffffffffffffffffffffffffffffffffffffffff021916908373ffffffffffffffffffffffffffffffffffffffff1602179055508173ffffffffffffffffffffffffffffffffffffffff168173ffffffffffffffffffffffffffffffffffffffff167f8be0079c531659141344cd1fd0a4f28419497f9722a3daafe3b4186f6b6457e060405160405180910390a35050565b600033905090565b6111028062000e6283390190565b61097c8062001f6483390190565b61225880620028e083390190565b600080fd5b600073ffffffffffffffffffffffffffffffffffffffff82169050919050565b60006200094e8262000921565b9050919050565b620009608162000941565b81146200096c57600080fd5b50565b600081359050620009808162000955565b92915050565b600080600060608486031215620009a257620009a16200091c565b5b6000620009b2868287016200096f565b9350506020620009c5868287016200096f565b9250506040620009d8868287016200096f565b9150509250925092565b6000819050919050565b620009f781620009e2565b82525050565b600060208201905062000a146000830184620009ec565b92915050565b62000a258162000941565b82525050565b600060208201905062000a42600083018462000a1a565b92915050565b60006020828403121562000a615762000a606200091c565b5b600062000a71848285016200096f565b91505092915050565b62000a8581620009e2565b811462000a9157600080fd5b50565b60008135905062000aa58162000a7a565b92915050565b60006020828403121562000ac45762000ac36200091c565b5b600062000ad48482850162000a94565b91505092915050565b6000819050919050565b600062000b0862000b0262000afc8462000921565b62000add565b62000921565b9050919050565b600062000b1c8262000ae7565b9050919050565b600062000b308262000b0f565b9050919050565b62000b428162000b23565b82525050565b600060208201905062000b5f600083018462000b37565b92915050565b600062000b728262000b0f565b9050919050565b62000b848162000b65565b82525050565b600060208201905062000ba1600083018462000b79565b92915050565b600082825260208201905092915050565b7f767266466163746f7279206e6f7420696e697369616c797a65642e0000000000600082015250565b600062000bf0601b8362000ba7565b915062000bfd8262000bb8565b602082019050919050565b6000602082019050818103600083015262000c238162000be1565b9050919050565b60008151905062000c3b8162000955565b92915050565b60006020828403121562000c5a5762000c596200091c565b5b600062000c6a8482850162000c2a565b91505092915050565b7f4f776e61626c653a206e6577206f776e657220697320746865207a65726f206160008201527f6464726573730000000000000000000000000000000000000000000000000000602082015250565b600062000cd160268362000ba7565b915062000cde8262000c73565b604082019050919050565b6000602082019050818103600083015262000d048162000cc2565b9050919050565b600060808201905062000d22600083018762000a1a565b62000d31602083018662000a1a565b62000d40604083018562000a1a565b62000d4f606083018462000a1a565b95945050505050565b7f4e487b7100000000000000000000000000000000000000000000000000000000600052601160045260246000fd5b600062000d9482620009e2565b915062000da183620009e2565b92508282101562000db75762000db662000d58565b5b828203905092915050565b600060408201905062000dd9600083018562000a1a565b62000de86020830184620009ec565b9392505050565b7f4f776e61626c653a2063616c6c6572206973206e6f7420746865206f776e6572600082015250565b600062000e2760208362000ba7565b915062000e348262000def565b602082019050919050565b6000602082019050818103600083015262000e5a8162000e18565b905091905056fe60806040523480156200001157600080fd5b5060405162001102380380620011028339818101604052810190620000379190620003b5565b60008060006101000a81548160ff0219169083151502179055506200007162000065620000ff60201b60201c565b6200010760201b60201c565b620000ac604051602001620000869062000442565b604051602081830303815290604052620000a090620004a2565b620001cd60201b60201c565b620000e7604051602001620000c19062000562565b604051602081830303815290604052620000db90620004a2565b620001cd60201b60201c565b620000f881620001f960201b60201c565b5062000694565b600033905090565b6000600360009054906101000a900473ffffffffffffffffffffffffffffffffffffffff16905081600360006101000a81548173ffffffffffffffffffffffffffffffffffffffff021916908373ffffffffffffffffffffffffffffffffffffffff1602179055508173ffffffffffffffffffffffffffffffffffffffff168173ffffffffffffffffffffffffffffffffffffffff167f8be0079c531659141344cd1fd0a4f28419497f9722a3daafe3b4186f6b6457e060405160405180910390a35050565b600281908060018154018082558091505060019003906000526020600020016000909190919091505550565b620002096200029060201b60201c565b600073ffffffffffffffffffffffffffffffffffffffff168173ffffffffffffffffffffffffffffffffffffffff1614156200027c576040517f08c379a0000000000000000000000000000000000000000000000000000000008152600401620002739062000600565b60405180910390fd5b6200028d816200010760201b60201c565b50565b620002a0620000ff60201b60201c565b73ffffffffffffffffffffffffffffffffffffffff16620002c66200032160201b60201c565b73ffffffffffffffffffffffffffffffffffffffff16146200031f576040517f08c379a0000000000000000000000000000000000000000000000000000000008152600401620003169062000672565b60405180910390fd5b565b6000600360009054906101000a900473ffffffffffffffffffffffffffffffffffffffff16905090565b600080fd5b600073ffffffffffffffffffffffffffffffffffffffff82169050919050565b60006200037d8262000350565b9050919050565b6200038f8162000370565b81146200039b57600080fd5b50565b600081519050620003af8162000384565b92915050565b600060208284031215620003ce57620003cd6200034b565b5b6000620003de848285016200039e565b91505092915050565b600081905092915050565b7f4865616473000000000000000000000000000000000000000000000000000000600082015250565b60006200042a600583620003e7565b91506200043782620003f2565b600582019050919050565b60006200044f826200041b565b9150819050919050565b600081519050919050565b6000819050602082019050919050565b6000819050919050565b60006200048c825162000474565b80915050919050565b600082821b905092915050565b6000620004af8262000459565b82620004bb8462000464565b9050620004c8816200047e565b925060208210156200050b57620005067fffffffffffffffffffffffffffffffffffffffffffffffffffffffffffffffff8360200360080262000495565b831692505b5050919050565b7f5461696c73000000000000000000000000000000000000000000000000000000600082015250565b60006200054a600583620003e7565b9150620005578262000512565b600582019050919050565b60006200056f826200053b565b9150819050919050565b600082825260208201905092915050565b7f4f776e61626c653a206e6577206f776e657220697320746865207a65726f206160008201527f6464726573730000000000000000000000000000000000000000000000000000602082015250565b6000620005e860268362000579565b9150620005f5826200058a565b604082019050919050565b600060208201905081810360008301526200061b81620005d9565b9050919050565b7f4f776e61626c653a2063616c6c6572206973206e6f7420746865206f776e6572600082015250565b60006200065a60208362000579565b9150620006678262000622565b602082019050919050565b600060208201905081810360008301526200068d816200064b565b9050919050565b610a5e80620006a46000396000f3fe608060405234801561001057600080fd5b50600436106100cf5760003560e01c8063715018a61161008c578063caf8d5f011610066578063caf8d5f0146101de578063dbdff2c11461020e578063de2927891461022c578063f2fde38b1461024a576100cf565b8063715018a6146101985780638da5cb5b146101a2578063a4d4334a146101c0576100cf565b80631053eaa3146100d45780631dbe2e0e146100f257806327cf445e146100fc5780635109df6c1461011a57806363b2e11d1461014a578063653721471461017a575b600080fd5b6100dc610266565b6040516100e99190610625565b60405180910390f35b6100fa61027c565b005b610104610298565b6040516101119190610659565b60405180910390f35b610134600480360381019061012f91906106a5565b6102a5565b60405161014191906106eb565b60405180910390f35b610164600480360381019061015f91906106a5565b6102cd565b60405161017191906106eb565b60405180910390f35b6101826102f1565b60405161018f9190610659565b60405180910390f35b6101a06102f7565b005b6101aa61030b565b6040516101b79190610747565b60405180910390f35b6101c8610335565b6040516101d59190610659565b60405180910390f35b6101f860048036038101906101f391906106a5565b610344565b6040516102059190610659565b60405180910390f35b610216610360565b6040516102239190610659565b60405180910390f35b610234610378565b6040516102419190610659565b60405180910390f35b610264600480360381019061025f919061078e565b610382565b005b60008060009054906101000a900460ff16905090565b610284610406565b6102966102916002610344565b610484565b565b6000600280549050905090565b6000600282815481106102bb576102ba6107bb565b5b90600052602060002001549050919050565b600281815481106102dd57600080fd5b906000526020600020016000915090505481565b60015481565b6102ff610406565b610309600061053c565b565b6000600360009054906101000a900473ffffffffffffffffffffffffffffffffffffffff16905090565b600061033f610298565b905090565b60008161034f610360565b6103599190610819565b9050919050565b600060014361036f9190610879565b4060001c905090565b6000600154905090565b61038a610406565b600073ffffffffffffffffffffffffffffffffffffffff168173ffffffffffffffffffffffffffffffffffffffff1614156103fa576040517f08c379a00000000000000000000000000000000000000000000000000000000081526004016103f190610930565b60405180910390fd5b6104038161053c565b50565b61040e610602565b73ffffffffffffffffffffffffffffffffffffffff1661042c61030b565b73ffffffffffffffffffffffffffffffffffffffff1614610482576040517f08c379a00000000000000000000000000000000000000000000000000000000081526004016104799061099c565b60405180910390fd5b565b60008054906101000a900460ff16156104d2576040517f08c379a00000000000000000000000000000000000000000000000000000000081526004016104c990610a08565b60405180910390fd5b60016000806101000a81548160ff021916908315150217905550806001819055506001543073ffffffffffffffffffffffffffffffffffffffff167f19d22413a5e18244e9883866082c3fd384c3b031c96fac8b7a6a7c4dfbb90bf360405160405180910390a350565b6000600360009054906101000a900473ffffffffffffffffffffffffffffffffffffffff16905081600360006101000a81548173ffffffffffffffffffffffffffffffffffffffff021916908373ffffffffffffffffffffffffffffffffffffffff1602179055508173ffffffffffffffffffffffffffffffffffffffff168173ffffffffffffffffffffffffffffffffffffffff167f8be0079c531659141344cd1fd0a4f28419497f9722a3daafe3b4186f6b6457e060405160405180910390a35050565b600033905090565b60008115159050919050565b61061f8161060a565b82525050565b600060208201905061063a6000830184610616565b92915050565b6000819050919050565b61065381610640565b82525050565b600060208201905061066e600083018461064a565b92915050565b600080fd5b61068281610640565b811461068d57600080fd5b50565b60008135905061069f81610679565b92915050565b6000602082840312156106bb576106ba610674565b5b60006106c984828501610690565b91505092915050565b6000819050919050565b6106e5816106d2565b82525050565b600060208201905061070060008301846106dc565b92915050565b600073ffffffffffffffffffffffffffffffffffffffff82169050919050565b600061073182610706565b9050919050565b61074181610726565b82525050565b600060208201905061075c6000830184610738565b92915050565b61076b81610726565b811461077657600080fd5b50565b60008135905061078881610762565b92915050565b6000602082840312156107a4576107a3610674565b5b60006107b284828501610779565b91505092915050565b7f4e487b7100000000000000000000000000000000000000000000000000000000600052603260045260246000fd5b7f4e487b7100000000000000000000000000000000000000000000000000000000600052601260045260246000fd5b600061082482610640565b915061082f83610640565b92508261083f5761083e6107ea565b5b828206905092915050565b7f4e487b7100000000000000000000000000000000000000000000000000000000600052601160045260246000fd5b600061088482610640565b915061088f83610640565b9250828210156108a2576108a161084a565b5b828203905092915050565b600082825260208201905092915050565b7f4f776e61626c653a206e6577206f776e657220697320746865207a65726f206160008201527f6464726573730000000000000000000000000000000000000000000000000000602082015250565b600061091a6026836108ad565b9150610925826108be565b604082019050919050565b600060208201905081810360008301526109498161090d565b9050919050565b7f4f776e61626c653a2063616c6c6572206973206e6f7420746865206f776e6572600082015250565b60006109866020836108ad565b915061099182610950565b602082019050919050565b600060208201905081810360008301526109b581610979565b9050919050565b7f416c72656164792068617320726573756c740000000000000000000000000000600082015250565b60006109f26012836108ad565b91506109fd826109bc565b602082019050919050565b60006020820190508181036000830152610a21816109e5565b905091905056fea26469706673582212206ddbc669822ce71455ba1f73bdfdf263df36a2a8e231ca0dfa7b9c62b1fcb88864736f6c634300080a0033608060405234801561001057600080fd5b5060405161097c38038061097c833981810160405281019061003291906100eb565b806000806101000a81548173ffffffffffffffffffffffffffffffffffffffff021916908373ffffffffffffffffffffffffffffffffffffffff1602179055506000600181905550600060028190555050610118565b600080fd5b600073ffffffffffffffffffffffffffffffffffffffff82169050919050565b60006100b88261008d565b9050919050565b6100c8816100ad565b81146100d357600080fd5b50565b6000815190506100e5816100bf565b92915050565b60006020828403121561010157610100610088565b5b600061010f848285016100d6565b91505092915050565b610855806101276000396000f3fe608060405234801561001057600080fd5b506004361061004c5760003560e01c806312065fe0146100515780637c2628711461006f578063b6b55f251461008d578063f3fef3a3146100a9575b600080fd5b6100596100c5565b6040516100669190610464565b60405180910390f35b610077610167565b6040516100849190610464565b60405180910390f35b6100a760048036038101906100a291906104b0565b610222565b005b6100c360048036038101906100be919061053b565b61038f565b005b60008060009054906101000a900473ffffffffffffffffffffffffffffffffffffffff1673ffffffffffffffffffffffffffffffffffffffff166370a08231306040518263ffffffff1660e01b8152600401610121919061058a565b602060405180830381865afa15801561013e573d6000803e3d6000fd5b505050506040513d601f19601f8201168201806040525081019061016291906105ba565b905090565b600060015460025460008054906101000a900473ffffffffffffffffffffffffffffffffffffffff1673ffffffffffffffffffffffffffffffffffffffff166370a08231306040518263ffffffff1660e01b81526004016101c8919061058a565b602060405180830381865afa1580156101e5573d6000803e3d6000fd5b505050506040513d601f19601f8201168201806040525081019061020991906105ba565b6102139190610616565b61021d919061066c565b905090565b80600160008282546102349190610616565b9250508190555060008054906101000a900473ffffffffffffffffffffffffffffffffffffffff1673ffffffffffffffffffffffffffffffffffffffff166323b872dd3330846040518463ffffffff1660e01b8152600401610298939291906106a0565b6020604051808303816000875af11580156102b7573d6000803e3d6000fd5b505050506040513d601f19601f820116820180604052508101906102db919061070f565b5060008054906101000a900473ffffffffffffffffffffffffffffffffffffffff1673ffffffffffffffffffffffffffffffffffffffff166340c10f193083606485606e610329919061073c565b61033391906107c5565b61033d919061066c565b6040518363ffffffff1660e01b815260040161035a9291906107f6565b600060405180830381600087803b15801561037457600080fd5b505af1158015610388573d6000803e3d6000fd5b5050505050565b80600260008282546103a19190610616565b9250508190555060008054906101000a900473ffffffffffffffffffffffffffffffffffffffff1673ffffffffffffffffffffffffffffffffffffffff1663a9059cbb83836040518363ffffffff1660e01b81526004016104039291906107f6565b6020604051808303816000875af1158015610422573d6000803e3d6000fd5b505050506040513d601f19601f82011682018060405250810190610446919061070f565b505050565b6000819050919050565b61045e8161044b565b82525050565b60006020820190506104796000830184610455565b92915050565b600080fd5b61048d8161044b565b811461049857600080fd5b50565b6000813590506104aa81610484565b92915050565b6000602082840312156104c6576104c561047f565b5b60006104d48482850161049b565b91505092915050565b600073ffffffffffffffffffffffffffffffffffffffff82169050919050565b6000610508826104dd565b9050919050565b610518816104fd565b811461052357600080fd5b50565b6000813590506105358161050f565b92915050565b600080604083850312156105525761055161047f565b5b600061056085828601610526565b92505060206105718582860161049b565b9150509250929050565b610584816104fd565b82525050565b600060208201905061059f600083018461057b565b92915050565b6000815190506105b481610484565b92915050565b6000602082840312156105d0576105cf61047f565b5b60006105de848285016105a5565b91505092915050565b7f4e487b7100000000000000000000000000000000000000000000000000000000600052601160045260246000fd5b60006106218261044b565b915061062c8361044b565b9250827fffffffffffffffffffffffffffffffffffffffffffffffffffffffffffffffff03821115610661576106606105e7565b5b828201905092915050565b60006106778261044b565b91506106828361044b565b925082821015610695576106946105e7565b5b828203905092915050565b60006060820190506106b5600083018661057b565b6106c2602083018561057b565b6106cf6040830184610455565b949350505050565b60008115159050919050565b6106ec816106d7565b81146106f757600080fd5b50565b600081519050610709816106e3565b92915050565b6000602082840312156107255761072461047f565b5b6000610733848285016106fa565b91505092915050565b60006107478261044b565b91506107528361044b565b9250817fffffffffffffffffffffffffffffffffffffffffffffffffffffffffffffffff048311821515161561078b5761078a6105e7565b5b828202905092915050565b7f4e487b7100000000000000000000000000000000000000000000000000000000600052601260045260246000fd5b60006107d08261044b565b91506107db8361044b565b9250826107eb576107ea610796565b5b828204905092915050565b600060408201905061080b600083018561057b565b6108186020830184610455565b939250505056fea26469706673582212206f36a08fd6bea89efb305b2b79f78c095bb0dad0e44a01258c2292466dd6fddc64736f6c634300080a003360806040523480156200001157600080fd5b50604051620022583803806200225883398181016040528101906200003791906200049d565b620000576200004b6200021660201b60201c565b6200021e60201b60201c565b82600160006101000a81548173ffffffffffffffffffffffffffffffffffffffff021916908373ffffffffffffffffffffffffffffffffffffffff16021790555081600260006101000a81548173ffffffffffffffffffffffffffffffffffffffff021916908373ffffffffffffffffffffffffffffffffffffffff16021790555080600360006101000a81548173ffffffffffffffffffffffffffffffffffffffff021916908373ffffffffffffffffffffffffffffffffffffffff1602179055506001600060146101000a81548160ff021916908315150217905550600160009054906101000a900473ffffffffffffffffffffffffffffffffffffffff1673ffffffffffffffffffffffffffffffffffffffff1663095ea7b3827fffffffffffffffffffffffffffffffffffffffffffffffffffffffffffffffff6040518363ffffffff1660e01b8152600401620001b49291906200053b565b6020604051808303816000875af1158015620001d4573d6000803e3d6000fd5b505050506040513d601f19601f82011682018060405250810190620001fa9190620005a5565b506200020c84620002e260201b60201c565b50505050620006f2565b600033905090565b60008060009054906101000a900473ffffffffffffffffffffffffffffffffffffffff169050816000806101000a81548173ffffffffffffffffffffffffffffffffffffffff021916908373ffffffffffffffffffffffffffffffffffffffff1602179055508173ffffffffffffffffffffffffffffffffffffffff168173ffffffffffffffffffffffffffffffffffffffff167f8be0079c531659141344cd1fd0a4f28419497f9722a3daafe3b4186f6b6457e060405160405180910390a35050565b620002f26200037960201b60201c565b600073ffffffffffffffffffffffffffffffffffffffff168173ffffffffffffffffffffffffffffffffffffffff16141562000365576040517f08c379a00000000000000000000000000000000000000000000000000000000081526004016200035c906200065e565b60405180910390fd5b62000376816200021e60201b60201c565b50565b620003896200021660201b60201c565b73ffffffffffffffffffffffffffffffffffffffff16620003af6200040a60201b60201c565b73ffffffffffffffffffffffffffffffffffffffff161462000408576040517f08c379a0000000000000000000000000000000000000000000000000000000008152600401620003ff90620006d0565b60405180910390fd5b565b60008060009054906101000a900473ffffffffffffffffffffffffffffffffffffffff16905090565b600080fd5b600073ffffffffffffffffffffffffffffffffffffffff82169050919050565b6000620004658262000438565b9050919050565b620004778162000458565b81146200048357600080fd5b50565b60008151905062000497816200046c565b92915050565b60008060008060808587031215620004ba57620004b962000433565b5b6000620004ca8782880162000486565b9450506020620004dd8782880162000486565b9350506040620004f08782880162000486565b9250506060620005038782880162000486565b91505092959194509250565b6200051a8162000458565b82525050565b6000819050919050565b620005358162000520565b82525050565b60006040820190506200055260008301856200050f565b6200056160208301846200052a565b9392505050565b60008115159050919050565b6200057f8162000568565b81146200058b57600080fd5b50565b6000815190506200059f8162000574565b92915050565b600060208284031215620005be57620005bd62000433565b5b6000620005ce848285016200058e565b91505092915050565b600082825260208201905092915050565b7f4f776e61626c653a206e6577206f776e657220697320746865207a65726f206160008201527f6464726573730000000000000000000000000000000000000000000000000000602082015250565b600062000646602683620005d7565b91506200065382620005e8565b604082019050919050565b60006020820190508181036000830152620006798162000637565b9050919050565b7f4f776e61626c653a2063616c6c6572206973206e6f7420746865206f776e6572600082015250565b6000620006b8602083620005d7565b9150620006c58262000680565b602082019050919050565b60006020820190508181036000830152620006eb81620006a9565b9050919050565b611b5680620007026000396000f3fe608060405234801561001057600080fd5b50600436106101425760003560e01c806371f8a0ff116100b85780638e4707301161007c5780638e47073014610355578063a4d4334a14610385578063c825e6ae146103a3578063de292789146103c1578063f2fde38b146103df578063fc0c546a146103fb57610142565b806371f8a0ff146102ad578063767123ec146102cb5780637a9262a2146102e95780637aec978d146103195780638da5cb5b1461033757610142565b8063477348921161010a57806347734892146101c75780634a39ec90146101f75780635109df6c14610227578063520ab54d146102575780636ffcc71914610287578063715018a6146102a357610142565b80631053eaa3146101475780631a39d8ef1461016557806326f11b13146101835780633ccfd60b146101b35780634026478e146101bd575b600080fd5b61014f610419565b60405161015c919061127d565b60405180910390f35b61016d6104b1565b60405161017a91906112b1565b60405180910390f35b61019d600480360381019061019891906112fd565b610505565b6040516101aa91906112b1565b60405180910390f35b6101bb61051d565b005b6101c561072c565b005b6101e160048036038101906101dc9190611388565b6109a6565b6040516101ee91906112b1565b60405180910390f35b610211600480360381019061020c91906113b5565b6109cb565b60405161021e91906112b1565b60405180910390f35b610241600480360381019061023c91906112fd565b6109f0565b60405161024e919061140e565b60405180910390f35b610271600480360381019061026c9190611388565b610a95565b60405161027e91906112b1565b60405180910390f35b6102a1600480360381019061029c9190611429565b610b42565b005b6102ab610d57565b005b6102b5610d6b565b6040516102c2919061127d565b60405180910390f35b6102d3610d7e565b6040516102e091906114c8565b60405180910390f35b61030360048036038101906102fe9190611388565b610da4565b604051610310919061127d565b60405180910390f35b610321610dc4565b60405161032e91906112b1565b60405180910390f35b61033f610e5c565b60405161034c91906114f2565b60405180910390f35b61036f600480360381019061036a9190611388565b610e85565b60405161037c91906112b1565b60405180910390f35b61038d610f18565b60405161039a91906112b1565b60405180910390f35b6103ab610fb0565b6040516103b8919061152e565b60405180910390f35b6103c9610fd6565b6040516103d691906112b1565b60405180910390f35b6103f960048036038101906103f49190611388565b61106e565b005b6104036110f2565b604051610410919061156a565b60405180910390f35b6000600260009054906101000a900473ffffffffffffffffffffffffffffffffffffffff1673ffffffffffffffffffffffffffffffffffffffff16631053eaa36040518163ffffffff1660e01b8152600401602060405180830381865afa158015610488573d6000803e3d6000fd5b505050506040513d601f19601f820116820180604052508101906104ac91906115b1565b905090565b6000806104bc610f18565b90506000805b828110156104fc576006600082815260200190815260200160002054826104e9919061160d565b9150806104f590611663565b90506104c2565b50809250505090565b60066020528060005260406000206000915090505481565b610525610419565b610564576040517f08c379a000000000000000000000000000000000000000000000000000000000815260040161055b90611709565b60405180910390fd5b600560003373ffffffffffffffffffffffffffffffffffffffff1673ffffffffffffffffffffffffffffffffffffffff16815260200190815260200160002060009054906101000a900460ff16156105f1576040517f08c379a00000000000000000000000000000000000000000000000000000000081526004016105e890611775565b60405180910390fd5b6001600560003373ffffffffffffffffffffffffffffffffffffffff1673ffffffffffffffffffffffffffffffffffffffff16815260200190815260200160002060006101000a81548160ff0219169083151502179055506000610654336109a6565b9050600360009054906101000a900473ffffffffffffffffffffffffffffffffffffffff1673ffffffffffffffffffffffffffffffffffffffff1663f3fef3a333836040518363ffffffff1660e01b81526004016106b3929190611795565b600060405180830381600087803b1580156106cd57600080fd5b505af11580156106e1573d6000803e3d6000fd5b50505050803373ffffffffffffffffffffffffffffffffffffffff167f3e458a8e29bab8625f68d7126a788b1dfe3ac22fbe1aae4ff144fa17113e295360405160405180910390a350565b600060149054906101000a900460ff1661077b576040517f08c379a00000000000000000000000000000000000000000000000000000000081526004016107729061180a565b60405180910390fd5b610783611118565b60008060146101000a81548160ff021916908315150217905550600360009054906101000a900473ffffffffffffffffffffffffffffffffffffffff1673ffffffffffffffffffffffffffffffffffffffff1663b6b55f25600160009054906101000a900473ffffffffffffffffffffffffffffffffffffffff1673ffffffffffffffffffffffffffffffffffffffff166370a08231306040518263ffffffff1660e01b815260040161083691906114f2565b602060405180830381865afa158015610853573d6000803e3d6000fd5b505050506040513d601f19601f82011682018060405250810190610877919061183f565b6040518263ffffffff1660e01b815260040161089391906112b1565b600060405180830381600087803b1580156108ad57600080fd5b505af11580156108c1573d6000803e3d6000fd5b50505050600160009054906101000a900473ffffffffffffffffffffffffffffffffffffffff1673ffffffffffffffffffffffffffffffffffffffff166370a08231306040518263ffffffff1660e01b815260040161092091906114f2565b602060405180830381865afa15801561093d573d6000803e3d6000fd5b505050506040513d601f19601f82011682018060405250810190610961919061183f565b3073ffffffffffffffffffffffffffffffffffffffff167f566e2ac33f6bfdf80641908d269de0bfa6a5dfb7af3e3b0ca5da6b7113810a3760405160405180910390a3565b60006109b182610a95565b6109ba83610e85565b6109c4919061160d565b9050919050565b6004602052816000526040600020602052806000526040600020600091509150505481565b6000600260009054906101000a900473ffffffffffffffffffffffffffffffffffffffff1673ffffffffffffffffffffffffffffffffffffffff16635109df6c836040518263ffffffff1660e01b8152600401610a4d91906112b1565b602060405180830381865afa158015610a6a573d6000803e3d6000fd5b505050506040513d601f19601f82011682018060405250810190610a8e9190611898565b9050919050565b6000610a9f610419565b610aac5760009050610b3d565b6000610ab6610fd6565b90506006600082815260200190815260200160002054610ad4610dc4565b600460008673ffffffffffffffffffffffffffffffffffffffff1673ffffffffffffffffffffffffffffffffffffffff168152602001908152602001600020600084815260200190815260200160002054610b2f91906118c5565b610b39919061194e565b9150505b919050565b600060149054906101000a900460ff16610b91576040517f08c379a0000000000000000000000000000000000000000000000000000000008152600401610b889061180a565b60405180910390fd5b610b99610f18565b8210610bda576040517f08c379a0000000000000000000000000000000000000000000000000000000008152600401610bd1906119cb565b60405180910390fd5b80600460003373ffffffffffffffffffffffffffffffffffffffff1673ffffffffffffffffffffffffffffffffffffffff16815260200190815260200160002060008481526020019081526020016000206000828254610c3a919061160d565b9250508190555080600660008481526020019081526020016000206000828254610c64919061160d565b92505081905550600160009054906101000a900473ffffffffffffffffffffffffffffffffffffffff1673ffffffffffffffffffffffffffffffffffffffff166323b872dd3330846040518463ffffffff1660e01b8152600401610cca939291906119eb565b6020604051808303816000875af1158015610ce9573d6000803e3d6000fd5b505050506040513d601f19601f82011682018060405250810190610d0d91906115b1565b5080823373ffffffffffffffffffffffffffffffffffffffff167f4b9c4358e7b15d2061e55a8f49b6e311c3129905844e9361e033f2de90bf38e760405160405180910390a45050565b610d5f611118565b610d696000611196565b565b600060149054906101000a900460ff1681565b600260009054906101000a900473ffffffffffffffffffffffffffffffffffffffff1681565b60056020528060005260406000206000915054906101000a900460ff1681565b6000600360009054906101000a900473ffffffffffffffffffffffffffffffffffffffff1673ffffffffffffffffffffffffffffffffffffffff16637c2628716040518163ffffffff1660e01b8152600401602060405180830381865afa158015610e33573d6000803e3d6000fd5b505050506040513d601f19601f82011682018060405250810190610e57919061183f565b905090565b60008060009054906101000a900473ffffffffffffffffffffffffffffffffffffffff16905090565b600080610e90610f18565b90506000805b82811015610f0d57600460008673ffffffffffffffffffffffffffffffffffffffff1673ffffffffffffffffffffffffffffffffffffffff16815260200190815260200160002060008281526020019081526020016000205482610efa919061160d565b915080610f0690611663565b9050610e96565b508092505050919050565b6000600260009054906101000a900473ffffffffffffffffffffffffffffffffffffffff1673ffffffffffffffffffffffffffffffffffffffff1663a4d4334a6040518163ffffffff1660e01b8152600401602060405180830381865afa158015610f87573d6000803e3d6000fd5b505050506040513d601f19601f82011682018060405250810190610fab919061183f565b905090565b600360009054906101000a900473ffffffffffffffffffffffffffffffffffffffff1681565b6000600260009054906101000a900473ffffffffffffffffffffffffffffffffffffffff1673ffffffffffffffffffffffffffffffffffffffff1663de2927896040518163ffffffff1660e01b8152600401602060405180830381865afa158015611045573d6000803e3d6000fd5b505050506040513d601f19601f82011682018060405250810190611069919061183f565b905090565b611076611118565b600073ffffffffffffffffffffffffffffffffffffffff168173ffffffffffffffffffffffffffffffffffffffff1614156110e6576040517f08c379a00000000000000000000000000000000000000000000000000000000081526004016110dd90611a94565b60405180910390fd5b6110ef81611196565b50565b600160009054906101000a900473ffffffffffffffffffffffffffffffffffffffff1681565b61112061125a565b73ffffffffffffffffffffffffffffffffffffffff1661113e610e5c565b73ffffffffffffffffffffffffffffffffffffffff1614611194576040517f08c379a000000000000000000000000000000000000000000000000000000000815260040161118b90611b00565b60405180910390fd5b565b60008060009054906101000a900473ffffffffffffffffffffffffffffffffffffffff169050816000806101000a81548173ffffffffffffffffffffffffffffffffffffffff021916908373ffffffffffffffffffffffffffffffffffffffff1602179055508173ffffffffffffffffffffffffffffffffffffffff168173ffffffffffffffffffffffffffffffffffffffff167f8be0079c531659141344cd1fd0a4f28419497f9722a3daafe3b4186f6b6457e060405160405180910390a35050565b600033905090565b60008115159050919050565b61127781611262565b82525050565b6000602082019050611292600083018461126e565b92915050565b6000819050919050565b6112ab81611298565b82525050565b60006020820190506112c660008301846112a2565b92915050565b600080fd5b6112da81611298565b81146112e557600080fd5b50565b6000813590506112f7816112d1565b92915050565b600060208284031215611313576113126112cc565b5b6000611321848285016112e8565b91505092915050565b600073ffffffffffffffffffffffffffffffffffffffff82169050919050565b60006113558261132a565b9050919050565b6113658161134a565b811461137057600080fd5b50565b6000813590506113828161135c565b92915050565b60006020828403121561139e5761139d6112cc565b5b60006113ac84828501611373565b91505092915050565b600080604083850312156113cc576113cb6112cc565b5b60006113da85828601611373565b92505060206113eb858286016112e8565b9150509250929050565b6000819050919050565b611408816113f5565b82525050565b600060208201905061142360008301846113ff565b92915050565b600080604083850312156114405761143f6112cc565b5b600061144e858286016112e8565b925050602061145f858286016112e8565b9150509250929050565b6000819050919050565b600061148e6114896114848461132a565b611469565b61132a565b9050919050565b60006114a082611473565b9050919050565b60006114b282611495565b9050919050565b6114c2816114a7565b82525050565b60006020820190506114dd60008301846114b9565b92915050565b6114ec8161134a565b82525050565b600060208201905061150760008301846114e3565b92915050565b600061151882611495565b9050919050565b6115288161150d565b82525050565b6000602082019050611543600083018461151f565b92915050565b600061155482611495565b9050919050565b61156481611549565b82525050565b600060208201905061157f600083018461155b565b92915050565b61158e81611262565b811461159957600080fd5b50565b6000815190506115ab81611585565b92915050565b6000602082840312156115c7576115c66112cc565b5b60006115d58482850161159c565b91505092915050565b7f4e487b7100000000000000000000000000000000000000000000000000000000600052601160045260246000fd5b600061161882611298565b915061162383611298565b9250827fffffffffffffffffffffffffffffffffffffffffffffffffffffffffffffffff03821115611658576116576115de565b5b828201905092915050565b600061166e82611298565b91507fffffffffffffffffffffffffffffffffffffffffffffffffffffffffffffffff8214156116a1576116a06115de565b5b600182019050919050565b600082825260208201905092915050565b7f506f6f6c206e6f742066696e69736865642e0000000000000000000000000000600082015250565b60006116f36012836116ac565b91506116fe826116bd565b602082019050919050565b60006020820190508181036000830152611722816116e6565b9050919050565b7f416c72656164792077697468647265772e000000000000000000000000000000600082015250565b600061175f6011836116ac565b915061176a82611729565b602082019050919050565b6000602082019050818103600083015261178e81611752565b9050919050565b60006040820190506117aa60008301856114e3565b6117b760208301846112a2565b9392505050565b7f506f6f6c20697320636c6f736564000000000000000000000000000000000000600082015250565b60006117f4600e836116ac565b91506117ff826117be565b602082019050919050565b60006020820190508181036000830152611823816117e7565b9050919050565b600081519050611839816112d1565b92915050565b600060208284031215611855576118546112cc565b5b60006118638482850161182a565b91505092915050565b611875816113f5565b811461188057600080fd5b50565b6000815190506118928161186c565b92915050565b6000602082840312156118ae576118ad6112cc565b5b60006118bc84828501611883565b91505092915050565b60006118d082611298565b91506118db83611298565b9250817fffffffffffffffffffffffffffffffffffffffffffffffffffffffffffffffff0483118215151615611914576119136115de565b5b828202905092915050565b7f4e487b7100000000000000000000000000000000000000000000000000000000600052601260045260246000fd5b600061195982611298565b915061196483611298565b9250826119745761197361191f565b5b828204905092915050565b7f496e76616c6964206f7074696f6e732e00000000000000000000000000000000600082015250565b60006119b56010836116ac565b91506119c08261197f565b602082019050919050565b600060208201905081810360008301526119e4816119a8565b9050919050565b6000606082019050611a0060008301866114e3565b611a0d60208301856114e3565b611a1a60408301846112a2565b949350505050565b7f4f776e61626c653a206e6577206f776e657220697320746865207a65726f206160008201527f6464726573730000000000000000000000000000000000000000000000000000602082015250565b6000611a7e6026836116ac565b9150611a8982611a22565b604082019050919050565b60006020820190508181036000830152611aad81611a71565b9050919050565b7f4f776e61626c653a2063616c6c6572206973206e6f7420746865206f776e6572600082015250565b6000611aea6020836116ac565b9150611af582611ab4565b602082019050919050565b60006020820190508181036000830152611b1981611add565b905091905056fea2646970667358221220ddd4ee2cedeed312bbe6fe7719460a9fe9c9eaf9f0fdc04aa7cc8dc460efa63664736f6c634300080a0033a264697066735822122099ff3dc1bcfef11d05bae11061dfeb8acf26ecc0ca7fa841bc0431644315d59764736f6c634300080a0033",
  "devdoc": {
    "kind": "dev",
    "methods": {
      "owner()": {
        "details": "Returns the address of the current owner."
      },
      "renounceOwnership()": {
        "details": "Leaves the contract without owner. It will not be possible to call `onlyOwner` functions anymore. Can only be called by the current owner. NOTE: Renouncing ownership will leave the contract without an owner, thereby removing any functionality that is only available to the owner."
      },
      "transferOwnership(address)": {
        "details": "Transfers ownership of the contract to a new account (`newOwner`). Can only be called by the current owner."
      }
    },
    "version": 1
  },
  "userdoc": {
    "kind": "user",
    "methods": {},
    "version": 1
  },
  "storageLayout": {
    "storage": [
      {
        "astId": 161,
        "contract": "contracts/bettingPoolFactory.sol:BettingPoolFactory",
        "label": "_owner",
        "offset": 0,
        "slot": "0",
        "type": "t_address"
      },
      {
        "astId": 1606,
        "contract": "contracts/bettingPoolFactory.sol:BettingPoolFactory",
        "label": "pools",
        "offset": 0,
        "slot": "1",
        "type": "t_array(t_contract(BettingPool)1587)dyn_storage"
      },
      {
        "astId": 1609,
        "contract": "contracts/bettingPoolFactory.sol:BettingPoolFactory",
        "label": "vrfFactory",
        "offset": 0,
        "slot": "2",
        "type": "t_contract(VRFResultFactory)2362"
      }
    ],
    "types": {
      "t_address": {
        "encoding": "inplace",
        "label": "address",
        "numberOfBytes": "20"
      },
      "t_array(t_contract(BettingPool)1587)dyn_storage": {
        "base": "t_contract(BettingPool)1587",
        "encoding": "dynamic_array",
        "label": "contract BettingPool[]",
        "numberOfBytes": "32"
      },
      "t_contract(BettingPool)1587": {
        "encoding": "inplace",
        "label": "contract BettingPool",
        "numberOfBytes": "20"
      },
      "t_contract(VRFResultFactory)2362": {
        "encoding": "inplace",
        "label": "contract VRFResultFactory",
        "numberOfBytes": "20"
      }
    }
  }
}