{
  "address": "0xb20A54106F36386e1507Fb48Ab5ae320fD723E80",
  "abi": [
    {
      "inputs": [
        {
          "internalType": "address",
          "name": "_owner",
          "type": "address"
        },
        {
          "internalType": "address",
          "name": "_token",
          "type": "address"
        },
        {
          "internalType": "address",
          "name": "_resultController",
          "type": "address"
        },
        {
          "internalType": "address",
          "name": "_yieldSrc",
          "type": "address"
        }
      ],
      "stateMutability": "nonpayable",
      "type": "constructor"
    },
    {
      "anonymous": false,
      "inputs": [
        {
          "indexed": true,
          "internalType": "address",
          "name": "previousOwner",
          "type": "address"
        },
        {
          "indexed": true,
          "internalType": "address",
          "name": "newOwner",
          "type": "address"
        }
      ],
      "name": "OwnershipTransferred",
      "type": "event"
    },
    {
      "anonymous": false,
      "inputs": [
        {
          "indexed": true,
          "internalType": "address",
          "name": "user",
          "type": "address"
        },
        {
          "indexed": true,
          "internalType": "uint256",
          "name": "option",
          "type": "uint256"
        },
        {
          "indexed": true,
          "internalType": "uint256",
          "name": "amount",
          "type": "uint256"
        }
      ],
      "name": "betPlaced",
      "type": "event"
    },
    {
      "anonymous": false,
      "inputs": [
        {
          "indexed": true,
          "internalType": "address",
          "name": "poolAddress",
          "type": "address"
        },
        {
          "indexed": true,
          "internalType": "uint256",
          "name": "poolBalance",
          "type": "uint256"
        }
      ],
      "name": "poolLocked",
      "type": "event"
    },
    {
      "anonymous": false,
      "inputs": [
        {
          "indexed": true,
          "internalType": "address",
          "name": "user",
          "type": "address"
        },
        {
          "indexed": true,
          "internalType": "uint256",
          "name": "amount",
          "type": "uint256"
        }
      ],
      "name": "userWithdraw",
      "type": "event"
    },
    {
      "inputs": [
        {
          "internalType": "uint256",
          "name": "option",
          "type": "uint256"
        },
        {
          "internalType": "uint256",
          "name": "amount",
          "type": "uint256"
        }
      ],
      "name": "bet",
      "outputs": [],
      "stateMutability": "nonpayable",
      "type": "function"
    },
    {
      "inputs": [
        {
          "internalType": "address",
          "name": "",
          "type": "address"
        },
        {
          "internalType": "uint256",
          "name": "",
          "type": "uint256"
        }
      ],
      "name": "bets",
      "outputs": [
        {
          "internalType": "uint256",
          "name": "",
          "type": "uint256"
        }
      ],
      "stateMutability": "view",
      "type": "function"
    },
    {
      "inputs": [
        {
          "internalType": "uint256",
          "name": "index",
          "type": "uint256"
        }
      ],
      "name": "getOptionName",
      "outputs": [
        {
          "internalType": "bytes32",
          "name": "",
          "type": "bytes32"
        }
      ],
      "stateMutability": "view",
      "type": "function"
    },
    {
      "inputs": [],
      "name": "getOptionsCount",
      "outputs": [
        {
          "internalType": "uint256",
          "name": "",
          "type": "uint256"
        }
      ],
      "stateMutability": "view",
      "type": "function"
    },
    {
      "inputs": [],
      "name": "getResult",
      "outputs": [
        {
          "internalType": "uint256",
          "name": "",
          "type": "uint256"
        }
      ],
      "stateMutability": "view",
      "type": "function"
    },
    {
      "inputs": [],
      "name": "getTotalYield",
      "outputs": [
        {
          "internalType": "uint256",
          "name": "",
          "type": "uint256"
        }
      ],
      "stateMutability": "view",
      "type": "function"
    },
    {
      "inputs": [
        {
          "internalType": "address",
          "name": "user",
          "type": "address"
        }
      ],
      "name": "getUserBalance",
      "outputs": [
        {
          "internalType": "uint256",
          "name": "",
          "type": "uint256"
        }
      ],
      "stateMutability": "view",
      "type": "function"
    },
    {
      "inputs": [
        {
          "internalType": "address",
          "name": "user",
          "type": "address"
        }
      ],
      "name": "getUserPrincipal",
      "outputs": [
        {
          "internalType": "uint256",
          "name": "",
          "type": "uint256"
        }
      ],
      "stateMutability": "view",
      "type": "function"
    },
    {
      "inputs": [
        {
          "internalType": "address",
          "name": "user",
          "type": "address"
        }
      ],
      "name": "getUserProfit",
      "outputs": [
        {
          "internalType": "uint256",
          "name": "",
          "type": "uint256"
        }
      ],
      "stateMutability": "view",
      "type": "function"
    },
    {
      "inputs": [],
      "name": "hasResult",
      "outputs": [
        {
          "internalType": "bool",
          "name": "",
          "type": "bool"
        }
      ],
      "stateMutability": "view",
      "type": "function"
    },
    {
      "inputs": [],
      "name": "lockPool",
      "outputs": [],
      "stateMutability": "nonpayable",
      "type": "function"
    },
    {
      "inputs": [],
      "name": "openForBets",
      "outputs": [
        {
          "internalType": "bool",
          "name": "",
          "type": "bool"
        }
      ],
      "stateMutability": "view",
      "type": "function"
    },
    {
      "inputs": [
        {
          "internalType": "uint256",
          "name": "",
          "type": "uint256"
        }
      ],
      "name": "optionTotalBets",
      "outputs": [
        {
          "internalType": "uint256",
          "name": "",
          "type": "uint256"
        }
      ],
      "stateMutability": "view",
      "type": "function"
    },
    {
      "inputs": [],
      "name": "owner",
      "outputs": [
        {
          "internalType": "address",
          "name": "",
          "type": "address"
        }
      ],
      "stateMutability": "view",
      "type": "function"
    },
    {
      "inputs": [],
      "name": "renounceOwnership",
      "outputs": [],
      "stateMutability": "nonpayable",
      "type": "function"
    },
    {
      "inputs": [],
      "name": "resultController",
      "outputs": [
        {
          "internalType": "contract IResultController",
          "name": "",
          "type": "address"
        }
      ],
      "stateMutability": "view",
      "type": "function"
    },
    {
      "inputs": [],
      "name": "token",
      "outputs": [
        {
          "internalType": "contract IERC20",
          "name": "",
          "type": "address"
        }
      ],
      "stateMutability": "view",
      "type": "function"
    },
    {
      "inputs": [],
      "name": "totalAmount",
      "outputs": [
        {
          "internalType": "uint256",
          "name": "",
          "type": "uint256"
        }
      ],
      "stateMutability": "view",
      "type": "function"
    },
    {
      "inputs": [
        {
          "internalType": "address",
          "name": "newOwner",
          "type": "address"
        }
      ],
      "name": "transferOwnership",
      "outputs": [],
      "stateMutability": "nonpayable",
      "type": "function"
    },
    {
      "inputs": [],
      "name": "withdraw",
      "outputs": [],
      "stateMutability": "nonpayable",
      "type": "function"
    },
    {
      "inputs": [
        {
          "internalType": "address",
          "name": "",
          "type": "address"
        }
      ],
      "name": "withdrawals",
      "outputs": [
        {
          "internalType": "bool",
          "name": "",
          "type": "bool"
        }
      ],
      "stateMutability": "view",
      "type": "function"
    },
    {
      "inputs": [],
      "name": "yieldSrc",
      "outputs": [
        {
          "internalType": "contract IYieldSource",
          "name": "",
          "type": "address"
        }
      ],
      "stateMutability": "view",
      "type": "function"
    }
  ],
  "transactionHash": "0xa1ec5228faf6ea97dce6abe8faca9198f9c21c460185d33ebea269b28a46fd34",
  "args": [
    "0xB087848Ca9565995105a8aE803B33719bD395a7C",
    "0x9aa7fEc87CA69695Dd1f879567CcF49F3ba417E2",
    "0xB087848Ca9565995105a8aE803B33719bD395a7C",
    "0xB087848Ca9565995105a8aE803B33719bD395a7C"
  ],
  "numDeployments": 2,
  "solcInputHash": "83bdbbc2a4aca9aa57fdfb753c1f58f5",
  "bytecode": "0x60806040523480156200001157600080fd5b50604051620022583803806200225883398181016040528101906200003791906200049d565b620000576200004b6200021660201b60201c565b6200021e60201b60201c565b82600160006101000a81548173ffffffffffffffffffffffffffffffffffffffff021916908373ffffffffffffffffffffffffffffffffffffffff16021790555081600260006101000a81548173ffffffffffffffffffffffffffffffffffffffff021916908373ffffffffffffffffffffffffffffffffffffffff16021790555080600360006101000a81548173ffffffffffffffffffffffffffffffffffffffff021916908373ffffffffffffffffffffffffffffffffffffffff1602179055506001600060146101000a81548160ff021916908315150217905550600160009054906101000a900473ffffffffffffffffffffffffffffffffffffffff1673ffffffffffffffffffffffffffffffffffffffff1663095ea7b3827fffffffffffffffffffffffffffffffffffffffffffffffffffffffffffffffff6040518363ffffffff1660e01b8152600401620001b49291906200053b565b6020604051808303816000875af1158015620001d4573d6000803e3d6000fd5b505050506040513d601f19601f82011682018060405250810190620001fa9190620005a5565b506200020c84620002e260201b60201c565b50505050620006f2565b600033905090565b60008060009054906101000a900473ffffffffffffffffffffffffffffffffffffffff169050816000806101000a81548173ffffffffffffffffffffffffffffffffffffffff021916908373ffffffffffffffffffffffffffffffffffffffff1602179055508173ffffffffffffffffffffffffffffffffffffffff168173ffffffffffffffffffffffffffffffffffffffff167f8be0079c531659141344cd1fd0a4f28419497f9722a3daafe3b4186f6b6457e060405160405180910390a35050565b620002f26200037960201b60201c565b600073ffffffffffffffffffffffffffffffffffffffff168173ffffffffffffffffffffffffffffffffffffffff16141562000365576040517f08c379a00000000000000000000000000000000000000000000000000000000081526004016200035c906200065e565b60405180910390fd5b62000376816200021e60201b60201c565b50565b620003896200021660201b60201c565b73ffffffffffffffffffffffffffffffffffffffff16620003af6200040a60201b60201c565b73ffffffffffffffffffffffffffffffffffffffff161462000408576040517f08c379a0000000000000000000000000000000000000000000000000000000008152600401620003ff90620006d0565b60405180910390fd5b565b60008060009054906101000a900473ffffffffffffffffffffffffffffffffffffffff16905090565b600080fd5b600073ffffffffffffffffffffffffffffffffffffffff82169050919050565b6000620004658262000438565b9050919050565b620004778162000458565b81146200048357600080fd5b50565b60008151905062000497816200046c565b92915050565b60008060008060808587031215620004ba57620004b962000433565b5b6000620004ca8782880162000486565b9450506020620004dd8782880162000486565b9350506040620004f08782880162000486565b9250506060620005038782880162000486565b91505092959194509250565b6200051a8162000458565b82525050565b6000819050919050565b620005358162000520565b82525050565b60006040820190506200055260008301856200050f565b6200056160208301846200052a565b9392505050565b60008115159050919050565b6200057f8162000568565b81146200058b57600080fd5b50565b6000815190506200059f8162000574565b92915050565b600060208284031215620005be57620005bd62000433565b5b6000620005ce848285016200058e565b91505092915050565b600082825260208201905092915050565b7f4f776e61626c653a206e6577206f776e657220697320746865207a65726f206160008201527f6464726573730000000000000000000000000000000000000000000000000000602082015250565b600062000646602683620005d7565b91506200065382620005e8565b604082019050919050565b60006020820190508181036000830152620006798162000637565b9050919050565b7f4f776e61626c653a2063616c6c6572206973206e6f7420746865206f776e6572600082015250565b6000620006b8602083620005d7565b9150620006c58262000680565b602082019050919050565b60006020820190508181036000830152620006eb81620006a9565b9050919050565b611b5680620007026000396000f3fe608060405234801561001057600080fd5b50600436106101425760003560e01c806371f8a0ff116100b85780638e4707301161007c5780638e47073014610355578063a4d4334a14610385578063c825e6ae146103a3578063de292789146103c1578063f2fde38b146103df578063fc0c546a146103fb57610142565b806371f8a0ff146102ad578063767123ec146102cb5780637a9262a2146102e95780637aec978d146103195780638da5cb5b1461033757610142565b8063477348921161010a57806347734892146101c75780634a39ec90146101f75780635109df6c14610227578063520ab54d146102575780636ffcc71914610287578063715018a6146102a357610142565b80631053eaa3146101475780631a39d8ef1461016557806326f11b13146101835780633ccfd60b146101b35780634026478e146101bd575b600080fd5b61014f610419565b60405161015c919061127d565b60405180910390f35b61016d6104b1565b60405161017a91906112b1565b60405180910390f35b61019d600480360381019061019891906112fd565b610505565b6040516101aa91906112b1565b60405180910390f35b6101bb61051d565b005b6101c561072c565b005b6101e160048036038101906101dc9190611388565b6109a6565b6040516101ee91906112b1565b60405180910390f35b610211600480360381019061020c91906113b5565b6109cb565b60405161021e91906112b1565b60405180910390f35b610241600480360381019061023c91906112fd565b6109f0565b60405161024e919061140e565b60405180910390f35b610271600480360381019061026c9190611388565b610a95565b60405161027e91906112b1565b60405180910390f35b6102a1600480360381019061029c9190611429565b610b42565b005b6102ab610d57565b005b6102b5610d6b565b6040516102c2919061127d565b60405180910390f35b6102d3610d7e565b6040516102e091906114c8565b60405180910390f35b61030360048036038101906102fe9190611388565b610da4565b604051610310919061127d565b60405180910390f35b610321610dc4565b60405161032e91906112b1565b60405180910390f35b61033f610e5c565b60405161034c91906114f2565b60405180910390f35b61036f600480360381019061036a9190611388565b610e85565b60405161037c91906112b1565b60405180910390f35b61038d610f18565b60405161039a91906112b1565b60405180910390f35b6103ab610fb0565b6040516103b8919061152e565b60405180910390f35b6103c9610fd6565b6040516103d691906112b1565b60405180910390f35b6103f960048036038101906103f49190611388565b61106e565b005b6104036110f2565b604051610410919061156a565b60405180910390f35b6000600260009054906101000a900473ffffffffffffffffffffffffffffffffffffffff1673ffffffffffffffffffffffffffffffffffffffff16631053eaa36040518163ffffffff1660e01b8152600401602060405180830381865afa158015610488573d6000803e3d6000fd5b505050506040513d601f19601f820116820180604052508101906104ac91906115b1565b905090565b6000806104bc610f18565b90506000805b828110156104fc576006600082815260200190815260200160002054826104e9919061160d565b9150806104f590611663565b90506104c2565b50809250505090565b60066020528060005260406000206000915090505481565b610525610419565b610564576040517f08c379a000000000000000000000000000000000000000000000000000000000815260040161055b90611709565b60405180910390fd5b600560003373ffffffffffffffffffffffffffffffffffffffff1673ffffffffffffffffffffffffffffffffffffffff16815260200190815260200160002060009054906101000a900460ff16156105f1576040517f08c379a00000000000000000000000000000000000000000000000000000000081526004016105e890611775565b60405180910390fd5b6001600560003373ffffffffffffffffffffffffffffffffffffffff1673ffffffffffffffffffffffffffffffffffffffff16815260200190815260200160002060006101000a81548160ff0219169083151502179055506000610654336109a6565b9050600360009054906101000a900473ffffffffffffffffffffffffffffffffffffffff1673ffffffffffffffffffffffffffffffffffffffff1663f3fef3a333836040518363ffffffff1660e01b81526004016106b3929190611795565b600060405180830381600087803b1580156106cd57600080fd5b505af11580156106e1573d6000803e3d6000fd5b50505050803373ffffffffffffffffffffffffffffffffffffffff167f3e458a8e29bab8625f68d7126a788b1dfe3ac22fbe1aae4ff144fa17113e295360405160405180910390a350565b600060149054906101000a900460ff1661077b576040517f08c379a00000000000000000000000000000000000000000000000000000000081526004016107729061180a565b60405180910390fd5b610783611118565b60008060146101000a81548160ff021916908315150217905550600360009054906101000a900473ffffffffffffffffffffffffffffffffffffffff1673ffffffffffffffffffffffffffffffffffffffff1663b6b55f25600160009054906101000a900473ffffffffffffffffffffffffffffffffffffffff1673ffffffffffffffffffffffffffffffffffffffff166370a08231306040518263ffffffff1660e01b815260040161083691906114f2565b602060405180830381865afa158015610853573d6000803e3d6000fd5b505050506040513d601f19601f82011682018060405250810190610877919061183f565b6040518263ffffffff1660e01b815260040161089391906112b1565b600060405180830381600087803b1580156108ad57600080fd5b505af11580156108c1573d6000803e3d6000fd5b50505050600160009054906101000a900473ffffffffffffffffffffffffffffffffffffffff1673ffffffffffffffffffffffffffffffffffffffff166370a08231306040518263ffffffff1660e01b815260040161092091906114f2565b602060405180830381865afa15801561093d573d6000803e3d6000fd5b505050506040513d601f19601f82011682018060405250810190610961919061183f565b3073ffffffffffffffffffffffffffffffffffffffff167f566e2ac33f6bfdf80641908d269de0bfa6a5dfb7af3e3b0ca5da6b7113810a3760405160405180910390a3565b60006109b182610a95565b6109ba83610e85565b6109c4919061160d565b9050919050565b6004602052816000526040600020602052806000526040600020600091509150505481565b6000600260009054906101000a900473ffffffffffffffffffffffffffffffffffffffff1673ffffffffffffffffffffffffffffffffffffffff16635109df6c836040518263ffffffff1660e01b8152600401610a4d91906112b1565b602060405180830381865afa158015610a6a573d6000803e3d6000fd5b505050506040513d601f19601f82011682018060405250810190610a8e9190611898565b9050919050565b6000610a9f610419565b610aac5760009050610b3d565b6000610ab6610fd6565b90506006600082815260200190815260200160002054610ad4610dc4565b600460008673ffffffffffffffffffffffffffffffffffffffff1673ffffffffffffffffffffffffffffffffffffffff168152602001908152602001600020600084815260200190815260200160002054610b2f91906118c5565b610b39919061194e565b9150505b919050565b600060149054906101000a900460ff16610b91576040517f08c379a0000000000000000000000000000000000000000000000000000000008152600401610b889061180a565b60405180910390fd5b610b99610f18565b8210610bda576040517f08c379a0000000000000000000000000000000000000000000000000000000008152600401610bd1906119cb565b60405180910390fd5b80600460003373ffffffffffffffffffffffffffffffffffffffff1673ffffffffffffffffffffffffffffffffffffffff16815260200190815260200160002060008481526020019081526020016000206000828254610c3a919061160d565b9250508190555080600660008481526020019081526020016000206000828254610c64919061160d565b92505081905550600160009054906101000a900473ffffffffffffffffffffffffffffffffffffffff1673ffffffffffffffffffffffffffffffffffffffff166323b872dd3330846040518463ffffffff1660e01b8152600401610cca939291906119eb565b6020604051808303816000875af1158015610ce9573d6000803e3d6000fd5b505050506040513d601f19601f82011682018060405250810190610d0d91906115b1565b5080823373ffffffffffffffffffffffffffffffffffffffff167f4b9c4358e7b15d2061e55a8f49b6e311c3129905844e9361e033f2de90bf38e760405160405180910390a45050565b610d5f611118565b610d696000611196565b565b600060149054906101000a900460ff1681565b600260009054906101000a900473ffffffffffffffffffffffffffffffffffffffff1681565b60056020528060005260406000206000915054906101000a900460ff1681565b6000600360009054906101000a900473ffffffffffffffffffffffffffffffffffffffff1673ffffffffffffffffffffffffffffffffffffffff16637c2628716040518163ffffffff1660e01b8152600401602060405180830381865afa158015610e33573d6000803e3d6000fd5b505050506040513d601f19601f82011682018060405250810190610e57919061183f565b905090565b60008060009054906101000a900473ffffffffffffffffffffffffffffffffffffffff16905090565b600080610e90610f18565b90506000805b82811015610f0d57600460008673ffffffffffffffffffffffffffffffffffffffff1673ffffffffffffffffffffffffffffffffffffffff16815260200190815260200160002060008281526020019081526020016000205482610efa919061160d565b915080610f0690611663565b9050610e96565b508092505050919050565b6000600260009054906101000a900473ffffffffffffffffffffffffffffffffffffffff1673ffffffffffffffffffffffffffffffffffffffff1663a4d4334a6040518163ffffffff1660e01b8152600401602060405180830381865afa158015610f87573d6000803e3d6000fd5b505050506040513d601f19601f82011682018060405250810190610fab919061183f565b905090565b600360009054906101000a900473ffffffffffffffffffffffffffffffffffffffff1681565b6000600260009054906101000a900473ffffffffffffffffffffffffffffffffffffffff1673ffffffffffffffffffffffffffffffffffffffff1663de2927896040518163ffffffff1660e01b8152600401602060405180830381865afa158015611045573d6000803e3d6000fd5b505050506040513d601f19601f82011682018060405250810190611069919061183f565b905090565b611076611118565b600073ffffffffffffffffffffffffffffffffffffffff168173ffffffffffffffffffffffffffffffffffffffff1614156110e6576040517f08c379a00000000000000000000000000000000000000000000000000000000081526004016110dd90611a94565b60405180910390fd5b6110ef81611196565b50565b600160009054906101000a900473ffffffffffffffffffffffffffffffffffffffff1681565b61112061125a565b73ffffffffffffffffffffffffffffffffffffffff1661113e610e5c565b73ffffffffffffffffffffffffffffffffffffffff1614611194576040517f08c379a000000000000000000000000000000000000000000000000000000000815260040161118b90611b00565b60405180910390fd5b565b60008060009054906101000a900473ffffffffffffffffffffffffffffffffffffffff169050816000806101000a81548173ffffffffffffffffffffffffffffffffffffffff021916908373ffffffffffffffffffffffffffffffffffffffff1602179055508173ffffffffffffffffffffffffffffffffffffffff168173ffffffffffffffffffffffffffffffffffffffff167f8be0079c531659141344cd1fd0a4f28419497f9722a3daafe3b4186f6b6457e060405160405180910390a35050565b600033905090565b60008115159050919050565b61127781611262565b82525050565b6000602082019050611292600083018461126e565b92915050565b6000819050919050565b6112ab81611298565b82525050565b60006020820190506112c660008301846112a2565b92915050565b600080fd5b6112da81611298565b81146112e557600080fd5b50565b6000813590506112f7816112d1565b92915050565b600060208284031215611313576113126112cc565b5b6000611321848285016112e8565b91505092915050565b600073ffffffffffffffffffffffffffffffffffffffff82169050919050565b60006113558261132a565b9050919050565b6113658161134a565b811461137057600080fd5b50565b6000813590506113828161135c565b92915050565b60006020828403121561139e5761139d6112cc565b5b60006113ac84828501611373565b91505092915050565b600080604083850312156113cc576113cb6112cc565b5b60006113da85828601611373565b92505060206113eb858286016112e8565b9150509250929050565b6000819050919050565b611408816113f5565b82525050565b600060208201905061142360008301846113ff565b92915050565b600080604083850312156114405761143f6112cc565b5b600061144e858286016112e8565b925050602061145f858286016112e8565b9150509250929050565b6000819050919050565b600061148e6114896114848461132a565b611469565b61132a565b9050919050565b60006114a082611473565b9050919050565b60006114b282611495565b9050919050565b6114c2816114a7565b82525050565b60006020820190506114dd60008301846114b9565b92915050565b6114ec8161134a565b82525050565b600060208201905061150760008301846114e3565b92915050565b600061151882611495565b9050919050565b6115288161150d565b82525050565b6000602082019050611543600083018461151f565b92915050565b600061155482611495565b9050919050565b61156481611549565b82525050565b600060208201905061157f600083018461155b565b92915050565b61158e81611262565b811461159957600080fd5b50565b6000815190506115ab81611585565b92915050565b6000602082840312156115c7576115c66112cc565b5b60006115d58482850161159c565b91505092915050565b7f4e487b7100000000000000000000000000000000000000000000000000000000600052601160045260246000fd5b600061161882611298565b915061162383611298565b9250827fffffffffffffffffffffffffffffffffffffffffffffffffffffffffffffffff03821115611658576116576115de565b5b828201905092915050565b600061166e82611298565b91507fffffffffffffffffffffffffffffffffffffffffffffffffffffffffffffffff8214156116a1576116a06115de565b5b600182019050919050565b600082825260208201905092915050565b7f506f6f6c206e6f742066696e69736865642e0000000000000000000000000000600082015250565b60006116f36012836116ac565b91506116fe826116bd565b602082019050919050565b60006020820190508181036000830152611722816116e6565b9050919050565b7f416c72656164792077697468647265772e000000000000000000000000000000600082015250565b600061175f6011836116ac565b915061176a82611729565b602082019050919050565b6000602082019050818103600083015261178e81611752565b9050919050565b60006040820190506117aa60008301856114e3565b6117b760208301846112a2565b9392505050565b7f506f6f6c20697320636c6f736564000000000000000000000000000000000000600082015250565b60006117f4600e836116ac565b91506117ff826117be565b602082019050919050565b60006020820190508181036000830152611823816117e7565b9050919050565b600081519050611839816112d1565b92915050565b600060208284031215611855576118546112cc565b5b60006118638482850161182a565b91505092915050565b611875816113f5565b811461188057600080fd5b50565b6000815190506118928161186c565b92915050565b6000602082840312156118ae576118ad6112cc565b5b60006118bc84828501611883565b91505092915050565b60006118d082611298565b91506118db83611298565b9250817fffffffffffffffffffffffffffffffffffffffffffffffffffffffffffffffff0483118215151615611914576119136115de565b5b828202905092915050565b7f4e487b7100000000000000000000000000000000000000000000000000000000600052601260045260246000fd5b600061195982611298565b915061196483611298565b9250826119745761197361191f565b5b828204905092915050565b7f496e76616c6964206f7074696f6e732e00000000000000000000000000000000600082015250565b60006119b56010836116ac565b91506119c08261197f565b602082019050919050565b600060208201905081810360008301526119e4816119a8565b9050919050565b6000606082019050611a0060008301866114e3565b611a0d60208301856114e3565b611a1a60408301846112a2565b949350505050565b7f4f776e61626c653a206e6577206f776e657220697320746865207a65726f206160008201527f6464726573730000000000000000000000000000000000000000000000000000602082015250565b6000611a7e6026836116ac565b9150611a8982611a22565b604082019050919050565b60006020820190508181036000830152611aad81611a71565b9050919050565b7f4f776e61626c653a2063616c6c6572206973206e6f7420746865206f776e6572600082015250565b6000611aea6020836116ac565b9150611af582611ab4565b602082019050919050565b60006020820190508181036000830152611b1981611add565b905091905056fea2646970667358221220ddd4ee2cedeed312bbe6fe7719460a9fe9c9eaf9f0fdc04aa7cc8dc460efa63664736f6c634300080a0033",
  "devdoc": {
    "kind": "dev",
    "methods": {
      "owner()": {
        "details": "Returns the address of the current owner."
      },
      "renounceOwnership()": {
        "details": "Leaves the contract without owner. It will not be possible to call `onlyOwner` functions anymore. Can only be called by the current owner. NOTE: Renouncing ownership will leave the contract without an owner, thereby removing any functionality that is only available to the owner."
      },
      "transferOwnership(address)": {
        "details": "Transfers ownership of the contract to a new account (`newOwner`). Can only be called by the current owner."
      }
    },
    "version": 1
  },
  "userdoc": {
    "kind": "user",
    "methods": {},
    "version": 1
  },
  "storageLayout": {
    "storage": [
      {
        "astId": 7,
        "contract": "contracts/bettingPool.sol:BettingPool",
        "label": "_owner",
        "offset": 0,
        "slot": "0",
        "type": "t_address"
      },
      {
        "astId": 913,
        "contract": "contracts/bettingPool.sol:BettingPool",
        "label": "openForBets",
        "offset": 20,
        "slot": "0",
        "type": "t_bool"
      },
      {
        "astId": 916,
        "contract": "contracts/bettingPool.sol:BettingPool",
        "label": "token",
        "offset": 0,
        "slot": "1",
        "type": "t_contract(IERC20)776"
      },
      {
        "astId": 919,
        "contract": "contracts/bettingPool.sol:BettingPool",
        "label": "resultController",
        "offset": 0,
        "slot": "2",
        "type": "t_contract(IResultController)854"
      },
      {
        "astId": 922,
        "contract": "contracts/bettingPool.sol:BettingPool",
        "label": "yieldSrc",
        "offset": 0,
        "slot": "3",
        "type": "t_contract(IYieldSource)879"
      },
      {
        "astId": 928,
        "contract": "contracts/bettingPool.sol:BettingPool",
        "label": "bets",
        "offset": 0,
        "slot": "4",
        "type": "t_mapping(t_address,t_mapping(t_uint256,t_uint256))"
      },
      {
        "astId": 932,
        "contract": "contracts/bettingPool.sol:BettingPool",
        "label": "withdrawals",
        "offset": 0,
        "slot": "5",
        "type": "t_mapping(t_address,t_bool)"
      },
      {
        "astId": 936,
        "contract": "contracts/bettingPool.sol:BettingPool",
        "label": "optionTotalBets",
        "offset": 0,
        "slot": "6",
        "type": "t_mapping(t_uint256,t_uint256)"
      }
    ],
    "types": {
      "t_address": {
        "encoding": "inplace",
        "label": "address",
        "numberOfBytes": "20"
      },
      "t_bool": {
        "encoding": "inplace",
        "label": "bool",
        "numberOfBytes": "1"
      },
      "t_contract(IERC20)776": {
        "encoding": "inplace",
        "label": "contract IERC20",
        "numberOfBytes": "20"
      },
      "t_contract(IResultController)854": {
        "encoding": "inplace",
        "label": "contract IResultController",
        "numberOfBytes": "20"
      },
      "t_contract(IYieldSource)879": {
        "encoding": "inplace",
        "label": "contract IYieldSource",
        "numberOfBytes": "20"
      },
      "t_mapping(t_address,t_bool)": {
        "encoding": "mapping",
        "key": "t_address",
        "label": "mapping(address => bool)",
        "numberOfBytes": "32",
        "value": "t_bool"
      },
      "t_mapping(t_address,t_mapping(t_uint256,t_uint256))": {
        "encoding": "mapping",
        "key": "t_address",
        "label": "mapping(address => mapping(uint256 => uint256))",
        "numberOfBytes": "32",
        "value": "t_mapping(t_uint256,t_uint256)"
      },
      "t_mapping(t_uint256,t_uint256)": {
        "encoding": "mapping",
        "key": "t_uint256",
        "label": "mapping(uint256 => uint256)",
        "numberOfBytes": "32",
        "value": "t_uint256"
      },
      "t_uint256": {
        "encoding": "inplace",
        "label": "uint256",
        "numberOfBytes": "32"
      }
    }
  }
}