{
  "address": "0xCd6659cE83406DAD3b08744694382A138e5d948c",
  "abi": [
    {
      "inputs": [
        {
          "internalType": "address",
          "name": "owner",
          "type": "address"
        }
      ],
      "stateMutability": "nonpayable",
      "type": "constructor"
    },
    {
      "anonymous": false,
      "inputs": [
        {
          "indexed": true,
          "internalType": "address",
          "name": "previousOwner",
          "type": "address"
        },
        {
          "indexed": true,
          "internalType": "address",
          "name": "newOwner",
          "type": "address"
        }
      ],
      "name": "OwnershipTransferred",
      "type": "event"
    },
    {
      "anonymous": false,
      "inputs": [
        {
          "indexed": true,
          "internalType": "address",
          "name": "controller",
          "type": "address"
        },
        {
          "indexed": true,
          "internalType": "uint256",
          "name": "result",
          "type": "uint256"
        }
      ],
      "name": "resultGenerated",
      "type": "event"
    },
    {
      "inputs": [],
      "name": "generateResult",
      "outputs": [],
      "stateMutability": "nonpayable",
      "type": "function"
    },
    {
      "inputs": [
        {
          "internalType": "uint256",
          "name": "index",
          "type": "uint256"
        }
      ],
      "name": "getOptionName",
      "outputs": [
        {
          "internalType": "bytes32",
          "name": "",
          "type": "bytes32"
        }
      ],
      "stateMutability": "view",
      "type": "function"
    },
    {
      "inputs": [],
      "name": "getOptionsCount",
      "outputs": [
        {
          "internalType": "uint256",
          "name": "",
          "type": "uint256"
        }
      ],
      "stateMutability": "view",
      "type": "function"
    },
    {
      "inputs": [],
      "name": "getRandomNumber",
      "outputs": [
        {
          "internalType": "uint256",
          "name": "notQuiteRandomNumber",
          "type": "uint256"
        }
      ],
      "stateMutability": "view",
      "type": "function"
    },
    {
      "inputs": [
        {
          "internalType": "uint256",
          "name": "limit",
          "type": "uint256"
        }
      ],
      "name": "getRandomNumberFromInterval",
      "outputs": [
        {
          "internalType": "uint256",
          "name": "heads",
          "type": "uint256"
        }
      ],
      "stateMutability": "view",
      "type": "function"
    },
    {
      "inputs": [],
      "name": "getResult",
      "outputs": [
        {
          "internalType": "uint256",
          "name": "",
          "type": "uint256"
        }
      ],
      "stateMutability": "view",
      "type": "function"
    },
    {
      "inputs": [],
      "name": "hasResult",
      "outputs": [
        {
          "internalType": "bool",
          "name": "",
          "type": "bool"
        }
      ],
      "stateMutability": "view",
      "type": "function"
    },
    {
      "inputs": [],
      "name": "owner",
      "outputs": [
        {
          "internalType": "address",
          "name": "",
          "type": "address"
        }
      ],
      "stateMutability": "view",
      "type": "function"
    },
    {
      "inputs": [],
      "name": "renounceOwnership",
      "outputs": [],
      "stateMutability": "nonpayable",
      "type": "function"
    },
    {
      "inputs": [
        {
          "internalType": "address",
          "name": "newOwner",
          "type": "address"
        }
      ],
      "name": "transferOwnership",
      "outputs": [],
      "stateMutability": "nonpayable",
      "type": "function"
    }
  ],
  "transactionHash": "0x34c8f249a88f37660ab59c45bd7db782b84b27f78639abe8e10be79fbb07e752",
  "args": [
    "0xB087848Ca9565995105a8aE803B33719bD395a7C"
  ],
  "numDeployments": 1,
  "solcInputHash": "bb28a188621dfd723062a5b2d4a3c811",
  "bytecode": "0x60806040523480156200001157600080fd5b5060405162000fca38038062000fca83398181016040528101906200003791906200039c565b620000576200004b6200011560201b60201c565b6200011d60201b60201c565b60008060146101000a81548160ff02191690831515021790555060028081905550604051602001620000899062000429565b604051602081830303815290604052620000a39062000489565b6003600080815260200190815260200160002081905550604051602001620000cb9062000549565b604051602081830303815290604052620000e59062000489565b6003600060018152602001908152602001600020819055506200010e81620001e160201b60201c565b506200067b565b600033905090565b60008060009054906101000a900473ffffffffffffffffffffffffffffffffffffffff169050816000806101000a81548173ffffffffffffffffffffffffffffffffffffffff021916908373ffffffffffffffffffffffffffffffffffffffff1602179055508173ffffffffffffffffffffffffffffffffffffffff168173ffffffffffffffffffffffffffffffffffffffff167f8be0079c531659141344cd1fd0a4f28419497f9722a3daafe3b4186f6b6457e060405160405180910390a35050565b620001f16200027860201b60201c565b600073ffffffffffffffffffffffffffffffffffffffff168173ffffffffffffffffffffffffffffffffffffffff16141562000264576040517f08c379a00000000000000000000000000000000000000000000000000000000081526004016200025b90620005e7565b60405180910390fd5b62000275816200011d60201b60201c565b50565b620002886200011560201b60201c565b73ffffffffffffffffffffffffffffffffffffffff16620002ae6200030960201b60201c565b73ffffffffffffffffffffffffffffffffffffffff161462000307576040517f08c379a0000000000000000000000000000000000000000000000000000000008152600401620002fe9062000659565b60405180910390fd5b565b60008060009054906101000a900473ffffffffffffffffffffffffffffffffffffffff16905090565b600080fd5b600073ffffffffffffffffffffffffffffffffffffffff82169050919050565b6000620003648262000337565b9050919050565b620003768162000357565b81146200038257600080fd5b50565b60008151905062000396816200036b565b92915050565b600060208284031215620003b557620003b462000332565b5b6000620003c58482850162000385565b91505092915050565b600081905092915050565b7f4865616473000000000000000000000000000000000000000000000000000000600082015250565b600062000411600583620003ce565b91506200041e82620003d9565b600582019050919050565b6000620004368262000402565b9150819050919050565b600081519050919050565b6000819050602082019050919050565b6000819050919050565b60006200047382516200045b565b80915050919050565b600082821b905092915050565b6000620004968262000440565b82620004a2846200044b565b9050620004af8162000465565b92506020821015620004f257620004ed7fffffffffffffffffffffffffffffffffffffffffffffffffffffffffffffffff836020036008026200047c565b831692505b5050919050565b7f5461696c73000000000000000000000000000000000000000000000000000000600082015250565b600062000531600583620003ce565b91506200053e82620004f9565b600582019050919050565b6000620005568262000522565b9150819050919050565b600082825260208201905092915050565b7f4f776e61626c653a206e6577206f776e657220697320746865207a65726f206160008201527f6464726573730000000000000000000000000000000000000000000000000000602082015250565b6000620005cf60268362000560565b9150620005dc8262000571565b604082019050919050565b600060208201905081810360008301526200060281620005c0565b9050919050565b7f4f776e61626c653a2063616c6c6572206973206e6f7420746865206f776e6572600082015250565b60006200064160208362000560565b91506200064e8262000609565b602082019050919050565b60006020820190508181036000830152620006748162000632565b9050919050565b61093f806200068b6000396000f3fe608060405234801561001057600080fd5b506004361061009e5760003560e01c8063a4d4334a11610066578063a4d4334a14610123578063caf8d5f014610141578063dbdff2c114610171578063de2927891461018f578063f2fde38b146101ad5761009e565b80631053eaa3146100a35780631dbe2e0e146100c15780635109df6c146100cb578063715018a6146100fb5780638da5cb5b14610105575b600080fd5b6100ab6101c9565b6040516100b89190610535565b60405180910390f35b6100c96101df565b005b6100e560048036038101906100e0919061058b565b6102aa565b6040516100f291906105d1565b60405180910390f35b6101036102c7565b005b61010d6102db565b60405161011a919061062d565b60405180910390f35b61012b610304565b6040516101389190610657565b60405180910390f35b61015b6004803603810190610156919061058b565b61030e565b6040516101689190610657565b60405180910390f35b61017961032a565b6040516101869190610657565b60405180910390f35b610197610342565b6040516101a49190610657565b60405180910390f35b6101c760048036038101906101c2919061069e565b61034c565b005b60008060149054906101000a900460ff16905090565b6101e76103d0565b600060149054906101000a900460ff1615610237576040517f08c379a000000000000000000000000000000000000000000000000000000000815260040161022e90610728565b60405180910390fd5b6001600060146101000a81548160ff02191690831515021790555061025c600261030e565b6001819055506001543073ffffffffffffffffffffffffffffffffffffffff167f19d22413a5e18244e9883866082c3fd384c3b031c96fac8b7a6a7c4dfbb90bf360405160405180910390a3565b600060036000838152602001908152602001600020549050919050565b6102cf6103d0565b6102d9600061044e565b565b60008060009054906101000a900473ffffffffffffffffffffffffffffffffffffffff16905090565b6000600254905090565b60008161031961032a565b6103239190610777565b9050919050565b600060014361033991906107d7565b4060001c905090565b6000600154905090565b6103546103d0565b600073ffffffffffffffffffffffffffffffffffffffff168173ffffffffffffffffffffffffffffffffffffffff1614156103c4576040517f08c379a00000000000000000000000000000000000000000000000000000000081526004016103bb9061087d565b60405180910390fd5b6103cd8161044e565b50565b6103d8610512565b73ffffffffffffffffffffffffffffffffffffffff166103f66102db565b73ffffffffffffffffffffffffffffffffffffffff161461044c576040517f08c379a0000000000000000000000000000000000000000000000000000000008152600401610443906108e9565b60405180910390fd5b565b60008060009054906101000a900473ffffffffffffffffffffffffffffffffffffffff169050816000806101000a81548173ffffffffffffffffffffffffffffffffffffffff021916908373ffffffffffffffffffffffffffffffffffffffff1602179055508173ffffffffffffffffffffffffffffffffffffffff168173ffffffffffffffffffffffffffffffffffffffff167f8be0079c531659141344cd1fd0a4f28419497f9722a3daafe3b4186f6b6457e060405160405180910390a35050565b600033905090565b60008115159050919050565b61052f8161051a565b82525050565b600060208201905061054a6000830184610526565b92915050565b600080fd5b6000819050919050565b61056881610555565b811461057357600080fd5b50565b6000813590506105858161055f565b92915050565b6000602082840312156105a1576105a0610550565b5b60006105af84828501610576565b91505092915050565b6000819050919050565b6105cb816105b8565b82525050565b60006020820190506105e660008301846105c2565b92915050565b600073ffffffffffffffffffffffffffffffffffffffff82169050919050565b6000610617826105ec565b9050919050565b6106278161060c565b82525050565b6000602082019050610642600083018461061e565b92915050565b61065181610555565b82525050565b600060208201905061066c6000830184610648565b92915050565b61067b8161060c565b811461068657600080fd5b50565b60008135905061069881610672565b92915050565b6000602082840312156106b4576106b3610550565b5b60006106c284828501610689565b91505092915050565b600082825260208201905092915050565b7f416c72656164792068617320726573756c740000000000000000000000000000600082015250565b60006107126012836106cb565b915061071d826106dc565b602082019050919050565b6000602082019050818103600083015261074181610705565b9050919050565b7f4e487b7100000000000000000000000000000000000000000000000000000000600052601260045260246000fd5b600061078282610555565b915061078d83610555565b92508261079d5761079c610748565b5b828206905092915050565b7f4e487b7100000000000000000000000000000000000000000000000000000000600052601160045260246000fd5b60006107e282610555565b91506107ed83610555565b925082821015610800576107ff6107a8565b5b828203905092915050565b7f4f776e61626c653a206e6577206f776e657220697320746865207a65726f206160008201527f6464726573730000000000000000000000000000000000000000000000000000602082015250565b60006108676026836106cb565b91506108728261080b565b604082019050919050565b600060208201905081810360008301526108968161085a565b9050919050565b7f4f776e61626c653a2063616c6c6572206973206e6f7420746865206f776e6572600082015250565b60006108d36020836106cb565b91506108de8261089d565b602082019050919050565b60006020820190508181036000830152610902816108c6565b905091905056fea26469706673582212202f1c3698b8e4a8c0964e681d57bf353532e2e64846f03af333ce5628a34bcb4964736f6c634300080a0033",
  "devdoc": {
    "kind": "dev",
    "methods": {
      "owner()": {
        "details": "Returns the address of the current owner."
      },
      "renounceOwnership()": {
        "details": "Leaves the contract without owner. It will not be possible to call `onlyOwner` functions anymore. Can only be called by the current owner. NOTE: Renouncing ownership will leave the contract without an owner, thereby removing any functionality that is only available to the owner."
      },
      "transferOwnership(address)": {
        "details": "Transfers ownership of the contract to a new account (`newOwner`). Can only be called by the current owner."
      }
    },
    "version": 1
  },
  "userdoc": {
    "kind": "user",
    "methods": {},
    "version": 1
  },
  "storageLayout": {
    "storage": [
      {
        "astId": 161,
        "contract": "contracts/notQuiteRandom/coinFlip.sol:notQuiteRandomCoinFlip",
        "label": "_owner",
        "offset": 0,
        "slot": "0",
        "type": "t_address"
      },
      {
        "astId": 1728,
        "contract": "contracts/notQuiteRandom/coinFlip.sol:notQuiteRandomCoinFlip",
        "label": "_hasResult",
        "offset": 20,
        "slot": "0",
        "type": "t_bool"
      },
      {
        "astId": 1730,
        "contract": "contracts/notQuiteRandom/coinFlip.sol:notQuiteRandomCoinFlip",
        "label": "result",
        "offset": 0,
        "slot": "1",
        "type": "t_uint256"
      },
      {
        "astId": 1732,
        "contract": "contracts/notQuiteRandom/coinFlip.sol:notQuiteRandomCoinFlip",
        "label": "optionsCount",
        "offset": 0,
        "slot": "2",
        "type": "t_uint256"
      },
      {
        "astId": 1736,
        "contract": "contracts/notQuiteRandom/coinFlip.sol:notQuiteRandomCoinFlip",
        "label": "names",
        "offset": 0,
        "slot": "3",
        "type": "t_mapping(t_uint256,t_bytes32)"
      }
    ],
    "types": {
      "t_address": {
        "encoding": "inplace",
        "label": "address",
        "numberOfBytes": "20"
      },
      "t_bool": {
        "encoding": "inplace",
        "label": "bool",
        "numberOfBytes": "1"
      },
      "t_bytes32": {
        "encoding": "inplace",
        "label": "bytes32",
        "numberOfBytes": "32"
      },
      "t_mapping(t_uint256,t_bytes32)": {
        "encoding": "mapping",
        "key": "t_uint256",
        "label": "mapping(uint256 => bytes32)",
        "numberOfBytes": "32",
        "value": "t_bytes32"
      },
      "t_uint256": {
        "encoding": "inplace",
        "label": "uint256",
        "numberOfBytes": "32"
      }
    }
  }
}