{
  "address": "0x5f5fc6562189653885802613c55Baf60cEaE6Fa0",
  "abi": [
    {
      "inputs": [
        {
          "internalType": "address",
          "name": "vrfCoordinator",
          "type": "address"
        },
        {
          "internalType": "uint64",
          "name": "subscriptionId",
          "type": "uint64"
        }
      ],
      "stateMutability": "nonpayable",
      "type": "constructor"
    },
    {
      "inputs": [
        {
          "internalType": "address",
          "name": "have",
          "type": "address"
        },
        {
          "internalType": "address",
          "name": "want",
          "type": "address"
        }
      ],
      "name": "OnlyCoordinatorCanFulfill",
      "type": "error"
    },
    {
      "anonymous": false,
      "inputs": [
        {
          "indexed": true,
          "internalType": "address",
          "name": "previousOwner",
          "type": "address"
        },
        {
          "indexed": true,
          "internalType": "address",
          "name": "newOwner",
          "type": "address"
        }
      ],
      "name": "OwnershipTransferred",
      "type": "event"
    },
    {
      "anonymous": false,
      "inputs": [
        {
          "indexed": true,
          "internalType": "address",
          "name": "owner",
          "type": "address"
        },
        {
          "indexed": true,
          "internalType": "address",
          "name": "newCoinFlip",
          "type": "address"
        }
      ],
      "name": "coinFlipCreated",
      "type": "event"
    },
    {
      "anonymous": false,
      "inputs": [
        {
          "indexed": true,
          "internalType": "address",
          "name": "consumer",
          "type": "address"
        },
        {
          "indexed": true,
          "internalType": "uint256",
          "name": "requestId",
          "type": "uint256"
        }
      ],
      "name": "randomWordsRequested",
      "type": "event"
    },
    {
      "inputs": [
        {
          "internalType": "address",
          "name": "owner",
          "type": "address"
        }
      ],
      "name": "createCoinFlipController",
      "outputs": [
        {
          "internalType": "address",
          "name": "",
          "type": "address"
        }
      ],
      "stateMutability": "nonpayable",
      "type": "function"
    },
    {
      "inputs": [],
      "name": "owner",
      "outputs": [
        {
          "internalType": "address",
          "name": "",
          "type": "address"
        }
      ],
      "stateMutability": "view",
      "type": "function"
    },
    {
      "inputs": [
        {
          "internalType": "uint256",
          "name": "requestId",
          "type": "uint256"
        },
        {
          "internalType": "uint256[]",
          "name": "randomWords",
          "type": "uint256[]"
        }
      ],
      "name": "rawFulfillRandomWords",
      "outputs": [],
      "stateMutability": "nonpayable",
      "type": "function"
    },
    {
      "inputs": [],
      "name": "renounceOwnership",
      "outputs": [],
      "stateMutability": "nonpayable",
      "type": "function"
    },
    {
      "inputs": [],
      "name": "requestRandomWords",
      "outputs": [
        {
          "internalType": "uint256",
          "name": "",
          "type": "uint256"
        }
      ],
      "stateMutability": "nonpayable",
      "type": "function"
    },
    {
      "inputs": [
        {
          "internalType": "address",
          "name": "newOwner",
          "type": "address"
        }
      ],
      "name": "transferOwnership",
      "outputs": [],
      "stateMutability": "nonpayable",
      "type": "function"
    }
  ],
  "transactionHash": "0x3f5df982c860b54a55c1cae51f3d4216c14b05f7b42667248ed594d2ee153d85",
  "args": [
    "0x7a1bac17ccc5b313516c5e16fb24f7659aa5ebed",
    "1519"
  ],
  "numDeployments": 1,
  "solcInputHash": "d0308870fbed7cb2419c919e2a8e675f",
  "bytecode": "0x60a06040527f4b09e658ed251bcafeebbc69400383d49f344ace09b9576fe248bb02c003fe9f60001b600455620493e0600560006101000a81548163ffffffff021916908363ffffffff1602179055506003600560046101000a81548161ffff021916908361ffff1602179055506002600560066101000a81548163ffffffff021916908363ffffffff1602179055503480156200009c57600080fd5b5060405162002547380380620025478339818101604052810190620000c2919062000305565b818073ffffffffffffffffffffffffffffffffffffffff1660808173ffffffffffffffffffffffffffffffffffffffff168152505050620001186200010c6200018a60201b60201c565b6200019260201b60201c565b81600160006101000a81548173ffffffffffffffffffffffffffffffffffffffff021916908373ffffffffffffffffffffffffffffffffffffffff16021790555080600160146101000a81548167ffffffffffffffff021916908367ffffffffffffffff16021790555050506200034c565b600033905090565b60008060009054906101000a900473ffffffffffffffffffffffffffffffffffffffff169050816000806101000a81548173ffffffffffffffffffffffffffffffffffffffff021916908373ffffffffffffffffffffffffffffffffffffffff1602179055508173ffffffffffffffffffffffffffffffffffffffff168173ffffffffffffffffffffffffffffffffffffffff167f8be0079c531659141344cd1fd0a4f28419497f9722a3daafe3b4186f6b6457e060405160405180910390a35050565b600080fd5b600073ffffffffffffffffffffffffffffffffffffffff82169050919050565b600062000288826200025b565b9050919050565b6200029a816200027b565b8114620002a657600080fd5b50565b600081519050620002ba816200028f565b92915050565b600067ffffffffffffffff82169050919050565b620002df81620002c0565b8114620002eb57600080fd5b50565b600081519050620002ff81620002d4565b92915050565b600080604083850312156200031f576200031e62000256565b5b60006200032f85828601620002a9565b92505060206200034285828601620002ee565b9150509250929050565b6080516121d86200036f60003960008181610137015261018c01526121d86000f3fe60806040523480156200001157600080fd5b50600436106200006a5760003560e01c80631fe543e3146200006f578063715018a6146200008f5780638da5cb5b146200009b578063d542225714620000bd578063e0c8628914620000f3578063f2fde38b1462000115575b600080fd5b6200008d6004803603810190620000879190620009d7565b62000135565b005b62000099620001fa565b005b620000a562000212565b604051620000b4919062000a82565b60405180910390f35b620000db6004803603810190620000d5919062000ad0565b6200023b565b604051620000ea919062000a82565b60405180910390f35b620000fd6200033c565b6040516200010c919062000b13565b60405180910390f35b6200013360048036038101906200012d919062000ad0565b62000565565b005b7f000000000000000000000000000000000000000000000000000000000000000073ffffffffffffffffffffffffffffffffffffffff163373ffffffffffffffffffffffffffffffffffffffff1614620001ea57337f00000000000000000000000000000000000000000000000000000000000000006040517f1cf993f4000000000000000000000000000000000000000000000000000000008152600401620001e192919062000b30565b60405180910390fd5b620001f68282620005f0565b5050565b62000204620006b4565b62000210600062000739565b565b60008060009054906101000a900473ffffffffffffffffffffffffffffffffffffffff16905090565b60008082306040516200024e9062000805565b6200025b92919062000b30565b604051809103906000f08015801562000278573d6000803e3d6000fd5b50905060008190506001600260008373ffffffffffffffffffffffffffffffffffffffff1673ffffffffffffffffffffffffffffffffffffffff16815260200190815260200160002060006101000a81548160ff0219169083151502179055508073ffffffffffffffffffffffffffffffffffffffff163373ffffffffffffffffffffffffffffffffffffffff167fff65a2f0e6a5a7b9318625d6304d1ecfafe47f6976fac810e1979bbead63596a60405160405180910390a38092505050919050565b6000600260003373ffffffffffffffffffffffffffffffffffffffff1673ffffffffffffffffffffffffffffffffffffffff16815260200190815260200160002060009054906101000a900460ff16620003cd576040517f08c379a0000000000000000000000000000000000000000000000000000000008152600401620003c49062000bbe565b60405180910390fd5b6000600160009054906101000a900473ffffffffffffffffffffffffffffffffffffffff1673ffffffffffffffffffffffffffffffffffffffff16635d3b1d30600454600160149054906101000a900467ffffffffffffffff16600560049054906101000a900461ffff16600560009054906101000a900463ffffffff16600560069054906101000a900463ffffffff166040518663ffffffff1660e01b81526004016200048095949392919062000c60565b6020604051808303816000875af1158015620004a0573d6000803e3d6000fd5b505050506040513d601f19601f82011682018060405250810190620004c6919062000cd4565b9050336003600083815260200190815260200160002060006101000a81548173ffffffffffffffffffffffffffffffffffffffff021916908373ffffffffffffffffffffffffffffffffffffffff160217905550803373ffffffffffffffffffffffffffffffffffffffff167fc407cd36521e890cdbbe47ea59b12e5715237449eb41c12208ab386453d8c2a060405160405180910390a38091505090565b6200056f620006b4565b600073ffffffffffffffffffffffffffffffffffffffff168173ffffffffffffffffffffffffffffffffffffffff161415620005e2576040517f08c379a0000000000000000000000000000000000000000000000000000000008152600401620005d99062000d7c565b60405180910390fd5b620005ed8162000739565b50565b6003600083815260200190815260200160002060009054906101000a900473ffffffffffffffffffffffffffffffffffffffff1673ffffffffffffffffffffffffffffffffffffffff1663c67defc38260008151811062000656576200065562000d9e565b5b60200260200101516040518263ffffffff1660e01b81526004016200067c919062000b13565b600060405180830381600087803b1580156200069757600080fd5b505af1158015620006ac573d6000803e3d6000fd5b505050505050565b620006be620007fd565b73ffffffffffffffffffffffffffffffffffffffff16620006de62000212565b73ffffffffffffffffffffffffffffffffffffffff161462000737576040517f08c379a00000000000000000000000000000000000000000000000000000000081526004016200072e9062000e1d565b60405180910390fd5b565b60008060009054906101000a900473ffffffffffffffffffffffffffffffffffffffff169050816000806101000a81548173ffffffffffffffffffffffffffffffffffffffff021916908373ffffffffffffffffffffffffffffffffffffffff1602179055508173ffffffffffffffffffffffffffffffffffffffff168173ffffffffffffffffffffffffffffffffffffffff167f8be0079c531659141344cd1fd0a4f28419497f9722a3daafe3b4186f6b6457e060405160405180910390a35050565b600033905090565b6113638062000e4083390190565b6000604051905090565b600080fd5b600080fd5b6000819050919050565b6200083c8162000827565b81146200084857600080fd5b50565b6000813590506200085c8162000831565b92915050565b600080fd5b6000601f19601f8301169050919050565b7f4e487b7100000000000000000000000000000000000000000000000000000000600052604160045260246000fd5b620008b28262000867565b810181811067ffffffffffffffff82111715620008d457620008d362000878565b5b80604052505050565b6000620008e962000813565b9050620008f78282620008a7565b919050565b600067ffffffffffffffff8211156200091a576200091962000878565b5b602082029050602081019050919050565b600080fd5b6000620009476200094184620008fc565b620008dd565b905080838252602082019050602084028301858111156200096d576200096c6200092b565b5b835b818110156200099a57806200098588826200084b565b8452602084019350506020810190506200096f565b5050509392505050565b600082601f830112620009bc57620009bb62000862565b5b8135620009ce84826020860162000930565b91505092915050565b60008060408385031215620009f157620009f06200081d565b5b600062000a01858286016200084b565b925050602083013567ffffffffffffffff81111562000a255762000a2462000822565b5b62000a3385828601620009a4565b9150509250929050565b600073ffffffffffffffffffffffffffffffffffffffff82169050919050565b600062000a6a8262000a3d565b9050919050565b62000a7c8162000a5d565b82525050565b600060208201905062000a99600083018462000a71565b92915050565b62000aaa8162000a5d565b811462000ab657600080fd5b50565b60008135905062000aca8162000a9f565b92915050565b60006020828403121562000ae95762000ae86200081d565b5b600062000af98482850162000ab9565b91505092915050565b62000b0d8162000827565b82525050565b600060208201905062000b2a600083018462000b02565b92915050565b600060408201905062000b47600083018562000a71565b62000b56602083018462000a71565b9392505050565b600082825260208201905092915050565b7f4e6f7420636f6e73756d65722e00000000000000000000000000000000000000600082015250565b600062000ba6600d8362000b5d565b915062000bb38262000b6e565b602082019050919050565b6000602082019050818103600083015262000bd98162000b97565b9050919050565b6000819050919050565b62000bf58162000be0565b82525050565b600067ffffffffffffffff82169050919050565b62000c1a8162000bfb565b82525050565b600061ffff82169050919050565b62000c398162000c20565b82525050565b600063ffffffff82169050919050565b62000c5a8162000c3f565b82525050565b600060a08201905062000c77600083018862000bea565b62000c86602083018762000c0f565b62000c95604083018662000c2e565b62000ca4606083018562000c4f565b62000cb3608083018462000c4f565b9695505050505050565b60008151905062000cce8162000831565b92915050565b60006020828403121562000ced5762000cec6200081d565b5b600062000cfd8482850162000cbd565b91505092915050565b7f4f776e61626c653a206e6577206f776e657220697320746865207a65726f206160008201527f6464726573730000000000000000000000000000000000000000000000000000602082015250565b600062000d6460268362000b5d565b915062000d718262000d06565b604082019050919050565b6000602082019050818103600083015262000d978162000d55565b9050919050565b7f4e487b7100000000000000000000000000000000000000000000000000000000600052603260045260246000fd5b7f4f776e61626c653a2063616c6c6572206973206e6f7420746865206f776e6572600082015250565b600062000e0560208362000b5d565b915062000e128262000dcd565b602082019050919050565b6000602082019050818103600083015262000e388162000df6565b905091905056fe60806040523480156200001157600080fd5b5060405162001363380380620013638339818101604052810190620000379190620003f7565b60008060006101000a81548160ff02191690831515021790555062000071620000656200014160201b60201c565b6200014960201b60201c565b620000ac604051602001620000869062000499565b604051602081830303815290604052620000a090620004f9565b6200020f60201b60201c565b620000e7604051602001620000c190620005b9565b604051602081830303815290604052620000db90620004f9565b6200020f60201b60201c565b80600460006101000a81548173ffffffffffffffffffffffffffffffffffffffff021916908373ffffffffffffffffffffffffffffffffffffffff16021790555062000139826200023b60201b60201c565b5050620006eb565b600033905090565b6000600360009054906101000a900473ffffffffffffffffffffffffffffffffffffffff16905081600360006101000a81548173ffffffffffffffffffffffffffffffffffffffff021916908373ffffffffffffffffffffffffffffffffffffffff1602179055508173ffffffffffffffffffffffffffffffffffffffff168173ffffffffffffffffffffffffffffffffffffffff167f8be0079c531659141344cd1fd0a4f28419497f9722a3daafe3b4186f6b6457e060405160405180910390a35050565b600281908060018154018082558091505060019003906000526020600020016000909190919091505550565b6200024b620002d260201b60201c565b600073ffffffffffffffffffffffffffffffffffffffff168173ffffffffffffffffffffffffffffffffffffffff161415620002be576040517f08c379a0000000000000000000000000000000000000000000000000000000008152600401620002b59062000657565b60405180910390fd5b620002cf816200014960201b60201c565b50565b620002e26200014160201b60201c565b73ffffffffffffffffffffffffffffffffffffffff16620003086200036360201b60201c565b73ffffffffffffffffffffffffffffffffffffffff161462000361576040517f08c379a00000000000000000000000000000000000000000000000000000000081526004016200035890620006c9565b60405180910390fd5b565b6000600360009054906101000a900473ffffffffffffffffffffffffffffffffffffffff16905090565b600080fd5b600073ffffffffffffffffffffffffffffffffffffffff82169050919050565b6000620003bf8262000392565b9050919050565b620003d181620003b2565b8114620003dd57600080fd5b50565b600081519050620003f181620003c6565b92915050565b600080604083850312156200041157620004106200038d565b5b60006200042185828601620003e0565b92505060206200043485828601620003e0565b9150509250929050565b600081905092915050565b7f4865616473000000000000000000000000000000000000000000000000000000600082015250565b6000620004816005836200043e565b91506200048e8262000449565b600582019050919050565b6000620004a68262000472565b9150819050919050565b600081519050919050565b6000819050602082019050919050565b6000819050919050565b6000620004e38251620004cb565b80915050919050565b600082821b905092915050565b60006200050682620004b0565b826200051284620004bb565b90506200051f81620004d5565b9250602082101562000562576200055d7fffffffffffffffffffffffffffffffffffffffffffffffffffffffffffffffff83602003600802620004ec565b831692505b5050919050565b7f5461696c73000000000000000000000000000000000000000000000000000000600082015250565b6000620005a16005836200043e565b9150620005ae8262000569565b600582019050919050565b6000620005c68262000592565b9150819050919050565b600082825260208201905092915050565b7f4f776e61626c653a206e6577206f776e657220697320746865207a65726f206160008201527f6464726573730000000000000000000000000000000000000000000000000000602082015250565b60006200063f602683620005d0565b91506200064c82620005e1565b604082019050919050565b60006020820190508181036000830152620006728162000630565b9050919050565b7f4f776e61626c653a2063616c6c6572206973206e6f7420746865206f776e6572600082015250565b6000620006b1602083620005d0565b9150620006be8262000679565b602082019050919050565b60006020820190508181036000830152620006e481620006a2565b9050919050565b610c6880620006fb6000396000f3fe608060405234801561001057600080fd5b50600436106100cf5760003560e01c8063653721471161008c578063a4d4334a11610066578063a4d4334a146101de578063c67defc3146101fc578063de29278914610218578063f2fde38b14610236576100cf565b80636537214714610198578063715018a6146101b65780638da5cb5b146101c0576100cf565b80631053eaa3146100d45780631dbe2e0e146100f257806327cf445e146100fc578063430e0ef41461011a5780635109df6c1461013857806363b2e11d14610168575b600080fd5b6100dc610252565b6040516100e9919061076a565b60405180910390f35b6100fa610268565b005b610104610337565b604051610111919061079e565b60405180910390f35b610122610344565b60405161012f9190610838565b60405180910390f35b610152600480360381019061014d9190610884565b61036a565b60405161015f91906108ca565b60405180910390f35b610182600480360381019061017d9190610884565b610392565b60405161018f91906108ca565b60405180910390f35b6101a06103b6565b6040516101ad919061079e565b60405180910390f35b6101be6103bc565b005b6101c86103d0565b6040516101d59190610906565b60405180910390f35b6101e66103fa565b6040516101f3919061079e565b60405180910390f35b61021660048036038101906102119190610884565b610409565b005b6102206104bd565b60405161022d919061079e565b60405180910390f35b610250600480360381019061024b919061094d565b6104c7565b005b60008060009054906101000a900460ff16905090565b61027061054b565b6000600460009054906101000a900473ffffffffffffffffffffffffffffffffffffffff1673ffffffffffffffffffffffffffffffffffffffff1663e0c862896040518163ffffffff1660e01b81526004016020604051808303816000875af11580156102e1573d6000803e3d6000fd5b505050506040513d601f19601f82011682018060405250810190610305919061098f565b9050807fc8229e4762795ad65d348e79b0ddba44ada91e26d1f59d9df89a3874824f8f5e60405160405180910390a250565b6000600280549050905090565b600460009054906101000a900473ffffffffffffffffffffffffffffffffffffffff1681565b6000600282815481106103805761037f6109bc565b5b90600052602060002001549050919050565b600281815481106103a257600080fd5b906000526020600020016000915090505481565b60015481565b6103c461054b565b6103ce60006105c9565b565b6000600360009054906101000a900473ffffffffffffffffffffffffffffffffffffffff16905090565b6000610404610337565b905090565b600460009054906101000a900473ffffffffffffffffffffffffffffffffffffffff1673ffffffffffffffffffffffffffffffffffffffff163373ffffffffffffffffffffffffffffffffffffffff1614610499576040517f08c379a000000000000000000000000000000000000000000000000000000000815260040161049090610a48565b60405180910390fd5b60006104a3610337565b826104ae9190610a97565b90506104b98161068f565b5050565b6000600154905090565b6104cf61054b565b600073ffffffffffffffffffffffffffffffffffffffff168173ffffffffffffffffffffffffffffffffffffffff16141561053f576040517f08c379a000000000000000000000000000000000000000000000000000000000815260040161053690610b3a565b60405180910390fd5b610548816105c9565b50565b610553610747565b73ffffffffffffffffffffffffffffffffffffffff166105716103d0565b73ffffffffffffffffffffffffffffffffffffffff16146105c7576040517f08c379a00000000000000000000000000000000000000000000000000000000081526004016105be90610ba6565b60405180910390fd5b565b6000600360009054906101000a900473ffffffffffffffffffffffffffffffffffffffff16905081600360006101000a81548173ffffffffffffffffffffffffffffffffffffffff021916908373ffffffffffffffffffffffffffffffffffffffff1602179055508173ffffffffffffffffffffffffffffffffffffffff168173ffffffffffffffffffffffffffffffffffffffff167f8be0079c531659141344cd1fd0a4f28419497f9722a3daafe3b4186f6b6457e060405160405180910390a35050565b60008054906101000a900460ff16156106dd576040517f08c379a00000000000000000000000000000000000000000000000000000000081526004016106d490610c12565b60405180910390fd5b60016000806101000a81548160ff021916908315150217905550806001819055506001543073ffffffffffffffffffffffffffffffffffffffff167f19d22413a5e18244e9883866082c3fd384c3b031c96fac8b7a6a7c4dfbb90bf360405160405180910390a350565b600033905090565b60008115159050919050565b6107648161074f565b82525050565b600060208201905061077f600083018461075b565b92915050565b6000819050919050565b61079881610785565b82525050565b60006020820190506107b3600083018461078f565b92915050565b600073ffffffffffffffffffffffffffffffffffffffff82169050919050565b6000819050919050565b60006107fe6107f96107f4846107b9565b6107d9565b6107b9565b9050919050565b6000610810826107e3565b9050919050565b600061082282610805565b9050919050565b61083281610817565b82525050565b600060208201905061084d6000830184610829565b92915050565b600080fd5b61086181610785565b811461086c57600080fd5b50565b60008135905061087e81610858565b92915050565b60006020828403121561089a57610899610853565b5b60006108a88482850161086f565b91505092915050565b6000819050919050565b6108c4816108b1565b82525050565b60006020820190506108df60008301846108bb565b92915050565b60006108f0826107b9565b9050919050565b610900816108e5565b82525050565b600060208201905061091b60008301846108f7565b92915050565b61092a816108e5565b811461093557600080fd5b50565b60008135905061094781610921565b92915050565b60006020828403121561096357610962610853565b5b600061097184828501610938565b91505092915050565b60008151905061098981610858565b92915050565b6000602082840312156109a5576109a4610853565b5b60006109b38482850161097a565b91505092915050565b7f4e487b7100000000000000000000000000000000000000000000000000000000600052603260045260246000fd5b600082825260208201905092915050565b7f4e6f74207468652072616e646f6d20776f72642067656e657261746f722e0000600082015250565b6000610a32601e836109eb565b9150610a3d826109fc565b602082019050919050565b60006020820190508181036000830152610a6181610a25565b9050919050565b7f4e487b7100000000000000000000000000000000000000000000000000000000600052601260045260246000fd5b6000610aa282610785565b9150610aad83610785565b925082610abd57610abc610a68565b5b828206905092915050565b7f4f776e61626c653a206e6577206f776e657220697320746865207a65726f206160008201527f6464726573730000000000000000000000000000000000000000000000000000602082015250565b6000610b246026836109eb565b9150610b2f82610ac8565b604082019050919050565b60006020820190508181036000830152610b5381610b17565b9050919050565b7f4f776e61626c653a2063616c6c6572206973206e6f7420746865206f776e6572600082015250565b6000610b906020836109eb565b9150610b9b82610b5a565b602082019050919050565b60006020820190508181036000830152610bbf81610b83565b9050919050565b7f416c72656164792068617320726573756c740000000000000000000000000000600082015250565b6000610bfc6012836109eb565b9150610c0782610bc6565b602082019050919050565b60006020820190508181036000830152610c2b81610bef565b905091905056fea26469706673582212201f1ded54b7b3b5df5a00f6b0345ce0e9e1348ae2a53bf43161b53a1b5c87868b64736f6c634300080a0033a2646970667358221220ecb091c9000616630a471b3b445095faa40b10fe30eb406476a8bedb7fa4610f64736f6c634300080a0033",
  "devdoc": {
    "kind": "dev",
    "methods": {
      "owner()": {
        "details": "Returns the address of the current owner."
      },
      "renounceOwnership()": {
        "details": "Leaves the contract without owner. It will not be possible to call `onlyOwner` functions anymore. Can only be called by the current owner. NOTE: Renouncing ownership will leave the contract without an owner, thereby removing any functionality that is only available to the owner."
      },
      "transferOwnership(address)": {
        "details": "Transfers ownership of the contract to a new account (`newOwner`). Can only be called by the current owner."
      }
    },
    "version": 1
  },
  "userdoc": {
    "kind": "user",
    "methods": {},
    "version": 1
  },
  "storageLayout": {
    "storage": [
      {
        "astId": 161,
        "contract": "contracts/vrf/factory.sol:VRFResultFactory",
        "label": "_owner",
        "offset": 0,
        "slot": "0",
        "type": "t_address"
      },
      {
        "astId": 2184,
        "contract": "contracts/vrf/factory.sol:VRFResultFactory",
        "label": "COORDINATOR",
        "offset": 0,
        "slot": "1",
        "type": "t_contract(VRFCoordinatorV2Interface)153"
      },
      {
        "astId": 2186,
        "contract": "contracts/vrf/factory.sol:VRFResultFactory",
        "label": "s_subscriptionId",
        "offset": 20,
        "slot": "1",
        "type": "t_uint64"
      },
      {
        "astId": 2190,
        "contract": "contracts/vrf/factory.sol:VRFResultFactory",
        "label": "consumers",
        "offset": 0,
        "slot": "2",
        "type": "t_mapping(t_address,t_bool)"
      },
      {
        "astId": 2194,
        "contract": "contracts/vrf/factory.sol:VRFResultFactory",
        "label": "requestToConsumers",
        "offset": 0,
        "slot": "3",
        "type": "t_mapping(t_uint256,t_address)"
      },
      {
        "astId": 2197,
        "contract": "contracts/vrf/factory.sol:VRFResultFactory",
        "label": "keyHash",
        "offset": 0,
        "slot": "4",
        "type": "t_bytes32"
      },
      {
        "astId": 2200,
        "contract": "contracts/vrf/factory.sol:VRFResultFactory",
        "label": "callbackGasLimit",
        "offset": 0,
        "slot": "5",
        "type": "t_uint32"
      },
      {
        "astId": 2203,
        "contract": "contracts/vrf/factory.sol:VRFResultFactory",
        "label": "requestConfirmations",
        "offset": 4,
        "slot": "5",
        "type": "t_uint16"
      },
      {
        "astId": 2206,
        "contract": "contracts/vrf/factory.sol:VRFResultFactory",
        "label": "numWords",
        "offset": 6,
        "slot": "5",
        "type": "t_uint32"
      }
    ],
    "types": {
      "t_address": {
        "encoding": "inplace",
        "label": "address",
        "numberOfBytes": "20"
      },
      "t_bool": {
        "encoding": "inplace",
        "label": "bool",
        "numberOfBytes": "1"
      },
      "t_bytes32": {
        "encoding": "inplace",
        "label": "bytes32",
        "numberOfBytes": "32"
      },
      "t_contract(VRFCoordinatorV2Interface)153": {
        "encoding": "inplace",
        "label": "contract VRFCoordinatorV2Interface",
        "numberOfBytes": "20"
      },
      "t_mapping(t_address,t_bool)": {
        "encoding": "mapping",
        "key": "t_address",
        "label": "mapping(address => bool)",
        "numberOfBytes": "32",
        "value": "t_bool"
      },
      "t_mapping(t_uint256,t_address)": {
        "encoding": "mapping",
        "key": "t_uint256",
        "label": "mapping(uint256 => address)",
        "numberOfBytes": "32",
        "value": "t_address"
      },
      "t_uint16": {
        "encoding": "inplace",
        "label": "uint16",
        "numberOfBytes": "2"
      },
      "t_uint256": {
        "encoding": "inplace",
        "label": "uint256",
        "numberOfBytes": "32"
      },
      "t_uint32": {
        "encoding": "inplace",
        "label": "uint32",
        "numberOfBytes": "4"
      },
      "t_uint64": {
        "encoding": "inplace",
        "label": "uint64",
        "numberOfBytes": "8"
      }
    }
  }
}