{
  "address": "0x342B3E9C9390cF67c26F52b1dEdd29273e748865",
  "abi": [
    {
      "inputs": [
        {
          "internalType": "address",
          "name": "factory",
          "type": "address"
        },
        {
          "internalType": "address",
          "name": "_aaveAddressProvider",
          "type": "address"
        },
        {
          "internalType": "address",
          "name": "_vrfFactory",
          "type": "address"
        }
      ],
      "stateMutability": "nonpayable",
      "type": "constructor"
    },
    {
      "inputs": [],
      "name": "aaveAddressProvider",
      "outputs": [
        {
          "internalType": "contract IPoolAddressesProvider",
          "name": "",
          "type": "address"
        }
      ],
      "stateMutability": "view",
      "type": "function"
    },
    {
      "inputs": [],
      "name": "bettingPoolFactory",
      "outputs": [
        {
          "internalType": "contract BettingPoolFactory",
          "name": "",
          "type": "address"
        }
      ],
      "stateMutability": "view",
      "type": "function"
    },
    {
      "inputs": [
        {
          "internalType": "address",
          "name": "token",
          "type": "address"
        }
      ],
      "name": "createCoinFlipPool",
      "outputs": [
        {
          "internalType": "uint256",
          "name": "",
          "type": "uint256"
        }
      ],
      "stateMutability": "nonpayable",
      "type": "function"
    },
    {
      "inputs": [
        {
          "internalType": "address",
          "name": "token",
          "type": "address"
        }
      ],
      "name": "createWorldCupPool",
      "outputs": [
        {
          "internalType": "uint256",
          "name": "",
          "type": "uint256"
        }
      ],
      "stateMutability": "nonpayable",
      "type": "function"
    },
    {
      "inputs": [],
      "name": "vrfFactory",
      "outputs": [
        {
          "internalType": "contract VRFResultFactory",
          "name": "",
          "type": "address"
        }
      ],
      "stateMutability": "view",
      "type": "function"
    }
  ],
  "transactionHash": "0xad5cfff55b68c17c544a2f37eeda2bd5bc0d21ac828abfce6c98fd595c0a9832",
  "args": [
    "0xcd218BBE2ab35A9f71df2814806ae5631112f6F8",
    "0xc4dCB5126a3AfEd129BC3668Ea19285A9f56D15D",
    "0x28e6A5CDf12e40155C3351fB3E736EDEf1CF9026"
  ],
  "numDeployments": 4,
  "solcInputHash": "bdd0003609b826b0f22dbb25c77253a0",
  "bytecode": "0x608060405234801561001057600080fd5b50604051611e05380380611e058339818101604052810190610032919061015f565b826000806101000a81548173ffffffffffffffffffffffffffffffffffffffff021916908373ffffffffffffffffffffffffffffffffffffffff16021790555081600160006101000a81548173ffffffffffffffffffffffffffffffffffffffff021916908373ffffffffffffffffffffffffffffffffffffffff16021790555080600260006101000a81548173ffffffffffffffffffffffffffffffffffffffff021916908373ffffffffffffffffffffffffffffffffffffffff1602179055505050506101b2565b600080fd5b600073ffffffffffffffffffffffffffffffffffffffff82169050919050565b600061012c82610101565b9050919050565b61013c81610121565b811461014757600080fd5b50565b60008151905061015981610133565b92915050565b600080600060608486031215610178576101776100fc565b5b60006101868682870161014a565b93505060206101978682870161014a565b92505060406101a88682870161014a565b9150509250925092565b611c44806101c16000396000f3fe60806040523480156200001157600080fd5b50600436106200005e5760003560e01c80630cf71cd414620000635780633bfae2211462000085578063a57cedd114620000bb578063cdaabe4114620000f1578063d68a2f0a1462000113575b600080fd5b6200006d62000135565b6040516200007c919062000645565b60405180910390f35b620000a360048036038101906200009d9190620006ac565b62000159565b604051620000b29190620006f9565b60405180910390f35b620000d96004803603810190620000d39190620006ac565b62000278565b604051620000e89190620006f9565b60405180910390f35b620000fb62000397565b6040516200010a91906200073b565b60405180910390f35b6200011d620003bd565b6040516200012c91906200077d565b60405180910390f35b60008054906101000a900473ffffffffffffffffffffffffffffffffffffffff1681565b600080600260009054906101000a900473ffffffffffffffffffffffffffffffffffffffff1673ffffffffffffffffffffffffffffffffffffffff1663d5422257336040518263ffffffff1660e01b8152600401620001b99190620007ab565b6020604051808303816000875af1158015620001d9573d6000803e3d6000fd5b505050506040513d601f19601f82011682018060405250810190620001ff9190620007df565b9050600083600160009054906101000a900473ffffffffffffffffffffffffffffffffffffffff166040516200023590620005ac565b6200024292919062000811565b604051809103906000f0801580156200025f573d6000803e3d6000fd5b5090506200026f848383620003e3565b92505050919050565b600080600260009054906101000a900473ffffffffffffffffffffffffffffffffffffffff1673ffffffffffffffffffffffffffffffffffffffff16635132e0bd336040518263ffffffff1660e01b8152600401620002d89190620007ab565b6020604051808303816000875af1158015620002f8573d6000803e3d6000fd5b505050506040513d601f19601f820116820180604052508101906200031e9190620007df565b9050600083600160009054906101000a900473ffffffffffffffffffffffffffffffffffffffff166040516200035490620005ac565b6200036192919062000811565b604051809103906000f0801580156200037e573d6000803e3d6000fd5b5090506200038e848383620003e3565b92505050919050565b600160009054906101000a900473ffffffffffffffffffffffffffffffffffffffff1681565b600260009054906101000a900473ffffffffffffffffffffffffffffffffffffffff1681565b60008060008054906101000a900473ffffffffffffffffffffffffffffffffffffffff1673ffffffffffffffffffffffffffffffffffffffff1663236aea2e8686866040518463ffffffff1660e01b815260040162000445939291906200083e565b6020604051808303816000875af115801562000465573d6000803e3d6000fd5b505050506040513d601f19601f820116820180604052508101906200048b9190620008ac565b905060008060009054906101000a900473ffffffffffffffffffffffffffffffffffffffff1673ffffffffffffffffffffffffffffffffffffffff1663ac4afa38836040518263ffffffff1660e01b8152600401620004eb9190620006f9565b602060405180830381865afa15801562000509573d6000803e3d6000fd5b505050506040513d601f19601f820116820180604052508101906200052f919062000923565b90508073ffffffffffffffffffffffffffffffffffffffff1663f2fde38b336040518263ffffffff1660e01b81526004016200056c9190620007ab565b600060405180830381600087803b1580156200058757600080fd5b505af11580156200059c573d6000803e3d6000fd5b5050505081925050509392505050565b6112b9806200095683390190565b600073ffffffffffffffffffffffffffffffffffffffff82169050919050565b6000819050919050565b600062000605620005ff620005f984620005ba565b620005da565b620005ba565b9050919050565b60006200061982620005e4565b9050919050565b60006200062d826200060c565b9050919050565b6200063f8162000620565b82525050565b60006020820190506200065c600083018462000634565b92915050565b600080fd5b60006200067482620005ba565b9050919050565b620006868162000667565b81146200069257600080fd5b50565b600081359050620006a6816200067b565b92915050565b600060208284031215620006c557620006c462000662565b5b6000620006d58482850162000695565b91505092915050565b6000819050919050565b620006f381620006de565b82525050565b6000602082019050620007106000830184620006e8565b92915050565b600062000723826200060c565b9050919050565b620007358162000716565b82525050565b60006020820190506200075260008301846200072a565b92915050565b600062000765826200060c565b9050919050565b620007778162000758565b82525050565b60006020820190506200079460008301846200076c565b92915050565b620007a58162000667565b82525050565b6000602082019050620007c260008301846200079a565b92915050565b600081519050620007d9816200067b565b92915050565b600060208284031215620007f857620007f762000662565b5b60006200080884828501620007c8565b91505092915050565b60006040820190506200082860008301856200079a565b6200083760208301846200079a565b9392505050565b60006060820190506200085560008301866200079a565b6200086460208301856200079a565b6200087360408301846200079a565b949350505050565b6200088681620006de565b81146200089257600080fd5b50565b600081519050620008a6816200087b565b92915050565b600060208284031215620008c557620008c462000662565b5b6000620008d58482850162000895565b91505092915050565b6000620008eb8262000667565b9050919050565b620008fd81620008de565b81146200090957600080fd5b50565b6000815190506200091d81620008f2565b92915050565b6000602082840312156200093c576200093b62000662565b5b60006200094c848285016200090c565b9150509291505056fe60806040523480156200001157600080fd5b50604051620012b9380380620012b9833981810160405281019062000037919062000383565b816000806101000a81548173ffffffffffffffffffffffffffffffffffffffff021916908373ffffffffffffffffffffffffffffffffffffffff16021790555080600260006101000a81548173ffffffffffffffffffffffffffffffffffffffff021916908373ffffffffffffffffffffffffffffffffffffffff1602179055506000620000ca6200027460201b60201c565b905060008173ffffffffffffffffffffffffffffffffffffffff166335ea6a75856040518263ffffffff1660e01b8152600401620001099190620003db565b6101e060405180830381865afa15801562000128573d6000803e3d6000fd5b505050506040513d601f19601f820116820180604052508101906200014e919062000765565b9050806101000151600160006101000a81548173ffffffffffffffffffffffffffffffffffffffff021916908373ffffffffffffffffffffffffffffffffffffffff16021790555060008054906101000a900473ffffffffffffffffffffffffffffffffffffffff1673ffffffffffffffffffffffffffffffffffffffff1663095ea7b3837fffffffffffffffffffffffffffffffffffffffffffffffffffffffffffffffff6040518363ffffffff1660e01b815260040162000213929190620007a9565b6020604051808303816000875af115801562000233573d6000803e3d6000fd5b505050506040513d601f19601f8201168201806040525081019062000259919062000813565b50600060038190555060006004819055505050505062000877565b6000600260009054906101000a900473ffffffffffffffffffffffffffffffffffffffff1673ffffffffffffffffffffffffffffffffffffffff1663026b1d5f6040518163ffffffff1660e01b8152600401602060405180830381865afa158015620002e4573d6000803e3d6000fd5b505050506040513d601f19601f820116820180604052508101906200030a919062000845565b905090565b6000604051905090565b600080fd5b600073ffffffffffffffffffffffffffffffffffffffff82169050919050565b60006200034b826200031e565b9050919050565b6200035d816200033e565b81146200036957600080fd5b50565b6000815190506200037d8162000352565b92915050565b600080604083850312156200039d576200039c62000319565b5b6000620003ad858286016200036c565b9250506020620003c0858286016200036c565b9150509250929050565b620003d5816200033e565b82525050565b6000602082019050620003f26000830184620003ca565b92915050565b600080fd5b6000601f19601f8301169050919050565b7f4e487b7100000000000000000000000000000000000000000000000000000000600052604160045260246000fd5b6200044882620003fd565b810181811067ffffffffffffffff821117156200046a57620004696200040e565b5b80604052505050565b60006200047f6200030f565b90506200048d82826200043d565b919050565b6000819050919050565b620004a78162000492565b8114620004b357600080fd5b50565b600081519050620004c7816200049c565b92915050565b600060208284031215620004e657620004e5620003f8565b5b620004f2602062000473565b905060006200050484828501620004b6565b60008301525092915050565b60006fffffffffffffffffffffffffffffffff82169050919050565b620005378162000510565b81146200054357600080fd5b50565b60008151905062000557816200052c565b92915050565b600064ffffffffff82169050919050565b62000579816200055d565b81146200058557600080fd5b50565b60008151905062000599816200056e565b92915050565b600061ffff82169050919050565b620005b8816200059f565b8114620005c457600080fd5b50565b600081519050620005d881620005ad565b92915050565b60006101e08284031215620005f857620005f7620003f8565b5b620006056101e062000473565b905060006200061784828501620004cd565b60008301525060206200062d8482850162000546565b6020830152506040620006438482850162000546565b6040830152506060620006598482850162000546565b60608301525060806200066f8482850162000546565b60808301525060a0620006858482850162000546565b60a08301525060c06200069b8482850162000588565b60c08301525060e0620006b184828501620005c7565b60e083015250610100620006c8848285016200036c565b61010083015250610120620006e0848285016200036c565b61012083015250610140620006f8848285016200036c565b6101408301525061016062000710848285016200036c565b61016083015250610180620007288482850162000546565b610180830152506101a0620007408482850162000546565b6101a0830152506101c0620007588482850162000546565b6101c08301525092915050565b60006101e082840312156200077f576200077e62000319565b5b60006200078f84828501620005de565b91505092915050565b620007a38162000492565b82525050565b6000604082019050620007c06000830185620003ca565b620007cf602083018462000798565b9392505050565b60008115159050919050565b620007ed81620007d6565b8114620007f957600080fd5b50565b6000815190506200080d81620007e2565b92915050565b6000602082840312156200082c576200082b62000319565b5b60006200083c84828501620007fc565b91505092915050565b6000602082840312156200085e576200085d62000319565b5b60006200086e848285016200036c565b91505092915050565b610a3280620008876000396000f3fe608060405234801561001057600080fd5b506004361061007d5760003560e01c8063b6b55f251161005b578063b6b55f25146100dc578063cdaabe41146100f8578063f3fef3a314610116578063fc0c546a146101325761007d565b806312065fe0146100825780637c262871146100a0578063a0c1f15e146100be575b600080fd5b61008a610150565b6040516100979190610567565b60405180910390f35b6100a861015f565b6040516100b59190610567565b60405180910390f35b6100c6610188565b6040516100d39190610601565b60405180910390f35b6100f660048036038101906100f1919061064d565b6101ae565b005b610100610304565b60405161010d919061069b565b60405180910390f35b610130600480360381019061012b91906106f4565b61032a565b005b61013a6103ef565b6040516101479190610601565b60405180910390f35b600061015a610413565b905090565b600060035460045461016f610413565b6101799190610763565b61018391906107b9565b905090565b600160009054906101000a900473ffffffffffffffffffffffffffffffffffffffff1681565b80600360008282546101c09190610763565b9250508190555060008054906101000a900473ffffffffffffffffffffffffffffffffffffffff1673ffffffffffffffffffffffffffffffffffffffff166323b872dd3330846040518463ffffffff1660e01b8152600401610224939291906107fc565b6020604051808303816000875af1158015610243573d6000803e3d6000fd5b505050506040513d601f19601f82011682018060405250810190610267919061086b565b506102706104b6565b73ffffffffffffffffffffffffffffffffffffffff1663617ba03760008054906101000a900473ffffffffffffffffffffffffffffffffffffffff16833060006040518563ffffffff1660e01b81526004016102cf94939291906108e1565b600060405180830381600087803b1580156102e957600080fd5b505af11580156102fd573d6000803e3d6000fd5b5050505050565b600260009054906101000a900473ffffffffffffffffffffffffffffffffffffffff1681565b806004600082825461033c9190610763565b9250508190555061034b6104b6565b73ffffffffffffffffffffffffffffffffffffffff166369328dec60008054906101000a900473ffffffffffffffffffffffffffffffffffffffff1683856040518463ffffffff1660e01b81526004016103a793929190610926565b6020604051808303816000875af11580156103c6573d6000803e3d6000fd5b505050506040513d601f19601f820116820180604052508101906103ea9190610972565b505050565b60008054906101000a900473ffffffffffffffffffffffffffffffffffffffff1681565b6000600160009054906101000a900473ffffffffffffffffffffffffffffffffffffffff1673ffffffffffffffffffffffffffffffffffffffff166370a08231306040518263ffffffff1660e01b8152600401610470919061099f565b602060405180830381865afa15801561048d573d6000803e3d6000fd5b505050506040513d601f19601f820116820180604052508101906104b19190610972565b905090565b6000600260009054906101000a900473ffffffffffffffffffffffffffffffffffffffff1673ffffffffffffffffffffffffffffffffffffffff1663026b1d5f6040518163ffffffff1660e01b8152600401602060405180830381865afa158015610525573d6000803e3d6000fd5b505050506040513d601f19601f8201168201806040525081019061054991906109cf565b905090565b6000819050919050565b6105618161054e565b82525050565b600060208201905061057c6000830184610558565b92915050565b600073ffffffffffffffffffffffffffffffffffffffff82169050919050565b6000819050919050565b60006105c76105c26105bd84610582565b6105a2565b610582565b9050919050565b60006105d9826105ac565b9050919050565b60006105eb826105ce565b9050919050565b6105fb816105e0565b82525050565b600060208201905061061660008301846105f2565b92915050565b600080fd5b61062a8161054e565b811461063557600080fd5b50565b60008135905061064781610621565b92915050565b6000602082840312156106635761066261061c565b5b600061067184828501610638565b91505092915050565b6000610685826105ce565b9050919050565b6106958161067a565b82525050565b60006020820190506106b0600083018461068c565b92915050565b60006106c182610582565b9050919050565b6106d1816106b6565b81146106dc57600080fd5b50565b6000813590506106ee816106c8565b92915050565b6000806040838503121561070b5761070a61061c565b5b6000610719858286016106df565b925050602061072a85828601610638565b9150509250929050565b7f4e487b7100000000000000000000000000000000000000000000000000000000600052601160045260246000fd5b600061076e8261054e565b91506107798361054e565b9250827fffffffffffffffffffffffffffffffffffffffffffffffffffffffffffffffff038211156107ae576107ad610734565b5b828201905092915050565b60006107c48261054e565b91506107cf8361054e565b9250828210156107e2576107e1610734565b5b828203905092915050565b6107f6816106b6565b82525050565b600060608201905061081160008301866107ed565b61081e60208301856107ed565b61082b6040830184610558565b949350505050565b60008115159050919050565b61084881610833565b811461085357600080fd5b50565b6000815190506108658161083f565b92915050565b6000602082840312156108815761088061061c565b5b600061088f84828501610856565b91505092915050565b6000819050919050565b600061ffff82169050919050565b60006108cb6108c66108c184610898565b6105a2565b6108a2565b9050919050565b6108db816108b0565b82525050565b60006080820190506108f660008301876107ed565b6109036020830186610558565b61091060408301856107ed565b61091d60608301846108d2565b95945050505050565b600060608201905061093b60008301866107ed565b6109486020830185610558565b61095560408301846107ed565b949350505050565b60008151905061096c81610621565b92915050565b6000602082840312156109885761098761061c565b5b60006109968482850161095d565b91505092915050565b60006020820190506109b460008301846107ed565b92915050565b6000815190506109c9816106c8565b92915050565b6000602082840312156109e5576109e461061c565b5b60006109f3848285016109ba565b9150509291505056fea2646970667358221220c594b1c724c5ac12af68309c9c90b81b0c06d4a90d75ef91bcb54c1e392b02d564736f6c634300080a0033a2646970667358221220676523f0f8a71567a7fc53140bb35d3b3a47aaec764bb7b47702e8019425792c64736f6c634300080a0033",
  "devdoc": {
    "kind": "dev",
    "methods": {},
    "version": 1
  },
  "userdoc": {
    "kind": "user",
    "methods": {},
    "version": 1
  },
  "storageLayout": {
    "storage": [
      {
        "astId": 4440,
        "contract": "contracts/poolFactories/aaveVrf.sol:aaveVrfBettingPoolFactory",
        "label": "bettingPoolFactory",
        "offset": 0,
        "slot": "0",
        "type": "t_contract(BettingPoolFactory)4182"
      },
      {
        "astId": 4443,
        "contract": "contracts/poolFactories/aaveVrf.sol:aaveVrfBettingPoolFactory",
        "label": "aaveAddressProvider",
        "offset": 0,
        "slot": "1",
        "type": "t_contract(IPoolAddressesProvider)3498"
      },
      {
        "astId": 4446,
        "contract": "contracts/poolFactories/aaveVrf.sol:aaveVrfBettingPoolFactory",
        "label": "vrfFactory",
        "offset": 0,
        "slot": "2",
        "type": "t_contract(VRFResultFactory)5564"
      }
    ],
    "types": {
      "t_contract(BettingPoolFactory)4182": {
        "encoding": "inplace",
        "label": "contract BettingPoolFactory",
        "numberOfBytes": "20"
      },
      "t_contract(IPoolAddressesProvider)3498": {
        "encoding": "inplace",
        "label": "contract IPoolAddressesProvider",
        "numberOfBytes": "20"
      },
      "t_contract(VRFResultFactory)5564": {
        "encoding": "inplace",
        "label": "contract VRFResultFactory",
        "numberOfBytes": "20"
      }
    }
  }
}