{
  "address": "0xE8eC065E699685081960aaAA0D7212F0Ce0F354F",
  "abi": [
    {
      "inputs": [
        {
          "internalType": "address",
          "name": "factory",
          "type": "address"
        },
        {
          "internalType": "address",
          "name": "_aaveAddressProvider",
          "type": "address"
        }
      ],
      "stateMutability": "nonpayable",
      "type": "constructor"
    },
    {
      "inputs": [],
      "name": "aaveAddressProvider",
      "outputs": [
        {
          "internalType": "contract IPoolAddressesProvider",
          "name": "",
          "type": "address"
        }
      ],
      "stateMutability": "view",
      "type": "function"
    },
    {
      "inputs": [],
      "name": "bettingPoolFactory",
      "outputs": [
        {
          "internalType": "contract BettingPoolFactory",
          "name": "",
          "type": "address"
        }
      ],
      "stateMutability": "view",
      "type": "function"
    },
    {
      "inputs": [
        {
          "internalType": "address",
          "name": "token",
          "type": "address"
        }
      ],
      "name": "createPool",
      "outputs": [
        {
          "internalType": "uint256",
          "name": "",
          "type": "uint256"
        }
      ],
      "stateMutability": "nonpayable",
      "type": "function"
    }
  ],
  "transactionHash": "0x7ab8c538f108854ccdf9035d73d5786a540f353c3572f432f15107a88fe68915",
  "args": [
    "0x32aac02eE10b89e47C27Ec0338da042957192e10",
    "0xc4dCB5126a3AfEd129BC3668Ea19285A9f56D15D"
  ],
  "numDeployments": 5,
  "solcInputHash": "9c731fe3c863e6821f677d1590e2cb36",
  "bytecode": "0x608060405234801561001057600080fd5b50604051613d7f380380613d7f8339818101604052810190610032919061011d565b816000806101000a81548173ffffffffffffffffffffffffffffffffffffffff021916908373ffffffffffffffffffffffffffffffffffffffff16021790555080600160006101000a81548173ffffffffffffffffffffffffffffffffffffffff021916908373ffffffffffffffffffffffffffffffffffffffff160217905550505061015d565b600080fd5b600073ffffffffffffffffffffffffffffffffffffffff82169050919050565b60006100ea826100bf565b9050919050565b6100fa816100df565b811461010557600080fd5b50565b600081519050610117816100f1565b92915050565b60008060408385031215610134576101336100ba565b5b600061014285828601610108565b925050602061015385828601610108565b9150509250929050565b613c138061016c6000396000f3fe60806040523480156200001157600080fd5b5060043610620000465760003560e01c80630cf71cd4146200004b5780639049f9d2146200006d578063cdaabe4114620000a3575b600080fd5b62000055620000c5565b60405162000064919062000303565b60405180910390f35b6200008b60048036038101906200008591906200036a565b620000e9565b6040516200009a9190620003b7565b60405180910390f35b620000ad62000236565b604051620000bc9190620003f9565b60405180910390f35b60008054906101000a900473ffffffffffffffffffffffffffffffffffffffff1681565b60008033604051620000fb906200025c565b62000107919062000427565b604051809103906000f08015801562000124573d6000803e3d6000fd5b509050600083600160009054906101000a900473ffffffffffffffffffffffffffffffffffffffff166040516200015b906200026a565b6200016892919062000444565b604051809103906000f08015801562000185573d6000803e3d6000fd5b50905060008054906101000a900473ffffffffffffffffffffffffffffffffffffffff1673ffffffffffffffffffffffffffffffffffffffff1663236aea2e8584846040518463ffffffff1660e01b8152600401620001e79392919062000471565b6020604051808303816000875af115801562000207573d6000803e3d6000fd5b505050506040513d601f19601f820116820180604052508101906200022d9190620004df565b92505050919050565b600160009054906101000a900473ffffffffffffffffffffffffffffffffffffffff1681565b612413806200051283390190565b6112b9806200292583390190565b600073ffffffffffffffffffffffffffffffffffffffff82169050919050565b6000819050919050565b6000620002c3620002bd620002b78462000278565b62000298565b62000278565b9050919050565b6000620002d782620002a2565b9050919050565b6000620002eb82620002ca565b9050919050565b620002fd81620002de565b82525050565b60006020820190506200031a6000830184620002f2565b92915050565b600080fd5b6000620003328262000278565b9050919050565b620003448162000325565b81146200035057600080fd5b50565b600081359050620003648162000339565b92915050565b60006020828403121562000383576200038262000320565b5b6000620003938482850162000353565b91505092915050565b6000819050919050565b620003b1816200039c565b82525050565b6000602082019050620003ce6000830184620003a6565b92915050565b6000620003e182620002ca565b9050919050565b620003f381620003d4565b82525050565b6000602082019050620004106000830184620003e8565b92915050565b620004218162000325565b82525050565b60006020820190506200043e600083018462000416565b92915050565b60006040820190506200045b600083018562000416565b6200046a602083018462000416565b9392505050565b600060608201905062000488600083018662000416565b62000497602083018562000416565b620004a6604083018462000416565b949350505050565b620004b9816200039c565b8114620004c557600080fd5b50565b600081519050620004d981620004ae565b92915050565b600060208284031215620004f857620004f762000320565b5b60006200050884828501620004c8565b9150509291505056fe60806040523480156200001157600080fd5b506040516200241338038062002413833981810160405281019062000037919062000a9f565b60008060006101000a81548160ff0219169083151502179055506200007162000065620007e960201b60201c565b620007f160201b60201c565b620000ac604051602001620000869062000b2c565b604051602081830303815290604052620000a09062000b8c565b620008b760201b60201c565b620000e7604051602001620000c19062000c4c565b604051602081830303815290604052620000db9062000b8c565b620008b760201b60201c565b62000122604051602001620000fc9062000cb3565b604051602081830303815290604052620001169062000b8c565b620008b760201b60201c565b6200015d604051602001620001379062000d1a565b604051602081830303815290604052620001519062000b8c565b620008b760201b60201c565b62000198604051602001620001729062000d81565b6040516020818303038152906040526200018c9062000b8c565b620008b760201b60201c565b620001d3604051602001620001ad9062000de8565b604051602081830303815290604052620001c79062000b8c565b620008b760201b60201c565b6200020e604051602001620001e89062000e4f565b604051602081830303815290604052620002029062000b8c565b620008b760201b60201c565b62000249604051602001620002239062000eb6565b6040516020818303038152906040526200023d9062000b8c565b620008b760201b60201c565b620002846040516020016200025e9062000f1d565b604051602081830303815290604052620002789062000b8c565b620008b760201b60201c565b620002bf604051602001620002999062000f84565b604051602081830303815290604052620002b39062000b8c565b620008b760201b60201c565b620002fa604051602001620002d49062000feb565b604051602081830303815290604052620002ee9062000b8c565b620008b760201b60201c565b620003356040516020016200030f9062001052565b604051602081830303815290604052620003299062000b8c565b620008b760201b60201c565b620003706040516020016200034a90620010b9565b604051602081830303815290604052620003649062000b8c565b620008b760201b60201c565b620003ab604051602001620003859062001120565b6040516020818303038152906040526200039f9062000b8c565b620008b760201b60201c565b620003e6604051602001620003c09062001187565b604051602081830303815290604052620003da9062000b8c565b620008b760201b60201c565b62000421604051602001620003fb90620011ee565b604051602081830303815290604052620004159062000b8c565b620008b760201b60201c565b6200045c604051602001620004369062001255565b604051602081830303815290604052620004509062000b8c565b620008b760201b60201c565b620004976040516020016200047190620012bc565b6040516020818303038152906040526200048b9062000b8c565b620008b760201b60201c565b620004d2604051602001620004ac9062001323565b604051602081830303815290604052620004c69062000b8c565b620008b760201b60201c565b6200050d604051602001620004e7906200138a565b604051602081830303815290604052620005019062000b8c565b620008b760201b60201c565b620005486040516020016200052290620013f1565b6040516020818303038152906040526200053c9062000b8c565b620008b760201b60201c565b620005836040516020016200055d9062001458565b604051602081830303815290604052620005779062000b8c565b620008b760201b60201c565b620005be6040516020016200059890620014bf565b604051602081830303815290604052620005b29062000b8c565b620008b760201b60201c565b620005f9604051602001620005d39062001526565b604051602081830303815290604052620005ed9062000b8c565b620008b760201b60201c565b620006346040516020016200060e906200158d565b604051602081830303815290604052620006289062000b8c565b620008b760201b60201c565b6200066f6040516020016200064990620015f4565b604051602081830303815290604052620006639062000b8c565b620008b760201b60201c565b620006aa60405160200162000684906200165b565b6040516020818303038152906040526200069e9062000b8c565b620008b760201b60201c565b620006e5604051602001620006bf90620016c2565b604051602081830303815290604052620006d99062000b8c565b620008b760201b60201c565b62000720604051602001620006fa9062001729565b604051602081830303815290604052620007149062000b8c565b620008b760201b60201c565b6200075b604051602001620007359062001790565b6040516020818303038152906040526200074f9062000b8c565b620008b760201b60201c565b620007966040516020016200077090620017f7565b6040516020818303038152906040526200078a9062000b8c565b620008b760201b60201c565b620007d1604051602001620007ab906200185e565b604051602081830303815290604052620007c59062000b8c565b620008b760201b60201c565b620007e281620008e360201b60201c565b5062001990565b600033905090565b6000600360009054906101000a900473ffffffffffffffffffffffffffffffffffffffff16905081600360006101000a81548173ffffffffffffffffffffffffffffffffffffffff021916908373ffffffffffffffffffffffffffffffffffffffff1602179055508173ffffffffffffffffffffffffffffffffffffffff168173ffffffffffffffffffffffffffffffffffffffff167f8be0079c531659141344cd1fd0a4f28419497f9722a3daafe3b4186f6b6457e060405160405180910390a35050565b600281908060018154018082558091505060019003906000526020600020016000909190919091505550565b620008f36200097a60201b60201c565b600073ffffffffffffffffffffffffffffffffffffffff168173ffffffffffffffffffffffffffffffffffffffff16141562000966576040517f08c379a00000000000000000000000000000000000000000000000000000000081526004016200095d90620018fc565b60405180910390fd5b6200097781620007f160201b60201c565b50565b6200098a620007e960201b60201c565b73ffffffffffffffffffffffffffffffffffffffff16620009b062000a0b60201b60201c565b73ffffffffffffffffffffffffffffffffffffffff161462000a09576040517f08c379a000000000000000000000000000000000000000000000000000000000815260040162000a00906200196e565b60405180910390fd5b565b6000600360009054906101000a900473ffffffffffffffffffffffffffffffffffffffff16905090565b600080fd5b600073ffffffffffffffffffffffffffffffffffffffff82169050919050565b600062000a678262000a3a565b9050919050565b62000a798162000a5a565b811462000a8557600080fd5b50565b60008151905062000a998162000a6e565b92915050565b60006020828403121562000ab85762000ab762000a35565b5b600062000ac88482850162000a88565b91505092915050565b600081905092915050565b7f417267656e74696e610000000000000000000000000000000000000000000000600082015250565b600062000b1460098362000ad1565b915062000b218262000adc565b600982019050919050565b600062000b398262000b05565b9150819050919050565b600081519050919050565b6000819050602082019050919050565b6000819050919050565b600062000b76825162000b5e565b80915050919050565b600082821b905092915050565b600062000b998262000b43565b8262000ba58462000b4e565b905062000bb28162000b68565b9250602082101562000bf55762000bf07fffffffffffffffffffffffffffffffffffffffffffffffffffffffffffffffff8360200360080262000b7f565b831692505b5050919050565b7f4175737472616c69610000000000000000000000000000000000000000000000600082015250565b600062000c3460098362000ad1565b915062000c418262000bfc565b600982019050919050565b600062000c598262000c25565b9150819050919050565b7f42656c6769756d00000000000000000000000000000000000000000000000000600082015250565b600062000c9b60078362000ad1565b915062000ca88262000c63565b600782019050919050565b600062000cc08262000c8c565b9150819050919050565b7f4272617a696c0000000000000000000000000000000000000000000000000000600082015250565b600062000d0260068362000ad1565b915062000d0f8262000cca565b600682019050919050565b600062000d278262000cf3565b9150819050919050565b7f43616d65726f6f6e000000000000000000000000000000000000000000000000600082015250565b600062000d6960088362000ad1565b915062000d768262000d31565b600882019050919050565b600062000d8e8262000d5a565b9150819050919050565b7f43616e6164610000000000000000000000000000000000000000000000000000600082015250565b600062000dd060068362000ad1565b915062000ddd8262000d98565b600682019050919050565b600062000df58262000dc1565b9150819050919050565b7f436f737461205269636100000000000000000000000000000000000000000000600082015250565b600062000e37600a8362000ad1565b915062000e448262000dff565b600a82019050919050565b600062000e5c8262000e28565b9150819050919050565b7f43726f6174696100000000000000000000000000000000000000000000000000600082015250565b600062000e9e60078362000ad1565b915062000eab8262000e66565b600782019050919050565b600062000ec38262000e8f565b9150819050919050565b7f44656e6d61726b00000000000000000000000000000000000000000000000000600082015250565b600062000f0560078362000ad1565b915062000f128262000ecd565b600782019050919050565b600062000f2a8262000ef6565b9150819050919050565b7f45637561646f7200000000000000000000000000000000000000000000000000600082015250565b600062000f6c60078362000ad1565b915062000f798262000f34565b600782019050919050565b600062000f918262000f5d565b9150819050919050565b7f456e676c616e6400000000000000000000000000000000000000000000000000600082015250565b600062000fd360078362000ad1565b915062000fe08262000f9b565b600782019050919050565b600062000ff88262000fc4565b9150819050919050565b7f4672616e63650000000000000000000000000000000000000000000000000000600082015250565b60006200103a60068362000ad1565b9150620010478262001002565b600682019050919050565b60006200105f826200102b565b9150819050919050565b7f4765726d616e7900000000000000000000000000000000000000000000000000600082015250565b6000620010a160078362000ad1565b9150620010ae8262001069565b600782019050919050565b6000620010c68262001092565b9150819050919050565b7f4768616e61000000000000000000000000000000000000000000000000000000600082015250565b60006200110860058362000ad1565b91506200111582620010d0565b600582019050919050565b60006200112d82620010f9565b9150819050919050565b7f4972616e00000000000000000000000000000000000000000000000000000000600082015250565b60006200116f60048362000ad1565b91506200117c8262001137565b600482019050919050565b6000620011948262001160565b9150819050919050565b7f4a6170616e000000000000000000000000000000000000000000000000000000600082015250565b6000620011d660058362000ad1565b9150620011e3826200119e565b600582019050919050565b6000620011fb82620011c7565b9150819050919050565b7f4d657869636f0000000000000000000000000000000000000000000000000000600082015250565b60006200123d60068362000ad1565b91506200124a8262001205565b600682019050919050565b600062001262826200122e565b9150819050919050565b7f4d6f726f63636f00000000000000000000000000000000000000000000000000600082015250565b6000620012a460078362000ad1565b9150620012b1826200126c565b600782019050919050565b6000620012c98262001295565b9150819050919050565b7f4e65746865726c616e6473000000000000000000000000000000000000000000600082015250565b60006200130b600b8362000ad1565b91506200131882620012d3565b600b82019050919050565b60006200133082620012fc565b9150819050919050565b7f506f6c616e640000000000000000000000000000000000000000000000000000600082015250565b60006200137260068362000ad1565b91506200137f826200133a565b600682019050919050565b6000620013978262001363565b9150819050919050565b7f506f72747567616c000000000000000000000000000000000000000000000000600082015250565b6000620013d960088362000ad1565b9150620013e682620013a1565b600882019050919050565b6000620013fe82620013ca565b9150819050919050565b7f5161746172000000000000000000000000000000000000000000000000000000600082015250565b60006200144060058362000ad1565b91506200144d8262001408565b600582019050919050565b6000620014658262001431565b9150819050919050565b7f5361756469204172616269610000000000000000000000000000000000000000600082015250565b6000620014a7600c8362000ad1565b9150620014b4826200146f565b600c82019050919050565b6000620014cc8262001498565b9150819050919050565b7f53656e6567616c00000000000000000000000000000000000000000000000000600082015250565b60006200150e60078362000ad1565b91506200151b82620014d6565b600782019050919050565b60006200153382620014ff565b9150819050919050565b7f5365726269610000000000000000000000000000000000000000000000000000600082015250565b60006200157560068362000ad1565b915062001582826200153d565b600682019050919050565b60006200159a8262001566565b9150819050919050565b7f536f757468204b6f726561000000000000000000000000000000000000000000600082015250565b6000620015dc600b8362000ad1565b9150620015e982620015a4565b600b82019050919050565b60006200160182620015cd565b9150819050919050565b7f537061696e000000000000000000000000000000000000000000000000000000600082015250565b60006200164360058362000ad1565b915062001650826200160b565b600582019050919050565b6000620016688262001634565b9150819050919050565b7f537769747a65726c616e64000000000000000000000000000000000000000000600082015250565b6000620016aa600b8362000ad1565b9150620016b78262001672565b600b82019050919050565b6000620016cf826200169b565b9150819050919050565b7f54756e6973696100000000000000000000000000000000000000000000000000600082015250565b60006200171160078362000ad1565b91506200171e82620016d9565b600782019050919050565b6000620017368262001702565b9150819050919050565b7f556e697465642053746174657300000000000000000000000000000000000000600082015250565b600062001778600d8362000ad1565b9150620017858262001740565b600d82019050919050565b60006200179d8262001769565b9150819050919050565b7f5572756775617900000000000000000000000000000000000000000000000000600082015250565b6000620017df60078362000ad1565b9150620017ec82620017a7565b600782019050919050565b60006200180482620017d0565b9150819050919050565b7f57616c6573000000000000000000000000000000000000000000000000000000600082015250565b60006200184660058362000ad1565b915062001853826200180e565b600582019050919050565b60006200186b8262001837565b9150819050919050565b600082825260208201905092915050565b7f4f776e61626c653a206e6577206f776e657220697320746865207a65726f206160008201527f6464726573730000000000000000000000000000000000000000000000000000602082015250565b6000620018e460268362001875565b9150620018f18262001886565b604082019050919050565b600060208201905081810360008301526200191781620018d5565b9050919050565b7f4f776e61626c653a2063616c6c6572206973206e6f7420746865206f776e6572600082015250565b60006200195660208362001875565b915062001963826200191e565b602082019050919050565b60006020820190508181036000830152620019898162001947565b9050919050565b610a7380620019a06000396000f3fe608060405234801561001057600080fd5b50600436106100b45760003560e01c80636537214711610071578063653721471461018f578063715018a6146101ad5780638da5cb5b146101b7578063a4d4334a146101d5578063de292789146101f3578063f2fde38b14610211576100b4565b80631053eaa3146100b957806322ad7997146100d757806327cf445e146100f35780634494fd9f146101115780635109df6c1461012f57806363b2e11d1461015f575b600080fd5b6100c161022d565b6040516100ce91906105ed565b60405180910390f35b6100f160048036038101906100ec9190610643565b610243565b005b6100fb610257565b604051610108919061067f565b60405180910390f35b610119610264565b60405161012691906106b3565b60405180910390f35b61014960048036038101906101449190610643565b610273565b60405161015691906106b3565b60405180910390f35b61017960048036038101906101749190610643565b61029b565b60405161018691906106b3565b60405180910390f35b6101976102bf565b6040516101a4919061067f565b60405180910390f35b6101b56102c5565b005b6101bf6102d9565b6040516101cc919061070f565b60405180910390f35b6101dd610303565b6040516101ea919061067f565b60405180910390f35b6101fb610312565b604051610208919061067f565b60405180910390f35b61022b60048036038101906102269190610756565b61031c565b005b60008060009054906101000a900460ff16905090565b61024b6103a0565b6102548161041e565b50565b6000600280549050905090565b600061026e6104d6565b905090565b60006002828154811061028957610288610783565b5b90600052602060002001549050919050565b600281815481106102ab57600080fd5b906000526020600020016000915090505481565b60015481565b6102cd6103a0565b6102d76000610504565b565b6000600360009054906101000a900473ffffffffffffffffffffffffffffffffffffffff16905090565b600061030d610257565b905090565b6000600154905090565b6103246103a0565b600073ffffffffffffffffffffffffffffffffffffffff168173ffffffffffffffffffffffffffffffffffffffff161415610394576040517f08c379a000000000000000000000000000000000000000000000000000000000815260040161038b90610835565b60405180910390fd5b61039d81610504565b50565b6103a86105ca565b73ffffffffffffffffffffffffffffffffffffffff166103c66102d9565b73ffffffffffffffffffffffffffffffffffffffff161461041c576040517f08c379a0000000000000000000000000000000000000000000000000000000008152600401610413906108a1565b60405180910390fd5b565b60008054906101000a900460ff161561046c576040517f08c379a00000000000000000000000000000000000000000000000000000000081526004016104639061090d565b60405180910390fd5b60016000806101000a81548160ff021916908315150217905550806001819055506001543073ffffffffffffffffffffffffffffffffffffffff167f19d22413a5e18244e9883866082c3fd384c3b031c96fac8b7a6a7c4dfbb90bf360405160405180910390a350565b60006040516020016104e790610984565b6040516020818303038152906040526104ff906109d6565b905090565b6000600360009054906101000a900473ffffffffffffffffffffffffffffffffffffffff16905081600360006101000a81548173ffffffffffffffffffffffffffffffffffffffff021916908373ffffffffffffffffffffffffffffffffffffffff1602179055508173ffffffffffffffffffffffffffffffffffffffff168173ffffffffffffffffffffffffffffffffffffffff167f8be0079c531659141344cd1fd0a4f28419497f9722a3daafe3b4186f6b6457e060405160405180910390a35050565b600033905090565b60008115159050919050565b6105e7816105d2565b82525050565b600060208201905061060260008301846105de565b92915050565b600080fd5b6000819050919050565b6106208161060d565b811461062b57600080fd5b50565b60008135905061063d81610617565b92915050565b60006020828403121561065957610658610608565b5b60006106678482850161062e565b91505092915050565b6106798161060d565b82525050565b60006020820190506106946000830184610670565b92915050565b6000819050919050565b6106ad8161069a565b82525050565b60006020820190506106c860008301846106a4565b92915050565b600073ffffffffffffffffffffffffffffffffffffffff82169050919050565b60006106f9826106ce565b9050919050565b610709816106ee565b82525050565b60006020820190506107246000830184610700565b92915050565b610733816106ee565b811461073e57600080fd5b50565b6000813590506107508161072a565b92915050565b60006020828403121561076c5761076b610608565b5b600061077a84828501610741565b91505092915050565b7f4e487b7100000000000000000000000000000000000000000000000000000000600052603260045260246000fd5b600082825260208201905092915050565b7f4f776e61626c653a206e6577206f776e657220697320746865207a65726f206160008201527f6464726573730000000000000000000000000000000000000000000000000000602082015250565b600061081f6026836107b2565b915061082a826107c3565b604082019050919050565b6000602082019050818103600083015261084e81610812565b9050919050565b7f4f776e61626c653a2063616c6c6572206973206e6f7420746865206f776e6572600082015250565b600061088b6020836107b2565b915061089682610855565b602082019050919050565b600060208201905081810360008301526108ba8161087e565b9050919050565b7f416c72656164792068617320726573756c740000000000000000000000000000600082015250565b60006108f76012836107b2565b9150610902826108c1565b602082019050919050565b60006020820190508181036000830152610926816108ea565b9050919050565b600081905092915050565b7f576f726c64204375700000000000000000000000000000000000000000000000600082015250565b600061096e60098361092d565b915061097982610938565b600982019050919050565b600061098f82610961565b9150819050919050565b600081519050919050565b6000819050602082019050919050565b60006109c0825161069a565b80915050919050565b600082821b905092915050565b60006109e182610999565b826109eb846109a4565b90506109f6816109b4565b92506020821015610a3657610a317fffffffffffffffffffffffffffffffffffffffffffffffffffffffffffffffff836020036008026109c9565b831692505b505091905056fea2646970667358221220dbaa93dc8eb36453c186b4cb9781039c6ee1c4d3cbf8337427476159caa6643164736f6c634300080a003360806040523480156200001157600080fd5b50604051620012b9380380620012b9833981810160405281019062000037919062000383565b816000806101000a81548173ffffffffffffffffffffffffffffffffffffffff021916908373ffffffffffffffffffffffffffffffffffffffff16021790555080600260006101000a81548173ffffffffffffffffffffffffffffffffffffffff021916908373ffffffffffffffffffffffffffffffffffffffff1602179055506000620000ca6200027460201b60201c565b905060008173ffffffffffffffffffffffffffffffffffffffff166335ea6a75856040518263ffffffff1660e01b8152600401620001099190620003db565b6101e060405180830381865afa15801562000128573d6000803e3d6000fd5b505050506040513d601f19601f820116820180604052508101906200014e919062000765565b9050806101000151600160006101000a81548173ffffffffffffffffffffffffffffffffffffffff021916908373ffffffffffffffffffffffffffffffffffffffff16021790555060008054906101000a900473ffffffffffffffffffffffffffffffffffffffff1673ffffffffffffffffffffffffffffffffffffffff1663095ea7b3837fffffffffffffffffffffffffffffffffffffffffffffffffffffffffffffffff6040518363ffffffff1660e01b815260040162000213929190620007a9565b6020604051808303816000875af115801562000233573d6000803e3d6000fd5b505050506040513d601f19601f8201168201806040525081019062000259919062000813565b50600060038190555060006004819055505050505062000877565b6000600260009054906101000a900473ffffffffffffffffffffffffffffffffffffffff1673ffffffffffffffffffffffffffffffffffffffff1663026b1d5f6040518163ffffffff1660e01b8152600401602060405180830381865afa158015620002e4573d6000803e3d6000fd5b505050506040513d601f19601f820116820180604052508101906200030a919062000845565b905090565b6000604051905090565b600080fd5b600073ffffffffffffffffffffffffffffffffffffffff82169050919050565b60006200034b826200031e565b9050919050565b6200035d816200033e565b81146200036957600080fd5b50565b6000815190506200037d8162000352565b92915050565b600080604083850312156200039d576200039c62000319565b5b6000620003ad858286016200036c565b9250506020620003c0858286016200036c565b9150509250929050565b620003d5816200033e565b82525050565b6000602082019050620003f26000830184620003ca565b92915050565b600080fd5b6000601f19601f8301169050919050565b7f4e487b7100000000000000000000000000000000000000000000000000000000600052604160045260246000fd5b6200044882620003fd565b810181811067ffffffffffffffff821117156200046a57620004696200040e565b5b80604052505050565b60006200047f6200030f565b90506200048d82826200043d565b919050565b6000819050919050565b620004a78162000492565b8114620004b357600080fd5b50565b600081519050620004c7816200049c565b92915050565b600060208284031215620004e657620004e5620003f8565b5b620004f2602062000473565b905060006200050484828501620004b6565b60008301525092915050565b60006fffffffffffffffffffffffffffffffff82169050919050565b620005378162000510565b81146200054357600080fd5b50565b60008151905062000557816200052c565b92915050565b600064ffffffffff82169050919050565b62000579816200055d565b81146200058557600080fd5b50565b60008151905062000599816200056e565b92915050565b600061ffff82169050919050565b620005b8816200059f565b8114620005c457600080fd5b50565b600081519050620005d881620005ad565b92915050565b60006101e08284031215620005f857620005f7620003f8565b5b620006056101e062000473565b905060006200061784828501620004cd565b60008301525060206200062d8482850162000546565b6020830152506040620006438482850162000546565b6040830152506060620006598482850162000546565b60608301525060806200066f8482850162000546565b60808301525060a0620006858482850162000546565b60a08301525060c06200069b8482850162000588565b60c08301525060e0620006b184828501620005c7565b60e083015250610100620006c8848285016200036c565b61010083015250610120620006e0848285016200036c565b61012083015250610140620006f8848285016200036c565b6101408301525061016062000710848285016200036c565b61016083015250610180620007288482850162000546565b610180830152506101a0620007408482850162000546565b6101a0830152506101c0620007588482850162000546565b6101c08301525092915050565b60006101e082840312156200077f576200077e62000319565b5b60006200078f84828501620005de565b91505092915050565b620007a38162000492565b82525050565b6000604082019050620007c06000830185620003ca565b620007cf602083018462000798565b9392505050565b60008115159050919050565b620007ed81620007d6565b8114620007f957600080fd5b50565b6000815190506200080d81620007e2565b92915050565b6000602082840312156200082c576200082b62000319565b5b60006200083c84828501620007fc565b91505092915050565b6000602082840312156200085e576200085d62000319565b5b60006200086e848285016200036c565b91505092915050565b610a3280620008876000396000f3fe608060405234801561001057600080fd5b506004361061007d5760003560e01c8063b6b55f251161005b578063b6b55f25146100dc578063cdaabe41146100f8578063f3fef3a314610116578063fc0c546a146101325761007d565b806312065fe0146100825780637c262871146100a0578063a0c1f15e146100be575b600080fd5b61008a610150565b6040516100979190610567565b60405180910390f35b6100a861015f565b6040516100b59190610567565b60405180910390f35b6100c6610188565b6040516100d39190610601565b60405180910390f35b6100f660048036038101906100f1919061064d565b6101ae565b005b610100610304565b60405161010d919061069b565b60405180910390f35b610130600480360381019061012b91906106f4565b61032a565b005b61013a6103ef565b6040516101479190610601565b60405180910390f35b600061015a610413565b905090565b600060035460045461016f610413565b6101799190610763565b61018391906107b9565b905090565b600160009054906101000a900473ffffffffffffffffffffffffffffffffffffffff1681565b80600360008282546101c09190610763565b9250508190555060008054906101000a900473ffffffffffffffffffffffffffffffffffffffff1673ffffffffffffffffffffffffffffffffffffffff166323b872dd3330846040518463ffffffff1660e01b8152600401610224939291906107fc565b6020604051808303816000875af1158015610243573d6000803e3d6000fd5b505050506040513d601f19601f82011682018060405250810190610267919061086b565b506102706104b6565b73ffffffffffffffffffffffffffffffffffffffff1663617ba03760008054906101000a900473ffffffffffffffffffffffffffffffffffffffff16833060006040518563ffffffff1660e01b81526004016102cf94939291906108e1565b600060405180830381600087803b1580156102e957600080fd5b505af11580156102fd573d6000803e3d6000fd5b5050505050565b600260009054906101000a900473ffffffffffffffffffffffffffffffffffffffff1681565b806004600082825461033c9190610763565b9250508190555061034b6104b6565b73ffffffffffffffffffffffffffffffffffffffff166369328dec60008054906101000a900473ffffffffffffffffffffffffffffffffffffffff1683856040518463ffffffff1660e01b81526004016103a793929190610926565b6020604051808303816000875af11580156103c6573d6000803e3d6000fd5b505050506040513d601f19601f820116820180604052508101906103ea9190610972565b505050565b60008054906101000a900473ffffffffffffffffffffffffffffffffffffffff1681565b6000600160009054906101000a900473ffffffffffffffffffffffffffffffffffffffff1673ffffffffffffffffffffffffffffffffffffffff166370a08231306040518263ffffffff1660e01b8152600401610470919061099f565b602060405180830381865afa15801561048d573d6000803e3d6000fd5b505050506040513d601f19601f820116820180604052508101906104b19190610972565b905090565b6000600260009054906101000a900473ffffffffffffffffffffffffffffffffffffffff1673ffffffffffffffffffffffffffffffffffffffff1663026b1d5f6040518163ffffffff1660e01b8152600401602060405180830381865afa158015610525573d6000803e3d6000fd5b505050506040513d601f19601f8201168201806040525081019061054991906109cf565b905090565b6000819050919050565b6105618161054e565b82525050565b600060208201905061057c6000830184610558565b92915050565b600073ffffffffffffffffffffffffffffffffffffffff82169050919050565b6000819050919050565b60006105c76105c26105bd84610582565b6105a2565b610582565b9050919050565b60006105d9826105ac565b9050919050565b60006105eb826105ce565b9050919050565b6105fb816105e0565b82525050565b600060208201905061061660008301846105f2565b92915050565b600080fd5b61062a8161054e565b811461063557600080fd5b50565b60008135905061064781610621565b92915050565b6000602082840312156106635761066261061c565b5b600061067184828501610638565b91505092915050565b6000610685826105ce565b9050919050565b6106958161067a565b82525050565b60006020820190506106b0600083018461068c565b92915050565b60006106c182610582565b9050919050565b6106d1816106b6565b81146106dc57600080fd5b50565b6000813590506106ee816106c8565b92915050565b6000806040838503121561070b5761070a61061c565b5b6000610719858286016106df565b925050602061072a85828601610638565b9150509250929050565b7f4e487b7100000000000000000000000000000000000000000000000000000000600052601160045260246000fd5b600061076e8261054e565b91506107798361054e565b9250827fffffffffffffffffffffffffffffffffffffffffffffffffffffffffffffffff038211156107ae576107ad610734565b5b828201905092915050565b60006107c48261054e565b91506107cf8361054e565b9250828210156107e2576107e1610734565b5b828203905092915050565b6107f6816106b6565b82525050565b600060608201905061081160008301866107ed565b61081e60208301856107ed565b61082b6040830184610558565b949350505050565b60008115159050919050565b61084881610833565b811461085357600080fd5b50565b6000815190506108658161083f565b92915050565b6000602082840312156108815761088061061c565b5b600061088f84828501610856565b91505092915050565b6000819050919050565b600061ffff82169050919050565b60006108cb6108c66108c184610898565b6105a2565b6108a2565b9050919050565b6108db816108b0565b82525050565b60006080820190506108f660008301876107ed565b6109036020830186610558565b61091060408301856107ed565b61091d60608301846108d2565b95945050505050565b600060608201905061093b60008301866107ed565b6109486020830185610558565b61095560408301846107ed565b949350505050565b60008151905061096c81610621565b92915050565b6000602082840312156109885761098761061c565b5b60006109968482850161095d565b91505092915050565b60006020820190506109b460008301846107ed565b92915050565b6000815190506109c9816106c8565b92915050565b6000602082840312156109e5576109e461061c565b5b60006109f3848285016109ba565b9150509291505056fea2646970667358221220f41111fae9f510be02728567d23832ebe215114a9e6481b1ec7267b7f5ca96f864736f6c634300080a0033a26469706673582212201842d701007974732c1012b5c04333fd10964f8ee11d8e90e10fd0cad01f964864736f6c634300080a0033",
  "devdoc": {
    "kind": "dev",
    "methods": {},
    "version": 1
  },
  "userdoc": {
    "kind": "user",
    "methods": {},
    "version": 1
  },
  "storageLayout": {
    "storage": [
      {
        "astId": 2528,
        "contract": "contracts/poolFactories/aaveFakeWorldCup.sol:aaveFakeWorldCupBettingPoolFactory",
        "label": "bettingPoolFactory",
        "offset": 0,
        "slot": "0",
        "type": "t_contract(BettingPoolFactory)2515"
      },
      {
        "astId": 2531,
        "contract": "contracts/poolFactories/aaveFakeWorldCup.sol:aaveFakeWorldCupBettingPoolFactory",
        "label": "aaveAddressProvider",
        "offset": 0,
        "slot": "1",
        "type": "t_contract(IPoolAddressesProvider)1831"
      }
    ],
    "types": {
      "t_contract(BettingPoolFactory)2515": {
        "encoding": "inplace",
        "label": "contract BettingPoolFactory",
        "numberOfBytes": "20"
      },
      "t_contract(IPoolAddressesProvider)1831": {
        "encoding": "inplace",
        "label": "contract IPoolAddressesProvider",
        "numberOfBytes": "20"
      }
    }
  }
}