{
  "address": "0x330824C4474153BA0BC5b5BeDB499A83A83FC692",
  "abi": [
    {
      "inputs": [
        {
          "internalType": "address",
          "name": "_owner",
          "type": "address"
        },
        {
          "internalType": "address",
          "name": "_token",
          "type": "address"
        },
        {
          "internalType": "address",
          "name": "_resultController",
          "type": "address"
        },
        {
          "internalType": "address",
          "name": "_yieldSrc",
          "type": "address"
        }
      ],
      "stateMutability": "nonpayable",
      "type": "constructor"
    },
    {
      "anonymous": false,
      "inputs": [
        {
          "indexed": true,
          "internalType": "address",
          "name": "previousOwner",
          "type": "address"
        },
        {
          "indexed": true,
          "internalType": "address",
          "name": "newOwner",
          "type": "address"
        }
      ],
      "name": "OwnershipTransferred",
      "type": "event"
    },
    {
      "anonymous": false,
      "inputs": [
        {
          "indexed": true,
          "internalType": "address",
          "name": "user",
          "type": "address"
        },
        {
          "indexed": true,
          "internalType": "uint256",
          "name": "option",
          "type": "uint256"
        },
        {
          "indexed": true,
          "internalType": "uint256",
          "name": "amount",
          "type": "uint256"
        }
      ],
      "name": "betPlaced",
      "type": "event"
    },
    {
      "anonymous": false,
      "inputs": [
        {
          "indexed": true,
          "internalType": "address",
          "name": "poolAddress",
          "type": "address"
        },
        {
          "indexed": true,
          "internalType": "uint256",
          "name": "poolBalance",
          "type": "uint256"
        }
      ],
      "name": "poolLocked",
      "type": "event"
    },
    {
      "anonymous": false,
      "inputs": [
        {
          "indexed": true,
          "internalType": "address",
          "name": "user",
          "type": "address"
        },
        {
          "indexed": true,
          "internalType": "uint256",
          "name": "amount",
          "type": "uint256"
        }
      ],
      "name": "userWithdraw",
      "type": "event"
    },
    {
      "inputs": [
        {
          "internalType": "uint256",
          "name": "option",
          "type": "uint256"
        },
        {
          "internalType": "uint256",
          "name": "amount",
          "type": "uint256"
        }
      ],
      "name": "bet",
      "outputs": [],
      "stateMutability": "nonpayable",
      "type": "function"
    },
    {
      "inputs": [
        {
          "internalType": "address",
          "name": "",
          "type": "address"
        },
        {
          "internalType": "uint256",
          "name": "",
          "type": "uint256"
        }
      ],
      "name": "bets",
      "outputs": [
        {
          "internalType": "uint256",
          "name": "",
          "type": "uint256"
        }
      ],
      "stateMutability": "view",
      "type": "function"
    },
    {
      "inputs": [],
      "name": "getGame",
      "outputs": [
        {
          "internalType": "bytes32",
          "name": "",
          "type": "bytes32"
        }
      ],
      "stateMutability": "view",
      "type": "function"
    },
    {
      "inputs": [
        {
          "internalType": "uint256",
          "name": "index",
          "type": "uint256"
        }
      ],
      "name": "getOptionName",
      "outputs": [
        {
          "internalType": "bytes32",
          "name": "",
          "type": "bytes32"
        }
      ],
      "stateMutability": "view",
      "type": "function"
    },
    {
      "inputs": [],
      "name": "getOptionsCount",
      "outputs": [
        {
          "internalType": "uint256",
          "name": "",
          "type": "uint256"
        }
      ],
      "stateMutability": "view",
      "type": "function"
    },
    {
      "inputs": [],
      "name": "getResult",
      "outputs": [
        {
          "internalType": "uint256",
          "name": "",
          "type": "uint256"
        }
      ],
      "stateMutability": "view",
      "type": "function"
    },
    {
      "inputs": [],
      "name": "getTotalYield",
      "outputs": [
        {
          "internalType": "uint256",
          "name": "",
          "type": "uint256"
        }
      ],
      "stateMutability": "view",
      "type": "function"
    },
    {
      "inputs": [
        {
          "internalType": "address",
          "name": "user",
          "type": "address"
        }
      ],
      "name": "getUserBalance",
      "outputs": [
        {
          "internalType": "uint256",
          "name": "",
          "type": "uint256"
        }
      ],
      "stateMutability": "view",
      "type": "function"
    },
    {
      "inputs": [
        {
          "internalType": "address",
          "name": "user",
          "type": "address"
        }
      ],
      "name": "getUserPrincipal",
      "outputs": [
        {
          "internalType": "uint256",
          "name": "",
          "type": "uint256"
        }
      ],
      "stateMutability": "view",
      "type": "function"
    },
    {
      "inputs": [
        {
          "internalType": "address",
          "name": "user",
          "type": "address"
        }
      ],
      "name": "getUserProfit",
      "outputs": [
        {
          "internalType": "uint256",
          "name": "",
          "type": "uint256"
        }
      ],
      "stateMutability": "view",
      "type": "function"
    },
    {
      "inputs": [],
      "name": "hasResult",
      "outputs": [
        {
          "internalType": "bool",
          "name": "",
          "type": "bool"
        }
      ],
      "stateMutability": "view",
      "type": "function"
    },
    {
      "inputs": [],
      "name": "lockPool",
      "outputs": [],
      "stateMutability": "nonpayable",
      "type": "function"
    },
    {
      "inputs": [],
      "name": "openForBets",
      "outputs": [
        {
          "internalType": "bool",
          "name": "",
          "type": "bool"
        }
      ],
      "stateMutability": "view",
      "type": "function"
    },
    {
      "inputs": [
        {
          "internalType": "uint256",
          "name": "",
          "type": "uint256"
        }
      ],
      "name": "optionTotalBets",
      "outputs": [
        {
          "internalType": "uint256",
          "name": "",
          "type": "uint256"
        }
      ],
      "stateMutability": "view",
      "type": "function"
    },
    {
      "inputs": [],
      "name": "owner",
      "outputs": [
        {
          "internalType": "address",
          "name": "",
          "type": "address"
        }
      ],
      "stateMutability": "view",
      "type": "function"
    },
    {
      "inputs": [],
      "name": "renounceOwnership",
      "outputs": [],
      "stateMutability": "nonpayable",
      "type": "function"
    },
    {
      "inputs": [],
      "name": "resultController",
      "outputs": [
        {
          "internalType": "contract IResultController",
          "name": "",
          "type": "address"
        }
      ],
      "stateMutability": "view",
      "type": "function"
    },
    {
      "inputs": [],
      "name": "token",
      "outputs": [
        {
          "internalType": "contract IERC20",
          "name": "",
          "type": "address"
        }
      ],
      "stateMutability": "view",
      "type": "function"
    },
    {
      "inputs": [],
      "name": "totalAmount",
      "outputs": [
        {
          "internalType": "uint256",
          "name": "",
          "type": "uint256"
        }
      ],
      "stateMutability": "view",
      "type": "function"
    },
    {
      "inputs": [
        {
          "internalType": "address",
          "name": "newOwner",
          "type": "address"
        }
      ],
      "name": "transferOwnership",
      "outputs": [],
      "stateMutability": "nonpayable",
      "type": "function"
    },
    {
      "inputs": [],
      "name": "withdraw",
      "outputs": [],
      "stateMutability": "nonpayable",
      "type": "function"
    },
    {
      "inputs": [
        {
          "internalType": "address",
          "name": "",
          "type": "address"
        }
      ],
      "name": "withdrawals",
      "outputs": [
        {
          "internalType": "bool",
          "name": "",
          "type": "bool"
        }
      ],
      "stateMutability": "view",
      "type": "function"
    },
    {
      "inputs": [],
      "name": "yieldSrc",
      "outputs": [
        {
          "internalType": "contract IYieldSource",
          "name": "",
          "type": "address"
        }
      ],
      "stateMutability": "view",
      "type": "function"
    }
  ],
  "transactionHash": "0x29bd45f44321af01e43efff035212bf34c5cad2a70304f1a960a6fd97d0c907f",
  "args": [
    "0xB087848Ca9565995105a8aE803B33719bD395a7C",
    "0xA2025B15a1757311bfD68cb14eaeFCc237AF5b43",
    "0xB087848Ca9565995105a8aE803B33719bD395a7C",
    "0xB087848Ca9565995105a8aE803B33719bD395a7C"
  ],
  "numDeployments": 2,
  "solcInputHash": "a41df194259b866e273fcd814567353e",
  "bytecode": "0x60806040523480156200001157600080fd5b50604051620023193803806200231983398181016040528101906200003791906200049d565b620000576200004b6200021660201b60201c565b6200021e60201b60201c565b82600160006101000a81548173ffffffffffffffffffffffffffffffffffffffff021916908373ffffffffffffffffffffffffffffffffffffffff16021790555081600260006101000a81548173ffffffffffffffffffffffffffffffffffffffff021916908373ffffffffffffffffffffffffffffffffffffffff16021790555080600360006101000a81548173ffffffffffffffffffffffffffffffffffffffff021916908373ffffffffffffffffffffffffffffffffffffffff1602179055506001600060146101000a81548160ff021916908315150217905550600160009054906101000a900473ffffffffffffffffffffffffffffffffffffffff1673ffffffffffffffffffffffffffffffffffffffff1663095ea7b3827fffffffffffffffffffffffffffffffffffffffffffffffffffffffffffffffff6040518363ffffffff1660e01b8152600401620001b49291906200053b565b6020604051808303816000875af1158015620001d4573d6000803e3d6000fd5b505050506040513d601f19601f82011682018060405250810190620001fa9190620005a5565b506200020c84620002e260201b60201c565b50505050620006f2565b600033905090565b60008060009054906101000a900473ffffffffffffffffffffffffffffffffffffffff169050816000806101000a81548173ffffffffffffffffffffffffffffffffffffffff021916908373ffffffffffffffffffffffffffffffffffffffff1602179055508173ffffffffffffffffffffffffffffffffffffffff168173ffffffffffffffffffffffffffffffffffffffff167f8be0079c531659141344cd1fd0a4f28419497f9722a3daafe3b4186f6b6457e060405160405180910390a35050565b620002f26200037960201b60201c565b600073ffffffffffffffffffffffffffffffffffffffff168173ffffffffffffffffffffffffffffffffffffffff16141562000365576040517f08c379a00000000000000000000000000000000000000000000000000000000081526004016200035c906200065e565b60405180910390fd5b62000376816200021e60201b60201c565b50565b620003896200021660201b60201c565b73ffffffffffffffffffffffffffffffffffffffff16620003af6200040a60201b60201c565b73ffffffffffffffffffffffffffffffffffffffff161462000408576040517f08c379a0000000000000000000000000000000000000000000000000000000008152600401620003ff90620006d0565b60405180910390fd5b565b60008060009054906101000a900473ffffffffffffffffffffffffffffffffffffffff16905090565b600080fd5b600073ffffffffffffffffffffffffffffffffffffffff82169050919050565b6000620004658262000438565b9050919050565b620004778162000458565b81146200048357600080fd5b50565b60008151905062000497816200046c565b92915050565b60008060008060808587031215620004ba57620004b962000433565b5b6000620004ca8782880162000486565b9450506020620004dd8782880162000486565b9350506040620004f08782880162000486565b9250506060620005038782880162000486565b91505092959194509250565b6200051a8162000458565b82525050565b6000819050919050565b620005358162000520565b82525050565b60006040820190506200055260008301856200050f565b6200056160208301846200052a565b9392505050565b60008115159050919050565b6200057f8162000568565b81146200058b57600080fd5b50565b6000815190506200059f8162000574565b92915050565b600060208284031215620005be57620005bd62000433565b5b6000620005ce848285016200058e565b91505092915050565b600082825260208201905092915050565b7f4f776e61626c653a206e6577206f776e657220697320746865207a65726f206160008201527f6464726573730000000000000000000000000000000000000000000000000000602082015250565b600062000646602683620005d7565b91506200065382620005e8565b604082019050919050565b60006020820190508181036000830152620006798162000637565b9050919050565b7f4f776e61626c653a2063616c6c6572206973206e6f7420746865206f776e6572600082015250565b6000620006b8602083620005d7565b9150620006c58262000680565b602082019050919050565b60006020820190508181036000830152620006eb81620006a9565b9050919050565b611c1780620007026000396000f3fe608060405234801561001057600080fd5b506004361061014d5760003560e01c8063715018a6116100c35780638e4707301161007c5780638e4707301461037e578063a4d4334a146103ae578063c825e6ae146103cc578063de292789146103ea578063f2fde38b14610408578063fc0c546a146104245761014d565b8063715018a6146102cc57806371f8a0ff146102d6578063767123ec146102f45780637a9262a2146103125780637aec978d146103425780638da5cb5b146103605761014d565b80634494fd9f116101155780634494fd9f146101d257806347734892146101f05780634a39ec90146102205780635109df6c14610250578063520ab54d146102805780636ffcc719146102b05761014d565b80631053eaa3146101525780631a39d8ef1461017057806326f11b131461018e5780633ccfd60b146101be5780634026478e146101c8575b600080fd5b61015a610442565b604051610167919061133e565b60405180910390f35b6101786104da565b6040516101859190611372565b60405180910390f35b6101a860048036038101906101a391906113be565b61052e565b6040516101b59190611372565b60405180910390f35b6101c6610546565b005b6101d0610755565b005b6101da6109cf565b6040516101e79190611404565b60405180910390f35b61020a6004803603810190610205919061147d565b610a67565b6040516102179190611372565b60405180910390f35b61023a600480360381019061023591906114aa565b610a8c565b6040516102479190611372565b60405180910390f35b61026a600480360381019061026591906113be565b610ab1565b6040516102779190611404565b60405180910390f35b61029a6004803603810190610295919061147d565b610b56565b6040516102a79190611372565b60405180910390f35b6102ca60048036038101906102c591906114ea565b610c03565b005b6102d4610e18565b005b6102de610e2c565b6040516102eb919061133e565b60405180910390f35b6102fc610e3f565b6040516103099190611589565b60405180910390f35b61032c6004803603810190610327919061147d565b610e65565b604051610339919061133e565b60405180910390f35b61034a610e85565b6040516103579190611372565b60405180910390f35b610368610f1d565b60405161037591906115b3565b60405180910390f35b6103986004803603810190610393919061147d565b610f46565b6040516103a59190611372565b60405180910390f35b6103b6610fd9565b6040516103c39190611372565b60405180910390f35b6103d4611071565b6040516103e191906115ef565b60405180910390f35b6103f2611097565b6040516103ff9190611372565b60405180910390f35b610422600480360381019061041d919061147d565b61112f565b005b61042c6111b3565b604051610439919061162b565b60405180910390f35b6000600260009054906101000a900473ffffffffffffffffffffffffffffffffffffffff1673ffffffffffffffffffffffffffffffffffffffff16631053eaa36040518163ffffffff1660e01b8152600401602060405180830381865afa1580156104b1573d6000803e3d6000fd5b505050506040513d601f19601f820116820180604052508101906104d59190611672565b905090565b6000806104e5610fd9565b90506000805b828110156105255760066000828152602001908152602001600020548261051291906116ce565b91508061051e90611724565b90506104eb565b50809250505090565b60066020528060005260406000206000915090505481565b61054e610442565b61058d576040517f08c379a0000000000000000000000000000000000000000000000000000000008152600401610584906117ca565b60405180910390fd5b600560003373ffffffffffffffffffffffffffffffffffffffff1673ffffffffffffffffffffffffffffffffffffffff16815260200190815260200160002060009054906101000a900460ff161561061a576040517f08c379a000000000000000000000000000000000000000000000000000000000815260040161061190611836565b60405180910390fd5b6001600560003373ffffffffffffffffffffffffffffffffffffffff1673ffffffffffffffffffffffffffffffffffffffff16815260200190815260200160002060006101000a81548160ff021916908315150217905550600061067d33610a67565b9050600360009054906101000a900473ffffffffffffffffffffffffffffffffffffffff1673ffffffffffffffffffffffffffffffffffffffff1663f3fef3a333836040518363ffffffff1660e01b81526004016106dc929190611856565b600060405180830381600087803b1580156106f657600080fd5b505af115801561070a573d6000803e3d6000fd5b50505050803373ffffffffffffffffffffffffffffffffffffffff167f3e458a8e29bab8625f68d7126a788b1dfe3ac22fbe1aae4ff144fa17113e295360405160405180910390a350565b600060149054906101000a900460ff166107a4576040517f08c379a000000000000000000000000000000000000000000000000000000000815260040161079b906118cb565b60405180910390fd5b6107ac6111d9565b60008060146101000a81548160ff021916908315150217905550600360009054906101000a900473ffffffffffffffffffffffffffffffffffffffff1673ffffffffffffffffffffffffffffffffffffffff1663b6b55f25600160009054906101000a900473ffffffffffffffffffffffffffffffffffffffff1673ffffffffffffffffffffffffffffffffffffffff166370a08231306040518263ffffffff1660e01b815260040161085f91906115b3565b602060405180830381865afa15801561087c573d6000803e3d6000fd5b505050506040513d601f19601f820116820180604052508101906108a09190611900565b6040518263ffffffff1660e01b81526004016108bc9190611372565b600060405180830381600087803b1580156108d657600080fd5b505af11580156108ea573d6000803e3d6000fd5b50505050600160009054906101000a900473ffffffffffffffffffffffffffffffffffffffff1673ffffffffffffffffffffffffffffffffffffffff166370a08231306040518263ffffffff1660e01b815260040161094991906115b3565b602060405180830381865afa158015610966573d6000803e3d6000fd5b505050506040513d601f19601f8201168201806040525081019061098a9190611900565b3073ffffffffffffffffffffffffffffffffffffffff167f566e2ac33f6bfdf80641908d269de0bfa6a5dfb7af3e3b0ca5da6b7113810a3760405160405180910390a3565b6000600260009054906101000a900473ffffffffffffffffffffffffffffffffffffffff1673ffffffffffffffffffffffffffffffffffffffff16634494fd9f6040518163ffffffff1660e01b8152600401602060405180830381865afa158015610a3e573d6000803e3d6000fd5b505050506040513d601f19601f82011682018060405250810190610a629190611959565b905090565b6000610a7282610b56565b610a7b83610f46565b610a8591906116ce565b9050919050565b6004602052816000526040600020602052806000526040600020600091509150505481565b6000600260009054906101000a900473ffffffffffffffffffffffffffffffffffffffff1673ffffffffffffffffffffffffffffffffffffffff16635109df6c836040518263ffffffff1660e01b8152600401610b0e9190611372565b602060405180830381865afa158015610b2b573d6000803e3d6000fd5b505050506040513d601f19601f82011682018060405250810190610b4f9190611959565b9050919050565b6000610b60610442565b610b6d5760009050610bfe565b6000610b77611097565b90506006600082815260200190815260200160002054610b95610e85565b600460008673ffffffffffffffffffffffffffffffffffffffff1673ffffffffffffffffffffffffffffffffffffffff168152602001908152602001600020600084815260200190815260200160002054610bf09190611986565b610bfa9190611a0f565b9150505b919050565b600060149054906101000a900460ff16610c52576040517f08c379a0000000000000000000000000000000000000000000000000000000008152600401610c49906118cb565b60405180910390fd5b610c5a610fd9565b8210610c9b576040517f08c379a0000000000000000000000000000000000000000000000000000000008152600401610c9290611a8c565b60405180910390fd5b80600460003373ffffffffffffffffffffffffffffffffffffffff1673ffffffffffffffffffffffffffffffffffffffff16815260200190815260200160002060008481526020019081526020016000206000828254610cfb91906116ce565b9250508190555080600660008481526020019081526020016000206000828254610d2591906116ce565b92505081905550600160009054906101000a900473ffffffffffffffffffffffffffffffffffffffff1673ffffffffffffffffffffffffffffffffffffffff166323b872dd3330846040518463ffffffff1660e01b8152600401610d8b93929190611aac565b6020604051808303816000875af1158015610daa573d6000803e3d6000fd5b505050506040513d601f19601f82011682018060405250810190610dce9190611672565b5080823373ffffffffffffffffffffffffffffffffffffffff167f4b9c4358e7b15d2061e55a8f49b6e311c3129905844e9361e033f2de90bf38e760405160405180910390a45050565b610e206111d9565b610e2a6000611257565b565b600060149054906101000a900460ff1681565b600260009054906101000a900473ffffffffffffffffffffffffffffffffffffffff1681565b60056020528060005260406000206000915054906101000a900460ff1681565b6000600360009054906101000a900473ffffffffffffffffffffffffffffffffffffffff1673ffffffffffffffffffffffffffffffffffffffff16637c2628716040518163ffffffff1660e01b8152600401602060405180830381865afa158015610ef4573d6000803e3d6000fd5b505050506040513d601f19601f82011682018060405250810190610f189190611900565b905090565b60008060009054906101000a900473ffffffffffffffffffffffffffffffffffffffff16905090565b600080610f51610fd9565b90506000805b82811015610fce57600460008673ffffffffffffffffffffffffffffffffffffffff1673ffffffffffffffffffffffffffffffffffffffff16815260200190815260200160002060008281526020019081526020016000205482610fbb91906116ce565b915080610fc790611724565b9050610f57565b508092505050919050565b6000600260009054906101000a900473ffffffffffffffffffffffffffffffffffffffff1673ffffffffffffffffffffffffffffffffffffffff1663a4d4334a6040518163ffffffff1660e01b8152600401602060405180830381865afa158015611048573d6000803e3d6000fd5b505050506040513d601f19601f8201168201806040525081019061106c9190611900565b905090565b600360009054906101000a900473ffffffffffffffffffffffffffffffffffffffff1681565b6000600260009054906101000a900473ffffffffffffffffffffffffffffffffffffffff1673ffffffffffffffffffffffffffffffffffffffff1663de2927896040518163ffffffff1660e01b8152600401602060405180830381865afa158015611106573d6000803e3d6000fd5b505050506040513d601f19601f8201168201806040525081019061112a9190611900565b905090565b6111376111d9565b600073ffffffffffffffffffffffffffffffffffffffff168173ffffffffffffffffffffffffffffffffffffffff1614156111a7576040517f08c379a000000000000000000000000000000000000000000000000000000000815260040161119e90611b55565b60405180910390fd5b6111b081611257565b50565b600160009054906101000a900473ffffffffffffffffffffffffffffffffffffffff1681565b6111e161131b565b73ffffffffffffffffffffffffffffffffffffffff166111ff610f1d565b73ffffffffffffffffffffffffffffffffffffffff1614611255576040517f08c379a000000000000000000000000000000000000000000000000000000000815260040161124c90611bc1565b60405180910390fd5b565b60008060009054906101000a900473ffffffffffffffffffffffffffffffffffffffff169050816000806101000a81548173ffffffffffffffffffffffffffffffffffffffff021916908373ffffffffffffffffffffffffffffffffffffffff1602179055508173ffffffffffffffffffffffffffffffffffffffff168173ffffffffffffffffffffffffffffffffffffffff167f8be0079c531659141344cd1fd0a4f28419497f9722a3daafe3b4186f6b6457e060405160405180910390a35050565b600033905090565b60008115159050919050565b61133881611323565b82525050565b6000602082019050611353600083018461132f565b92915050565b6000819050919050565b61136c81611359565b82525050565b60006020820190506113876000830184611363565b92915050565b600080fd5b61139b81611359565b81146113a657600080fd5b50565b6000813590506113b881611392565b92915050565b6000602082840312156113d4576113d361138d565b5b60006113e2848285016113a9565b91505092915050565b6000819050919050565b6113fe816113eb565b82525050565b600060208201905061141960008301846113f5565b92915050565b600073ffffffffffffffffffffffffffffffffffffffff82169050919050565b600061144a8261141f565b9050919050565b61145a8161143f565b811461146557600080fd5b50565b60008135905061147781611451565b92915050565b6000602082840312156114935761149261138d565b5b60006114a184828501611468565b91505092915050565b600080604083850312156114c1576114c061138d565b5b60006114cf85828601611468565b92505060206114e0858286016113a9565b9150509250929050565b600080604083850312156115015761150061138d565b5b600061150f858286016113a9565b9250506020611520858286016113a9565b9150509250929050565b6000819050919050565b600061154f61154a6115458461141f565b61152a565b61141f565b9050919050565b600061156182611534565b9050919050565b600061157382611556565b9050919050565b61158381611568565b82525050565b600060208201905061159e600083018461157a565b92915050565b6115ad8161143f565b82525050565b60006020820190506115c860008301846115a4565b92915050565b60006115d982611556565b9050919050565b6115e9816115ce565b82525050565b600060208201905061160460008301846115e0565b92915050565b600061161582611556565b9050919050565b6116258161160a565b82525050565b6000602082019050611640600083018461161c565b92915050565b61164f81611323565b811461165a57600080fd5b50565b60008151905061166c81611646565b92915050565b6000602082840312156116885761168761138d565b5b60006116968482850161165d565b91505092915050565b7f4e487b7100000000000000000000000000000000000000000000000000000000600052601160045260246000fd5b60006116d982611359565b91506116e483611359565b9250827fffffffffffffffffffffffffffffffffffffffffffffffffffffffffffffffff038211156117195761171861169f565b5b828201905092915050565b600061172f82611359565b91507fffffffffffffffffffffffffffffffffffffffffffffffffffffffffffffffff8214156117625761176161169f565b5b600182019050919050565b600082825260208201905092915050565b7f506f6f6c206e6f742066696e69736865642e0000000000000000000000000000600082015250565b60006117b460128361176d565b91506117bf8261177e565b602082019050919050565b600060208201905081810360008301526117e3816117a7565b9050919050565b7f416c72656164792077697468647265772e000000000000000000000000000000600082015250565b600061182060118361176d565b915061182b826117ea565b602082019050919050565b6000602082019050818103600083015261184f81611813565b9050919050565b600060408201905061186b60008301856115a4565b6118786020830184611363565b9392505050565b7f506f6f6c20697320636c6f736564000000000000000000000000000000000000600082015250565b60006118b5600e8361176d565b91506118c08261187f565b602082019050919050565b600060208201905081810360008301526118e4816118a8565b9050919050565b6000815190506118fa81611392565b92915050565b6000602082840312156119165761191561138d565b5b6000611924848285016118eb565b91505092915050565b611936816113eb565b811461194157600080fd5b50565b6000815190506119538161192d565b92915050565b60006020828403121561196f5761196e61138d565b5b600061197d84828501611944565b91505092915050565b600061199182611359565b915061199c83611359565b9250817fffffffffffffffffffffffffffffffffffffffffffffffffffffffffffffffff04831182151516156119d5576119d461169f565b5b828202905092915050565b7f4e487b7100000000000000000000000000000000000000000000000000000000600052601260045260246000fd5b6000611a1a82611359565b9150611a2583611359565b925082611a3557611a346119e0565b5b828204905092915050565b7f496e76616c6964206f7074696f6e732e00000000000000000000000000000000600082015250565b6000611a7660108361176d565b9150611a8182611a40565b602082019050919050565b60006020820190508181036000830152611aa581611a69565b9050919050565b6000606082019050611ac160008301866115a4565b611ace60208301856115a4565b611adb6040830184611363565b949350505050565b7f4f776e61626c653a206e6577206f776e657220697320746865207a65726f206160008201527f6464726573730000000000000000000000000000000000000000000000000000602082015250565b6000611b3f60268361176d565b9150611b4a82611ae3565b604082019050919050565b60006020820190508181036000830152611b6e81611b32565b9050919050565b7f4f776e61626c653a2063616c6c6572206973206e6f7420746865206f776e6572600082015250565b6000611bab60208361176d565b9150611bb682611b75565b602082019050919050565b60006020820190508181036000830152611bda81611b9e565b905091905056fea26469706673582212207295e9550ed21462291e0b7983bb7cf93ade9ccb0f54ea296d744dcfecbed94764736f6c634300080a0033",
  "devdoc": {
    "kind": "dev",
    "methods": {
      "owner()": {
        "details": "Returns the address of the current owner."
      },
      "renounceOwnership()": {
        "details": "Leaves the contract without owner. It will not be possible to call `onlyOwner` functions anymore. Can only be called by the current owner. NOTE: Renouncing ownership will leave the contract without an owner, thereby removing any functionality that is only available to the owner."
      },
      "transferOwnership(address)": {
        "details": "Transfers ownership of the contract to a new account (`newOwner`). Can only be called by the current owner."
      }
    },
    "version": 1
  },
  "userdoc": {
    "kind": "user",
    "methods": {},
    "version": 1
  },
  "storageLayout": {
    "storage": [
      {
        "astId": 161,
        "contract": "contracts/bettingPool.sol:BettingPool",
        "label": "_owner",
        "offset": 0,
        "slot": "0",
        "type": "t_address"
      },
      {
        "astId": 2622,
        "contract": "contracts/bettingPool.sol:BettingPool",
        "label": "openForBets",
        "offset": 20,
        "slot": "0",
        "type": "t_bool"
      },
      {
        "astId": 2625,
        "contract": "contracts/bettingPool.sol:BettingPool",
        "label": "token",
        "offset": 0,
        "slot": "1",
        "type": "t_contract(IERC20)930"
      },
      {
        "astId": 2628,
        "contract": "contracts/bettingPool.sol:BettingPool",
        "label": "resultController",
        "offset": 0,
        "slot": "2",
        "type": "t_contract(IResultController)1013"
      },
      {
        "astId": 2631,
        "contract": "contracts/bettingPool.sol:BettingPool",
        "label": "yieldSrc",
        "offset": 0,
        "slot": "3",
        "type": "t_contract(IYieldSource)1038"
      },
      {
        "astId": 2637,
        "contract": "contracts/bettingPool.sol:BettingPool",
        "label": "bets",
        "offset": 0,
        "slot": "4",
        "type": "t_mapping(t_address,t_mapping(t_uint256,t_uint256))"
      },
      {
        "astId": 2641,
        "contract": "contracts/bettingPool.sol:BettingPool",
        "label": "withdrawals",
        "offset": 0,
        "slot": "5",
        "type": "t_mapping(t_address,t_bool)"
      },
      {
        "astId": 2645,
        "contract": "contracts/bettingPool.sol:BettingPool",
        "label": "optionTotalBets",
        "offset": 0,
        "slot": "6",
        "type": "t_mapping(t_uint256,t_uint256)"
      }
    ],
    "types": {
      "t_address": {
        "encoding": "inplace",
        "label": "address",
        "numberOfBytes": "20"
      },
      "t_bool": {
        "encoding": "inplace",
        "label": "bool",
        "numberOfBytes": "1"
      },
      "t_contract(IERC20)930": {
        "encoding": "inplace",
        "label": "contract IERC20",
        "numberOfBytes": "20"
      },
      "t_contract(IResultController)1013": {
        "encoding": "inplace",
        "label": "contract IResultController",
        "numberOfBytes": "20"
      },
      "t_contract(IYieldSource)1038": {
        "encoding": "inplace",
        "label": "contract IYieldSource",
        "numberOfBytes": "20"
      },
      "t_mapping(t_address,t_bool)": {
        "encoding": "mapping",
        "key": "t_address",
        "label": "mapping(address => bool)",
        "numberOfBytes": "32",
        "value": "t_bool"
      },
      "t_mapping(t_address,t_mapping(t_uint256,t_uint256))": {
        "encoding": "mapping",
        "key": "t_address",
        "label": "mapping(address => mapping(uint256 => uint256))",
        "numberOfBytes": "32",
        "value": "t_mapping(t_uint256,t_uint256)"
      },
      "t_mapping(t_uint256,t_uint256)": {
        "encoding": "mapping",
        "key": "t_uint256",
        "label": "mapping(uint256 => uint256)",
        "numberOfBytes": "32",
        "value": "t_uint256"
      },
      "t_uint256": {
        "encoding": "inplace",
        "label": "uint256",
        "numberOfBytes": "32"
      }
    }
  }
}