{
  "address": "0x8d9055d4142199Fe474A9E2BdB9390B8A839efCc",
  "abi": [
    {
      "inputs": [
        {
          "internalType": "address",
          "name": "owner",
          "type": "address"
        }
      ],
      "stateMutability": "nonpayable",
      "type": "constructor"
    },
    {
      "anonymous": false,
      "inputs": [
        {
          "indexed": true,
          "internalType": "address",
          "name": "previousOwner",
          "type": "address"
        },
        {
          "indexed": true,
          "internalType": "address",
          "name": "newOwner",
          "type": "address"
        }
      ],
      "name": "OwnershipTransferred",
      "type": "event"
    },
    {
      "anonymous": false,
      "inputs": [
        {
          "indexed": true,
          "internalType": "address",
          "name": "controller",
          "type": "address"
        },
        {
          "indexed": true,
          "internalType": "uint256",
          "name": "result",
          "type": "uint256"
        }
      ],
      "name": "resultGenerated",
      "type": "event"
    },
    {
      "inputs": [],
      "name": "_getOptionsCount",
      "outputs": [
        {
          "internalType": "uint256",
          "name": "",
          "type": "uint256"
        }
      ],
      "stateMutability": "view",
      "type": "function"
    },
    {
      "inputs": [],
      "name": "generateResult",
      "outputs": [],
      "stateMutability": "nonpayable",
      "type": "function"
    },
    {
      "inputs": [
        {
          "internalType": "uint256",
          "name": "index",
          "type": "uint256"
        }
      ],
      "name": "getOptionName",
      "outputs": [
        {
          "internalType": "bytes32",
          "name": "",
          "type": "bytes32"
        }
      ],
      "stateMutability": "view",
      "type": "function"
    },
    {
      "inputs": [],
      "name": "getOptionsCount",
      "outputs": [
        {
          "internalType": "uint256",
          "name": "",
          "type": "uint256"
        }
      ],
      "stateMutability": "view",
      "type": "function"
    },
    {
      "inputs": [],
      "name": "getRandomNumber",
      "outputs": [
        {
          "internalType": "uint256",
          "name": "notQuiteRandomNumber",
          "type": "uint256"
        }
      ],
      "stateMutability": "view",
      "type": "function"
    },
    {
      "inputs": [
        {
          "internalType": "uint256",
          "name": "limit",
          "type": "uint256"
        }
      ],
      "name": "getRandomNumberFromInterval",
      "outputs": [
        {
          "internalType": "uint256",
          "name": "heads",
          "type": "uint256"
        }
      ],
      "stateMutability": "view",
      "type": "function"
    },
    {
      "inputs": [],
      "name": "getResult",
      "outputs": [
        {
          "internalType": "uint256",
          "name": "",
          "type": "uint256"
        }
      ],
      "stateMutability": "view",
      "type": "function"
    },
    {
      "inputs": [],
      "name": "hasResult",
      "outputs": [
        {
          "internalType": "bool",
          "name": "",
          "type": "bool"
        }
      ],
      "stateMutability": "view",
      "type": "function"
    },
    {
      "inputs": [
        {
          "internalType": "uint256",
          "name": "",
          "type": "uint256"
        }
      ],
      "name": "optionNames",
      "outputs": [
        {
          "internalType": "bytes32",
          "name": "",
          "type": "bytes32"
        }
      ],
      "stateMutability": "view",
      "type": "function"
    },
    {
      "inputs": [],
      "name": "owner",
      "outputs": [
        {
          "internalType": "address",
          "name": "",
          "type": "address"
        }
      ],
      "stateMutability": "view",
      "type": "function"
    },
    {
      "inputs": [],
      "name": "renounceOwnership",
      "outputs": [],
      "stateMutability": "nonpayable",
      "type": "function"
    },
    {
      "inputs": [],
      "name": "result",
      "outputs": [
        {
          "internalType": "uint256",
          "name": "",
          "type": "uint256"
        }
      ],
      "stateMutability": "view",
      "type": "function"
    },
    {
      "inputs": [
        {
          "internalType": "address",
          "name": "newOwner",
          "type": "address"
        }
      ],
      "name": "transferOwnership",
      "outputs": [],
      "stateMutability": "nonpayable",
      "type": "function"
    }
  ],
  "transactionHash": "0x442dfbf7c18b0b6c94324a68a1ec1beae9cae509c9e59e370125110be7e0053e",
  "args": [
    "0xB087848Ca9565995105a8aE803B33719bD395a7C"
  ],
  "numDeployments": 1,
  "solcInputHash": "45189cb4a3d364028aeb9d2a899bc7e5",
  "bytecode": "0x60806040523480156200001157600080fd5b5060405162001102380380620011028339818101604052810190620000379190620003b5565b60008060006101000a81548160ff0219169083151502179055506200007162000065620000ff60201b60201c565b6200010760201b60201c565b620000ac604051602001620000869062000442565b604051602081830303815290604052620000a090620004a2565b620001cd60201b60201c565b620000e7604051602001620000c19062000562565b604051602081830303815290604052620000db90620004a2565b620001cd60201b60201c565b620000f881620001f960201b60201c565b5062000694565b600033905090565b6000600360009054906101000a900473ffffffffffffffffffffffffffffffffffffffff16905081600360006101000a81548173ffffffffffffffffffffffffffffffffffffffff021916908373ffffffffffffffffffffffffffffffffffffffff1602179055508173ffffffffffffffffffffffffffffffffffffffff168173ffffffffffffffffffffffffffffffffffffffff167f8be0079c531659141344cd1fd0a4f28419497f9722a3daafe3b4186f6b6457e060405160405180910390a35050565b600281908060018154018082558091505060019003906000526020600020016000909190919091505550565b620002096200029060201b60201c565b600073ffffffffffffffffffffffffffffffffffffffff168173ffffffffffffffffffffffffffffffffffffffff1614156200027c576040517f08c379a0000000000000000000000000000000000000000000000000000000008152600401620002739062000600565b60405180910390fd5b6200028d816200010760201b60201c565b50565b620002a0620000ff60201b60201c565b73ffffffffffffffffffffffffffffffffffffffff16620002c66200032160201b60201c565b73ffffffffffffffffffffffffffffffffffffffff16146200031f576040517f08c379a0000000000000000000000000000000000000000000000000000000008152600401620003169062000672565b60405180910390fd5b565b6000600360009054906101000a900473ffffffffffffffffffffffffffffffffffffffff16905090565b600080fd5b600073ffffffffffffffffffffffffffffffffffffffff82169050919050565b60006200037d8262000350565b9050919050565b6200038f8162000370565b81146200039b57600080fd5b50565b600081519050620003af8162000384565b92915050565b600060208284031215620003ce57620003cd6200034b565b5b6000620003de848285016200039e565b91505092915050565b600081905092915050565b7f4865616473000000000000000000000000000000000000000000000000000000600082015250565b60006200042a600583620003e7565b91506200043782620003f2565b600582019050919050565b60006200044f826200041b565b9150819050919050565b600081519050919050565b6000819050602082019050919050565b6000819050919050565b60006200048c825162000474565b80915050919050565b600082821b905092915050565b6000620004af8262000459565b82620004bb8462000464565b9050620004c8816200047e565b925060208210156200050b57620005067fffffffffffffffffffffffffffffffffffffffffffffffffffffffffffffffff8360200360080262000495565b831692505b5050919050565b7f5461696c73000000000000000000000000000000000000000000000000000000600082015250565b60006200054a600583620003e7565b9150620005578262000512565b600582019050919050565b60006200056f826200053b565b9150819050919050565b600082825260208201905092915050565b7f4f776e61626c653a206e6577206f776e657220697320746865207a65726f206160008201527f6464726573730000000000000000000000000000000000000000000000000000602082015250565b6000620005e860268362000579565b9150620005f5826200058a565b604082019050919050565b600060208201905081810360008301526200061b81620005d9565b9050919050565b7f4f776e61626c653a2063616c6c6572206973206e6f7420746865206f776e6572600082015250565b60006200065a60208362000579565b9150620006678262000622565b602082019050919050565b600060208201905081810360008301526200068d816200064b565b9050919050565b610a5e80620006a46000396000f3fe608060405234801561001057600080fd5b50600436106100cf5760003560e01c8063715018a61161008c578063caf8d5f011610066578063caf8d5f0146101de578063dbdff2c11461020e578063de2927891461022c578063f2fde38b1461024a576100cf565b8063715018a6146101985780638da5cb5b146101a2578063a4d4334a146101c0576100cf565b80631053eaa3146100d45780631dbe2e0e146100f257806327cf445e146100fc5780635109df6c1461011a57806363b2e11d1461014a578063653721471461017a575b600080fd5b6100dc610266565b6040516100e99190610625565b60405180910390f35b6100fa61027c565b005b610104610298565b6040516101119190610659565b60405180910390f35b610134600480360381019061012f91906106a5565b6102a5565b60405161014191906106eb565b60405180910390f35b610164600480360381019061015f91906106a5565b6102cd565b60405161017191906106eb565b60405180910390f35b6101826102f1565b60405161018f9190610659565b60405180910390f35b6101a06102f7565b005b6101aa61030b565b6040516101b79190610747565b60405180910390f35b6101c8610335565b6040516101d59190610659565b60405180910390f35b6101f860048036038101906101f391906106a5565b610344565b6040516102059190610659565b60405180910390f35b610216610360565b6040516102239190610659565b60405180910390f35b610234610378565b6040516102419190610659565b60405180910390f35b610264600480360381019061025f919061078e565b610382565b005b60008060009054906101000a900460ff16905090565b610284610406565b6102966102916002610344565b610484565b565b6000600280549050905090565b6000600282815481106102bb576102ba6107bb565b5b90600052602060002001549050919050565b600281815481106102dd57600080fd5b906000526020600020016000915090505481565b60015481565b6102ff610406565b610309600061053c565b565b6000600360009054906101000a900473ffffffffffffffffffffffffffffffffffffffff16905090565b600061033f610298565b905090565b60008161034f610360565b6103599190610819565b9050919050565b600060014361036f9190610879565b4060001c905090565b6000600154905090565b61038a610406565b600073ffffffffffffffffffffffffffffffffffffffff168173ffffffffffffffffffffffffffffffffffffffff1614156103fa576040517f08c379a00000000000000000000000000000000000000000000000000000000081526004016103f190610930565b60405180910390fd5b6104038161053c565b50565b61040e610602565b73ffffffffffffffffffffffffffffffffffffffff1661042c61030b565b73ffffffffffffffffffffffffffffffffffffffff1614610482576040517f08c379a00000000000000000000000000000000000000000000000000000000081526004016104799061099c565b60405180910390fd5b565b60008054906101000a900460ff16156104d2576040517f08c379a00000000000000000000000000000000000000000000000000000000081526004016104c990610a08565b60405180910390fd5b60016000806101000a81548160ff021916908315150217905550806001819055506001543073ffffffffffffffffffffffffffffffffffffffff167f19d22413a5e18244e9883866082c3fd384c3b031c96fac8b7a6a7c4dfbb90bf360405160405180910390a350565b6000600360009054906101000a900473ffffffffffffffffffffffffffffffffffffffff16905081600360006101000a81548173ffffffffffffffffffffffffffffffffffffffff021916908373ffffffffffffffffffffffffffffffffffffffff1602179055508173ffffffffffffffffffffffffffffffffffffffff168173ffffffffffffffffffffffffffffffffffffffff167f8be0079c531659141344cd1fd0a4f28419497f9722a3daafe3b4186f6b6457e060405160405180910390a35050565b600033905090565b60008115159050919050565b61061f8161060a565b82525050565b600060208201905061063a6000830184610616565b92915050565b6000819050919050565b61065381610640565b82525050565b600060208201905061066e600083018461064a565b92915050565b600080fd5b61068281610640565b811461068d57600080fd5b50565b60008135905061069f81610679565b92915050565b6000602082840312156106bb576106ba610674565b5b60006106c984828501610690565b91505092915050565b6000819050919050565b6106e5816106d2565b82525050565b600060208201905061070060008301846106dc565b92915050565b600073ffffffffffffffffffffffffffffffffffffffff82169050919050565b600061073182610706565b9050919050565b61074181610726565b82525050565b600060208201905061075c6000830184610738565b92915050565b61076b81610726565b811461077657600080fd5b50565b60008135905061078881610762565b92915050565b6000602082840312156107a4576107a3610674565b5b60006107b284828501610779565b91505092915050565b7f4e487b7100000000000000000000000000000000000000000000000000000000600052603260045260246000fd5b7f4e487b7100000000000000000000000000000000000000000000000000000000600052601260045260246000fd5b600061082482610640565b915061082f83610640565b92508261083f5761083e6107ea565b5b828206905092915050565b7f4e487b7100000000000000000000000000000000000000000000000000000000600052601160045260246000fd5b600061088482610640565b915061088f83610640565b9250828210156108a2576108a161084a565b5b828203905092915050565b600082825260208201905092915050565b7f4f776e61626c653a206e6577206f776e657220697320746865207a65726f206160008201527f6464726573730000000000000000000000000000000000000000000000000000602082015250565b600061091a6026836108ad565b9150610925826108be565b604082019050919050565b600060208201905081810360008301526109498161090d565b9050919050565b7f4f776e61626c653a2063616c6c6572206973206e6f7420746865206f776e6572600082015250565b60006109866020836108ad565b915061099182610950565b602082019050919050565b600060208201905081810360008301526109b581610979565b9050919050565b7f416c72656164792068617320726573756c740000000000000000000000000000600082015250565b60006109f26012836108ad565b91506109fd826109bc565b602082019050919050565b60006020820190508181036000830152610a21816109e5565b905091905056fea26469706673582212206ddbc669822ce71455ba1f73bdfdf263df36a2a8e231ca0dfa7b9c62b1fcb88864736f6c634300080a0033",
  "devdoc": {
    "kind": "dev",
    "methods": {
      "owner()": {
        "details": "Returns the address of the current owner."
      },
      "renounceOwnership()": {
        "details": "Leaves the contract without owner. It will not be possible to call `onlyOwner` functions anymore. Can only be called by the current owner. NOTE: Renouncing ownership will leave the contract without an owner, thereby removing any functionality that is only available to the owner."
      },
      "transferOwnership(address)": {
        "details": "Transfers ownership of the contract to a new account (`newOwner`). Can only be called by the current owner."
      }
    },
    "version": 1
  },
  "userdoc": {
    "kind": "user",
    "methods": {},
    "version": 1
  },
  "storageLayout": {
    "storage": [
      {
        "astId": 1041,
        "contract": "contracts/notQuiteRandom/coinFlip.sol:notQuiteRandomCoinFlip",
        "label": "_hasResult",
        "offset": 0,
        "slot": "0",
        "type": "t_bool"
      },
      {
        "astId": 1043,
        "contract": "contracts/notQuiteRandom/coinFlip.sol:notQuiteRandomCoinFlip",
        "label": "result",
        "offset": 0,
        "slot": "1",
        "type": "t_uint256"
      },
      {
        "astId": 1046,
        "contract": "contracts/notQuiteRandom/coinFlip.sol:notQuiteRandomCoinFlip",
        "label": "optionNames",
        "offset": 0,
        "slot": "2",
        "type": "t_array(t_bytes32)dyn_storage"
      },
      {
        "astId": 161,
        "contract": "contracts/notQuiteRandom/coinFlip.sol:notQuiteRandomCoinFlip",
        "label": "_owner",
        "offset": 0,
        "slot": "3",
        "type": "t_address"
      }
    ],
    "types": {
      "t_address": {
        "encoding": "inplace",
        "label": "address",
        "numberOfBytes": "20"
      },
      "t_array(t_bytes32)dyn_storage": {
        "base": "t_bytes32",
        "encoding": "dynamic_array",
        "label": "bytes32[]",
        "numberOfBytes": "32"
      },
      "t_bool": {
        "encoding": "inplace",
        "label": "bool",
        "numberOfBytes": "1"
      },
      "t_bytes32": {
        "encoding": "inplace",
        "label": "bytes32",
        "numberOfBytes": "32"
      },
      "t_uint256": {
        "encoding": "inplace",
        "label": "uint256",
        "numberOfBytes": "32"
      }
    }
  }
}