{
  "address": "0x39944Af0F2aB1Ca4aC5D5E9008414732d18B7e30",
  "abi": [
    {
      "inputs": [
        {
          "internalType": "address",
          "name": "owner",
          "type": "address"
        }
      ],
      "stateMutability": "nonpayable",
      "type": "constructor"
    },
    {
      "anonymous": false,
      "inputs": [
        {
          "indexed": true,
          "internalType": "address",
          "name": "previousOwner",
          "type": "address"
        },
        {
          "indexed": true,
          "internalType": "address",
          "name": "newOwner",
          "type": "address"
        }
      ],
      "name": "OwnershipTransferred",
      "type": "event"
    },
    {
      "anonymous": false,
      "inputs": [
        {
          "indexed": true,
          "internalType": "address",
          "name": "controller",
          "type": "address"
        },
        {
          "indexed": true,
          "internalType": "uint256",
          "name": "result",
          "type": "uint256"
        }
      ],
      "name": "resultGenerated",
      "type": "event"
    },
    {
      "inputs": [],
      "name": "_getOptionsCount",
      "outputs": [
        {
          "internalType": "uint256",
          "name": "",
          "type": "uint256"
        }
      ],
      "stateMutability": "view",
      "type": "function"
    },
    {
      "inputs": [],
      "name": "generateResult",
      "outputs": [],
      "stateMutability": "nonpayable",
      "type": "function"
    },
    {
      "inputs": [],
      "name": "getGame",
      "outputs": [
        {
          "internalType": "bytes32",
          "name": "",
          "type": "bytes32"
        }
      ],
      "stateMutability": "view",
      "type": "function"
    },
    {
      "inputs": [
        {
          "internalType": "uint256",
          "name": "index",
          "type": "uint256"
        }
      ],
      "name": "getOptionName",
      "outputs": [
        {
          "internalType": "bytes32",
          "name": "",
          "type": "bytes32"
        }
      ],
      "stateMutability": "view",
      "type": "function"
    },
    {
      "inputs": [],
      "name": "getOptionsCount",
      "outputs": [
        {
          "internalType": "uint256",
          "name": "",
          "type": "uint256"
        }
      ],
      "stateMutability": "view",
      "type": "function"
    },
    {
      "inputs": [],
      "name": "getRandomNumber",
      "outputs": [
        {
          "internalType": "uint256",
          "name": "notQuiteRandomNumber",
          "type": "uint256"
        }
      ],
      "stateMutability": "view",
      "type": "function"
    },
    {
      "inputs": [
        {
          "internalType": "uint256",
          "name": "limit",
          "type": "uint256"
        }
      ],
      "name": "getRandomNumberFromInterval",
      "outputs": [
        {
          "internalType": "uint256",
          "name": "heads",
          "type": "uint256"
        }
      ],
      "stateMutability": "view",
      "type": "function"
    },
    {
      "inputs": [],
      "name": "getResult",
      "outputs": [
        {
          "internalType": "uint256",
          "name": "",
          "type": "uint256"
        }
      ],
      "stateMutability": "view",
      "type": "function"
    },
    {
      "inputs": [],
      "name": "hasResult",
      "outputs": [
        {
          "internalType": "bool",
          "name": "",
          "type": "bool"
        }
      ],
      "stateMutability": "view",
      "type": "function"
    },
    {
      "inputs": [
        {
          "internalType": "uint256",
          "name": "",
          "type": "uint256"
        }
      ],
      "name": "optionNames",
      "outputs": [
        {
          "internalType": "bytes32",
          "name": "",
          "type": "bytes32"
        }
      ],
      "stateMutability": "view",
      "type": "function"
    },
    {
      "inputs": [],
      "name": "owner",
      "outputs": [
        {
          "internalType": "address",
          "name": "",
          "type": "address"
        }
      ],
      "stateMutability": "view",
      "type": "function"
    },
    {
      "inputs": [],
      "name": "renounceOwnership",
      "outputs": [],
      "stateMutability": "nonpayable",
      "type": "function"
    },
    {
      "inputs": [],
      "name": "result",
      "outputs": [
        {
          "internalType": "uint256",
          "name": "",
          "type": "uint256"
        }
      ],
      "stateMutability": "view",
      "type": "function"
    },
    {
      "inputs": [
        {
          "internalType": "address",
          "name": "newOwner",
          "type": "address"
        }
      ],
      "name": "transferOwnership",
      "outputs": [],
      "stateMutability": "nonpayable",
      "type": "function"
    }
  ],
  "transactionHash": "0x2b67d47e6b9fe06151ab75dd9d410f7cb22b636543ae56396bb0ed476757fa1b",
  "args": [
    "0xB087848Ca9565995105a8aE803B33719bD395a7C"
  ],
  "numDeployments": 4,
  "solcInputHash": "bdd0003609b826b0f22dbb25c77253a0",
  "bytecode": "0x60806040523480156200001157600080fd5b5060405162001288380380620012888339818101604052810190620000379190620003b5565b60008060006101000a81548160ff0219169083151502179055506200007162000065620000ff60201b60201c565b6200010760201b60201c565b620000ac604051602001620000869062000442565b604051602081830303815290604052620000a090620004a2565b620001cd60201b60201c565b620000e7604051602001620000c19062000562565b604051602081830303815290604052620000db90620004a2565b620001cd60201b60201c565b620000f881620001f960201b60201c565b5062000694565b600033905090565b6000600360009054906101000a900473ffffffffffffffffffffffffffffffffffffffff16905081600360006101000a81548173ffffffffffffffffffffffffffffffffffffffff021916908373ffffffffffffffffffffffffffffffffffffffff1602179055508173ffffffffffffffffffffffffffffffffffffffff168173ffffffffffffffffffffffffffffffffffffffff167f8be0079c531659141344cd1fd0a4f28419497f9722a3daafe3b4186f6b6457e060405160405180910390a35050565b600281908060018154018082558091505060019003906000526020600020016000909190919091505550565b620002096200029060201b60201c565b600073ffffffffffffffffffffffffffffffffffffffff168173ffffffffffffffffffffffffffffffffffffffff1614156200027c576040517f08c379a0000000000000000000000000000000000000000000000000000000008152600401620002739062000600565b60405180910390fd5b6200028d816200010760201b60201c565b50565b620002a0620000ff60201b60201c565b73ffffffffffffffffffffffffffffffffffffffff16620002c66200032160201b60201c565b73ffffffffffffffffffffffffffffffffffffffff16146200031f576040517f08c379a0000000000000000000000000000000000000000000000000000000008152600401620003169062000672565b60405180910390fd5b565b6000600360009054906101000a900473ffffffffffffffffffffffffffffffffffffffff16905090565b600080fd5b600073ffffffffffffffffffffffffffffffffffffffff82169050919050565b60006200037d8262000350565b9050919050565b6200038f8162000370565b81146200039b57600080fd5b50565b600081519050620003af8162000384565b92915050565b600060208284031215620003ce57620003cd6200034b565b5b6000620003de848285016200039e565b91505092915050565b600081905092915050565b7f4865616473000000000000000000000000000000000000000000000000000000600082015250565b60006200042a600583620003e7565b91506200043782620003f2565b600582019050919050565b60006200044f826200041b565b9150819050919050565b600081519050919050565b6000819050602082019050919050565b6000819050919050565b60006200048c825162000474565b80915050919050565b600082821b905092915050565b6000620004af8262000459565b82620004bb8462000464565b9050620004c8816200047e565b925060208210156200050b57620005067fffffffffffffffffffffffffffffffffffffffffffffffffffffffffffffffff8360200360080262000495565b831692505b5050919050565b7f5461696c73000000000000000000000000000000000000000000000000000000600082015250565b60006200054a600583620003e7565b9150620005578262000512565b600582019050919050565b60006200056f826200053b565b9150819050919050565b600082825260208201905092915050565b7f4f776e61626c653a206e6577206f776e657220697320746865207a65726f206160008201527f6464726573730000000000000000000000000000000000000000000000000000602082015250565b6000620005e860268362000579565b9150620005f5826200058a565b604082019050919050565b600060208201905081810360008301526200061b81620005d9565b9050919050565b7f4f776e61626c653a2063616c6c6572206973206e6f7420746865206f776e6572600082015250565b60006200065a60208362000579565b9150620006678262000622565b602082019050919050565b600060208201905081810360008301526200068d816200064b565b9050919050565b610be480620006a46000396000f3fe608060405234801561001057600080fd5b50600436106100ea5760003560e01c8063715018a61161008c578063caf8d5f011610066578063caf8d5f014610217578063dbdff2c114610247578063de29278914610265578063f2fde38b14610283576100ea565b8063715018a6146101d15780638da5cb5b146101db578063a4d4334a146101f9576100ea565b80634494fd9f116100c85780634494fd9f146101355780635109df6c1461015357806363b2e11d1461018357806365372147146101b3576100ea565b80631053eaa3146100ef5780631dbe2e0e1461010d57806327cf445e14610117575b600080fd5b6100f761029f565b604051610104919061069b565b60405180910390f35b6101156102b5565b005b61011f6102d1565b60405161012c91906106cf565b60405180910390f35b61013d6102de565b60405161014a9190610703565b60405180910390f35b61016d6004803603810190610168919061074f565b6102ed565b60405161017a9190610703565b60405180910390f35b61019d6004803603810190610198919061074f565b610315565b6040516101aa9190610703565b60405180910390f35b6101bb610339565b6040516101c891906106cf565b60405180910390f35b6101d961033f565b005b6101e3610353565b6040516101f091906107bd565b60405180910390f35b61020161037d565b60405161020e91906106cf565b60405180910390f35b610231600480360381019061022c919061074f565b61038c565b60405161023e91906106cf565b60405180910390f35b61024f6103a8565b60405161025c91906106cf565b60405180910390f35b61026d6103c0565b60405161027a91906106cf565b60405180910390f35b61029d60048036038101906102989190610804565b6103ca565b005b60008060009054906101000a900460ff16905090565b6102bd61044e565b6102cf6102ca600261038c565b6104cc565b565b6000600280549050905090565b60006102e8610584565b905090565b60006002828154811061030357610302610831565b5b90600052602060002001549050919050565b6002818154811061032557600080fd5b906000526020600020016000915090505481565b60015481565b61034761044e565b61035160006105b2565b565b6000600360009054906101000a900473ffffffffffffffffffffffffffffffffffffffff16905090565b60006103876102d1565b905090565b6000816103976103a8565b6103a1919061088f565b9050919050565b60006001436103b791906108ef565b4060001c905090565b6000600154905090565b6103d261044e565b600073ffffffffffffffffffffffffffffffffffffffff168173ffffffffffffffffffffffffffffffffffffffff161415610442576040517f08c379a0000000000000000000000000000000000000000000000000000000008152600401610439906109a6565b60405180910390fd5b61044b816105b2565b50565b610456610678565b73ffffffffffffffffffffffffffffffffffffffff16610474610353565b73ffffffffffffffffffffffffffffffffffffffff16146104ca576040517f08c379a00000000000000000000000000000000000000000000000000000000081526004016104c190610a12565b60405180910390fd5b565b60008054906101000a900460ff161561051a576040517f08c379a000000000000000000000000000000000000000000000000000000000815260040161051190610a7e565b60405180910390fd5b60016000806101000a81548160ff021916908315150217905550806001819055506001543073ffffffffffffffffffffffffffffffffffffffff167f19d22413a5e18244e9883866082c3fd384c3b031c96fac8b7a6a7c4dfbb90bf360405160405180910390a350565b600060405160200161059590610af5565b6040516020818303038152906040526105ad90610b47565b905090565b6000600360009054906101000a900473ffffffffffffffffffffffffffffffffffffffff16905081600360006101000a81548173ffffffffffffffffffffffffffffffffffffffff021916908373ffffffffffffffffffffffffffffffffffffffff1602179055508173ffffffffffffffffffffffffffffffffffffffff168173ffffffffffffffffffffffffffffffffffffffff167f8be0079c531659141344cd1fd0a4f28419497f9722a3daafe3b4186f6b6457e060405160405180910390a35050565b600033905090565b60008115159050919050565b61069581610680565b82525050565b60006020820190506106b0600083018461068c565b92915050565b6000819050919050565b6106c9816106b6565b82525050565b60006020820190506106e460008301846106c0565b92915050565b6000819050919050565b6106fd816106ea565b82525050565b600060208201905061071860008301846106f4565b92915050565b600080fd5b61072c816106b6565b811461073757600080fd5b50565b60008135905061074981610723565b92915050565b6000602082840312156107655761076461071e565b5b60006107738482850161073a565b91505092915050565b600073ffffffffffffffffffffffffffffffffffffffff82169050919050565b60006107a78261077c565b9050919050565b6107b78161079c565b82525050565b60006020820190506107d260008301846107ae565b92915050565b6107e18161079c565b81146107ec57600080fd5b50565b6000813590506107fe816107d8565b92915050565b60006020828403121561081a5761081961071e565b5b6000610828848285016107ef565b91505092915050565b7f4e487b7100000000000000000000000000000000000000000000000000000000600052603260045260246000fd5b7f4e487b7100000000000000000000000000000000000000000000000000000000600052601260045260246000fd5b600061089a826106b6565b91506108a5836106b6565b9250826108b5576108b4610860565b5b828206905092915050565b7f4e487b7100000000000000000000000000000000000000000000000000000000600052601160045260246000fd5b60006108fa826106b6565b9150610905836106b6565b925082821015610918576109176108c0565b5b828203905092915050565b600082825260208201905092915050565b7f4f776e61626c653a206e6577206f776e657220697320746865207a65726f206160008201527f6464726573730000000000000000000000000000000000000000000000000000602082015250565b6000610990602683610923565b915061099b82610934565b604082019050919050565b600060208201905081810360008301526109bf81610983565b9050919050565b7f4f776e61626c653a2063616c6c6572206973206e6f7420746865206f776e6572600082015250565b60006109fc602083610923565b9150610a07826109c6565b602082019050919050565b60006020820190508181036000830152610a2b816109ef565b9050919050565b7f416c72656164792068617320726573756c742e00000000000000000000000000600082015250565b6000610a68601383610923565b9150610a7382610a32565b602082019050919050565b60006020820190508181036000830152610a9781610a5b565b9050919050565b600081905092915050565b7f436f696e20466c69700000000000000000000000000000000000000000000000600082015250565b6000610adf600983610a9e565b9150610aea82610aa9565b600982019050919050565b6000610b0082610ad2565b9150819050919050565b600081519050919050565b6000819050602082019050919050565b6000610b3182516106ea565b80915050919050565b600082821b905092915050565b6000610b5282610b0a565b82610b5c84610b15565b9050610b6781610b25565b92506020821015610ba757610ba27fffffffffffffffffffffffffffffffffffffffffffffffffffffffffffffffff83602003600802610b3a565b831692505b505091905056fea26469706673582212204e32d5377db09633f083d4171319d7abbf339925bf80ce2ed931f6df0476f6b964736f6c634300080a0033",
  "devdoc": {
    "kind": "dev",
    "methods": {
      "owner()": {
        "details": "Returns the address of the current owner."
      },
      "renounceOwnership()": {
        "details": "Leaves the contract without owner. It will not be possible to call `onlyOwner` functions anymore. Can only be called by the current owner. NOTE: Renouncing ownership will leave the contract without an owner, thereby removing any functionality that is only available to the owner."
      },
      "transferOwnership(address)": {
        "details": "Transfers ownership of the contract to a new account (`newOwner`). Can only be called by the current owner."
      }
    },
    "version": 1
  },
  "userdoc": {
    "kind": "user",
    "methods": {},
    "version": 1
  },
  "storageLayout": {
    "storage": [
      {
        "astId": 3506,
        "contract": "contracts/notQuiteRandom/coinFlip.sol:notQuiteRandomCoinFlip",
        "label": "_hasResult",
        "offset": 0,
        "slot": "0",
        "type": "t_bool"
      },
      {
        "astId": 3508,
        "contract": "contracts/notQuiteRandom/coinFlip.sol:notQuiteRandomCoinFlip",
        "label": "result",
        "offset": 0,
        "slot": "1",
        "type": "t_uint256"
      },
      {
        "astId": 3511,
        "contract": "contracts/notQuiteRandom/coinFlip.sol:notQuiteRandomCoinFlip",
        "label": "optionNames",
        "offset": 0,
        "slot": "2",
        "type": "t_array(t_bytes32)dyn_storage"
      },
      {
        "astId": 1119,
        "contract": "contracts/notQuiteRandom/coinFlip.sol:notQuiteRandomCoinFlip",
        "label": "_owner",
        "offset": 0,
        "slot": "3",
        "type": "t_address"
      }
    ],
    "types": {
      "t_address": {
        "encoding": "inplace",
        "label": "address",
        "numberOfBytes": "20"
      },
      "t_array(t_bytes32)dyn_storage": {
        "base": "t_bytes32",
        "encoding": "dynamic_array",
        "label": "bytes32[]",
        "numberOfBytes": "32"
      },
      "t_bool": {
        "encoding": "inplace",
        "label": "bool",
        "numberOfBytes": "1"
      },
      "t_bytes32": {
        "encoding": "inplace",
        "label": "bytes32",
        "numberOfBytes": "32"
      },
      "t_uint256": {
        "encoding": "inplace",
        "label": "uint256",
        "numberOfBytes": "32"
      }
    }
  }
}