{
  "address": "0x28e6A5CDf12e40155C3351fB3E736EDEf1CF9026",
  "abi": [
    {
      "inputs": [
        {
          "internalType": "address",
          "name": "vrfCoordinator",
          "type": "address"
        },
        {
          "internalType": "uint64",
          "name": "subscriptionId",
          "type": "uint64"
        },
        {
          "internalType": "bytes32",
          "name": "_keyHash",
          "type": "bytes32"
        }
      ],
      "stateMutability": "nonpayable",
      "type": "constructor"
    },
    {
      "inputs": [
        {
          "internalType": "address",
          "name": "have",
          "type": "address"
        },
        {
          "internalType": "address",
          "name": "want",
          "type": "address"
        }
      ],
      "name": "OnlyCoordinatorCanFulfill",
      "type": "error"
    },
    {
      "anonymous": false,
      "inputs": [
        {
          "indexed": true,
          "internalType": "address",
          "name": "previousOwner",
          "type": "address"
        },
        {
          "indexed": true,
          "internalType": "address",
          "name": "newOwner",
          "type": "address"
        }
      ],
      "name": "OwnershipTransferred",
      "type": "event"
    },
    {
      "anonymous": false,
      "inputs": [
        {
          "indexed": true,
          "internalType": "address",
          "name": "consumer",
          "type": "address"
        },
        {
          "indexed": true,
          "internalType": "uint256",
          "name": "requestId",
          "type": "uint256"
        }
      ],
      "name": "randomWordsRequested",
      "type": "event"
    },
    {
      "anonymous": false,
      "inputs": [
        {
          "indexed": true,
          "internalType": "address",
          "name": "owner",
          "type": "address"
        },
        {
          "indexed": true,
          "internalType": "address",
          "name": "newCoinFlip",
          "type": "address"
        }
      ],
      "name": "vrfControllerCreated",
      "type": "event"
    },
    {
      "inputs": [
        {
          "internalType": "address",
          "name": "owner",
          "type": "address"
        }
      ],
      "name": "createCoinFlipController",
      "outputs": [
        {
          "internalType": "address",
          "name": "",
          "type": "address"
        }
      ],
      "stateMutability": "nonpayable",
      "type": "function"
    },
    {
      "inputs": [
        {
          "internalType": "address",
          "name": "owner",
          "type": "address"
        }
      ],
      "name": "createWorldCupController",
      "outputs": [
        {
          "internalType": "address",
          "name": "",
          "type": "address"
        }
      ],
      "stateMutability": "nonpayable",
      "type": "function"
    },
    {
      "inputs": [],
      "name": "owner",
      "outputs": [
        {
          "internalType": "address",
          "name": "",
          "type": "address"
        }
      ],
      "stateMutability": "view",
      "type": "function"
    },
    {
      "inputs": [
        {
          "internalType": "uint256",
          "name": "requestId",
          "type": "uint256"
        },
        {
          "internalType": "uint256[]",
          "name": "randomWords",
          "type": "uint256[]"
        }
      ],
      "name": "rawFulfillRandomWords",
      "outputs": [],
      "stateMutability": "nonpayable",
      "type": "function"
    },
    {
      "inputs": [],
      "name": "renounceOwnership",
      "outputs": [],
      "stateMutability": "nonpayable",
      "type": "function"
    },
    {
      "inputs": [],
      "name": "requestRandomWords",
      "outputs": [
        {
          "internalType": "uint256",
          "name": "",
          "type": "uint256"
        }
      ],
      "stateMutability": "nonpayable",
      "type": "function"
    },
    {
      "inputs": [
        {
          "internalType": "address",
          "name": "newOwner",
          "type": "address"
        }
      ],
      "name": "transferOwnership",
      "outputs": [],
      "stateMutability": "nonpayable",
      "type": "function"
    }
  ],
  "transactionHash": "0x2f2d30044f1df22a31739299025af469cf7562073deaa572e13e41806b3ef2b7",
  "args": [
    "0x2ca8e0c643bde4c2e08ab1fa0da3401adad7734d",
    "341",
    "0x79d3d8832d904592c0bf9818b621522c988bb8b0c05cdc3b15aea1b6e8db0c15"
  ],
  "numDeployments": 4,
  "solcInputHash": "bdd0003609b826b0f22dbb25c77253a0",
  "bytecode": "0x60a06040527f4b09e658ed251bcafeebbc69400383d49f344ace09b9576fe248bb02c003fe9f60001b600455620493e0600560006101000a81548163ffffffff021916908363ffffffff1602179055506003600560046101000a81548161ffff021916908361ffff1602179055506002600560066101000a81548163ffffffff021916908363ffffffff1602179055503480156200009c57600080fd5b5060405162005099380380620050998339818101604052810190620000c2919062000348565b828073ffffffffffffffffffffffffffffffffffffffff1660808173ffffffffffffffffffffffffffffffffffffffff168152505050620001186200010c6200019260201b60201c565b6200019a60201b60201c565b82600160006101000a81548173ffffffffffffffffffffffffffffffffffffffff021916908373ffffffffffffffffffffffffffffffffffffffff16021790555081600160146101000a81548167ffffffffffffffff021916908367ffffffffffffffff16021790555080600481905550505050620003a4565b600033905090565b60008060009054906101000a900473ffffffffffffffffffffffffffffffffffffffff169050816000806101000a81548173ffffffffffffffffffffffffffffffffffffffff021916908373ffffffffffffffffffffffffffffffffffffffff1602179055508173ffffffffffffffffffffffffffffffffffffffff168173ffffffffffffffffffffffffffffffffffffffff167f8be0079c531659141344cd1fd0a4f28419497f9722a3daafe3b4186f6b6457e060405160405180910390a35050565b600080fd5b600073ffffffffffffffffffffffffffffffffffffffff82169050919050565b6000620002908262000263565b9050919050565b620002a28162000283565b8114620002ae57600080fd5b50565b600081519050620002c28162000297565b92915050565b600067ffffffffffffffff82169050919050565b620002e781620002c8565b8114620002f357600080fd5b50565b6000815190506200030781620002dc565b92915050565b6000819050919050565b62000322816200030d565b81146200032e57600080fd5b50565b600081519050620003428162000317565b92915050565b6000806000606084860312156200036457620003636200025e565b5b60006200037486828701620002b1565b93505060206200038786828701620002f6565b92505060406200039a8682870162000331565b9150509250925092565b608051614cd2620003c76000396000818161018b01526101e00152614cd26000f3fe60806040523480156200001157600080fd5b5060043610620000885760003560e01c80638da5cb5b11620000635780638da5cb5b14620000ef578063d54222571462000111578063e0c862891462000147578063f2fde38b14620001695762000088565b80631fe543e3146200008d5780635132e0bd14620000ad578063715018a614620000e3575b600080fd5b620000ab6004803603810190620000a5919062000b3a565b62000189565b005b620000cb6004803603810190620000c5919062000c05565b6200024e565b604051620000da919062000c48565b60405180910390f35b620000ed6200034f565b005b620000f962000367565b60405162000108919062000c48565b60405180910390f35b6200012f600480360381019062000129919062000c05565b62000390565b6040516200013e919062000c48565b60405180910390f35b6200015162000491565b60405162000160919062000c76565b60405180910390f35b62000187600480360381019062000181919062000c05565b620006ba565b005b7f000000000000000000000000000000000000000000000000000000000000000073ffffffffffffffffffffffffffffffffffffffff163373ffffffffffffffffffffffffffffffffffffffff16146200023e57337f00000000000000000000000000000000000000000000000000000000000000006040517f1cf993f40000000000000000000000000000000000000000000000000000000081526004016200023592919062000c93565b60405180910390fd5b6200024a828262000745565b5050565b600080823060405162000261906200095a565b6200026e92919062000c93565b604051809103906000f0801580156200028b573d6000803e3d6000fd5b50905060008190506001600260008373ffffffffffffffffffffffffffffffffffffffff1673ffffffffffffffffffffffffffffffffffffffff16815260200190815260200160002060006101000a81548160ff0219169083151502179055508073ffffffffffffffffffffffffffffffffffffffff163373ffffffffffffffffffffffffffffffffffffffff167f48a7276546bf57b7f5ad20319ebbfd91e7c4089f9b410a06db2c01896852d2f160405160405180910390a38092505050919050565b6200035962000809565b6200036560006200088e565b565b60008060009054906101000a900473ffffffffffffffffffffffffffffffffffffffff16905090565b6000808230604051620003a39062000968565b620003b092919062000c93565b604051809103906000f080158015620003cd573d6000803e3d6000fd5b50905060008190506001600260008373ffffffffffffffffffffffffffffffffffffffff1673ffffffffffffffffffffffffffffffffffffffff16815260200190815260200160002060006101000a81548160ff0219169083151502179055508073ffffffffffffffffffffffffffffffffffffffff163373ffffffffffffffffffffffffffffffffffffffff167f48a7276546bf57b7f5ad20319ebbfd91e7c4089f9b410a06db2c01896852d2f160405160405180910390a38092505050919050565b6000600260003373ffffffffffffffffffffffffffffffffffffffff1673ffffffffffffffffffffffffffffffffffffffff16815260200190815260200160002060009054906101000a900460ff1662000522576040517f08c379a0000000000000000000000000000000000000000000000000000000008152600401620005199062000d21565b60405180910390fd5b6000600160009054906101000a900473ffffffffffffffffffffffffffffffffffffffff1673ffffffffffffffffffffffffffffffffffffffff16635d3b1d30600454600160149054906101000a900467ffffffffffffffff16600560049054906101000a900461ffff16600560009054906101000a900463ffffffff16600560069054906101000a900463ffffffff166040518663ffffffff1660e01b8152600401620005d595949392919062000dc3565b6020604051808303816000875af1158015620005f5573d6000803e3d6000fd5b505050506040513d601f19601f820116820180604052508101906200061b919062000e37565b9050336003600083815260200190815260200160002060006101000a81548173ffffffffffffffffffffffffffffffffffffffff021916908373ffffffffffffffffffffffffffffffffffffffff160217905550803373ffffffffffffffffffffffffffffffffffffffff167fc407cd36521e890cdbbe47ea59b12e5715237449eb41c12208ab386453d8c2a060405160405180910390a38091505090565b620006c462000809565b600073ffffffffffffffffffffffffffffffffffffffff168173ffffffffffffffffffffffffffffffffffffffff16141562000737576040517f08c379a00000000000000000000000000000000000000000000000000000000081526004016200072e9062000edf565b60405180910390fd5b62000742816200088e565b50565b6003600083815260200190815260200160002060009054906101000a900473ffffffffffffffffffffffffffffffffffffffff1673ffffffffffffffffffffffffffffffffffffffff1663c67defc382600081518110620007ab57620007aa62000f01565b5b60200260200101516040518263ffffffff1660e01b8152600401620007d1919062000c76565b600060405180830381600087803b158015620007ec57600080fd5b505af115801562000801573d6000803e3d6000fd5b505050505050565b6200081362000952565b73ffffffffffffffffffffffffffffffffffffffff166200083362000367565b73ffffffffffffffffffffffffffffffffffffffff16146200088c576040517f08c379a0000000000000000000000000000000000000000000000000000000008152600401620008839062000f80565b60405180910390fd5b565b60008060009054906101000a900473ffffffffffffffffffffffffffffffffffffffff169050816000806101000a81548173ffffffffffffffffffffffffffffffffffffffff021916908373ffffffffffffffffffffffffffffffffffffffff1602179055508173ffffffffffffffffffffffffffffffffffffffff168173ffffffffffffffffffffffffffffffffffffffff167f8be0079c531659141344cd1fd0a4f28419497f9722a3daafe3b4186f6b6457e060405160405180910390a35050565b600033905090565b6127fb8062000fa383390190565b6114ff806200379e83390190565b6000604051905090565b600080fd5b600080fd5b6000819050919050565b6200099f816200098a565b8114620009ab57600080fd5b50565b600081359050620009bf8162000994565b92915050565b600080fd5b6000601f19601f8301169050919050565b7f4e487b7100000000000000000000000000000000000000000000000000000000600052604160045260246000fd5b62000a1582620009ca565b810181811067ffffffffffffffff8211171562000a375762000a36620009db565b5b80604052505050565b600062000a4c62000976565b905062000a5a828262000a0a565b919050565b600067ffffffffffffffff82111562000a7d5762000a7c620009db565b5b602082029050602081019050919050565b600080fd5b600062000aaa62000aa48462000a5f565b62000a40565b9050808382526020820190506020840283018581111562000ad05762000acf62000a8e565b5b835b8181101562000afd578062000ae88882620009ae565b84526020840193505060208101905062000ad2565b5050509392505050565b600082601f83011262000b1f5762000b1e620009c5565b5b813562000b3184826020860162000a93565b91505092915050565b6000806040838503121562000b545762000b5362000980565b5b600062000b6485828601620009ae565b925050602083013567ffffffffffffffff81111562000b885762000b8762000985565b5b62000b968582860162000b07565b9150509250929050565b600073ffffffffffffffffffffffffffffffffffffffff82169050919050565b600062000bcd8262000ba0565b9050919050565b62000bdf8162000bc0565b811462000beb57600080fd5b50565b60008135905062000bff8162000bd4565b92915050565b60006020828403121562000c1e5762000c1d62000980565b5b600062000c2e8482850162000bee565b91505092915050565b62000c428162000bc0565b82525050565b600060208201905062000c5f600083018462000c37565b92915050565b62000c70816200098a565b82525050565b600060208201905062000c8d600083018462000c65565b92915050565b600060408201905062000caa600083018562000c37565b62000cb9602083018462000c37565b9392505050565b600082825260208201905092915050565b7f4e6f7420636f6e73756d65722e00000000000000000000000000000000000000600082015250565b600062000d09600d8362000cc0565b915062000d168262000cd1565b602082019050919050565b6000602082019050818103600083015262000d3c8162000cfa565b9050919050565b6000819050919050565b62000d588162000d43565b82525050565b600067ffffffffffffffff82169050919050565b62000d7d8162000d5e565b82525050565b600061ffff82169050919050565b62000d9c8162000d83565b82525050565b600063ffffffff82169050919050565b62000dbd8162000da2565b82525050565b600060a08201905062000dda600083018862000d4d565b62000de9602083018762000d72565b62000df8604083018662000d91565b62000e07606083018562000db2565b62000e16608083018462000db2565b9695505050505050565b60008151905062000e318162000994565b92915050565b60006020828403121562000e505762000e4f62000980565b5b600062000e608482850162000e20565b91505092915050565b7f4f776e61626c653a206e6577206f776e657220697320746865207a65726f206160008201527f6464726573730000000000000000000000000000000000000000000000000000602082015250565b600062000ec760268362000cc0565b915062000ed48262000e69565b604082019050919050565b6000602082019050818103600083015262000efa8162000eb8565b9050919050565b7f4e487b7100000000000000000000000000000000000000000000000000000000600052603260045260246000fd5b7f4f776e61626c653a2063616c6c6572206973206e6f7420746865206f776e6572600082015250565b600062000f6860208362000cc0565b915062000f758262000f30565b602082019050919050565b6000602082019050818103600083015262000f9b8162000f59565b905091905056fe60806040523480156200001157600080fd5b50604051620027fb380380620027fb833981810160405281019062000037919062000af7565b818160008060006101000a81548160ff0219169083151502179055506200007362000067620000df60201b60201c565b620000e760201b60201c565b62000083620001ad60201b60201c565b80600460006101000a81548173ffffffffffffffffffffffffffffffffffffffff021916908373ffffffffffffffffffffffffffffffffffffffff160217905550620000d5826200090f60201b60201c565b50505050620019fd565b600033905090565b6000600360009054906101000a900473ffffffffffffffffffffffffffffffffffffffff16905081600360006101000a81548173ffffffffffffffffffffffffffffffffffffffff021916908373ffffffffffffffffffffffffffffffffffffffff1602179055508173ffffffffffffffffffffffffffffffffffffffff168173ffffffffffffffffffffffffffffffffffffffff167f8be0079c531659141344cd1fd0a4f28419497f9722a3daafe3b4186f6b6457e060405160405180910390a35050565b620001e8604051602001620001c29062000b99565b604051602081830303815290604052620001dc9062000bf9565b620009a660201b60201c565b62000223604051602001620001fd9062000cb9565b604051602081830303815290604052620002179062000bf9565b620009a660201b60201c565b6200025e604051602001620002389062000d20565b604051602081830303815290604052620002529062000bf9565b620009a660201b60201c565b62000299604051602001620002739062000d87565b6040516020818303038152906040526200028d9062000bf9565b620009a660201b60201c565b620002d4604051602001620002ae9062000dee565b604051602081830303815290604052620002c89062000bf9565b620009a660201b60201c565b6200030f604051602001620002e99062000e55565b604051602081830303815290604052620003039062000bf9565b620009a660201b60201c565b6200034a604051602001620003249062000ebc565b6040516020818303038152906040526200033e9062000bf9565b620009a660201b60201c565b620003856040516020016200035f9062000f23565b604051602081830303815290604052620003799062000bf9565b620009a660201b60201c565b620003c06040516020016200039a9062000f8a565b604051602081830303815290604052620003b49062000bf9565b620009a660201b60201c565b620003fb604051602001620003d59062000ff1565b604051602081830303815290604052620003ef9062000bf9565b620009a660201b60201c565b62000436604051602001620004109062001058565b6040516020818303038152906040526200042a9062000bf9565b620009a660201b60201c565b620004716040516020016200044b90620010bf565b604051602081830303815290604052620004659062000bf9565b620009a660201b60201c565b620004ac604051602001620004869062001126565b604051602081830303815290604052620004a09062000bf9565b620009a660201b60201c565b620004e7604051602001620004c1906200118d565b604051602081830303815290604052620004db9062000bf9565b620009a660201b60201c565b62000522604051602001620004fc90620011f4565b604051602081830303815290604052620005169062000bf9565b620009a660201b60201c565b6200055d60405160200162000537906200125b565b604051602081830303815290604052620005519062000bf9565b620009a660201b60201c565b620005986040516020016200057290620012c2565b6040516020818303038152906040526200058c9062000bf9565b620009a660201b60201c565b620005d3604051602001620005ad9062001329565b604051602081830303815290604052620005c79062000bf9565b620009a660201b60201c565b6200060e604051602001620005e89062001390565b604051602081830303815290604052620006029062000bf9565b620009a660201b60201c565b620006496040516020016200062390620013f7565b6040516020818303038152906040526200063d9062000bf9565b620009a660201b60201c565b620006846040516020016200065e906200145e565b604051602081830303815290604052620006789062000bf9565b620009a660201b60201c565b620006bf6040516020016200069990620014c5565b604051602081830303815290604052620006b39062000bf9565b620009a660201b60201c565b620006fa604051602001620006d4906200152c565b604051602081830303815290604052620006ee9062000bf9565b620009a660201b60201c565b620007356040516020016200070f9062001593565b604051602081830303815290604052620007299062000bf9565b620009a660201b60201c565b620007706040516020016200074a90620015fa565b604051602081830303815290604052620007649062000bf9565b620009a660201b60201c565b620007ab604051602001620007859062001661565b6040516020818303038152906040526200079f9062000bf9565b620009a660201b60201c565b620007e6604051602001620007c090620016c8565b604051602081830303815290604052620007da9062000bf9565b620009a660201b60201c565b62000821604051602001620007fb906200172f565b604051602081830303815290604052620008159062000bf9565b620009a660201b60201c565b6200085c604051602001620008369062001796565b604051602081830303815290604052620008509062000bf9565b620009a660201b60201c565b620008976040516020016200087190620017fd565b6040516020818303038152906040526200088b9062000bf9565b620009a660201b60201c565b620008d2604051602001620008ac9062001864565b604051602081830303815290604052620008c69062000bf9565b620009a660201b60201c565b6200090d604051602001620008e790620018cb565b604051602081830303815290604052620009019062000bf9565b620009a660201b60201c565b565b6200091f620009d260201b60201c565b600073ffffffffffffffffffffffffffffffffffffffff168173ffffffffffffffffffffffffffffffffffffffff16141562000992576040517f08c379a0000000000000000000000000000000000000000000000000000000008152600401620009899062001969565b60405180910390fd5b620009a381620000e760201b60201c565b50565b600281908060018154018082558091505060019003906000526020600020016000909190919091505550565b620009e2620000df60201b60201c565b73ffffffffffffffffffffffffffffffffffffffff1662000a0862000a6360201b60201c565b73ffffffffffffffffffffffffffffffffffffffff161462000a61576040517f08c379a000000000000000000000000000000000000000000000000000000000815260040162000a5890620019db565b60405180910390fd5b565b6000600360009054906101000a900473ffffffffffffffffffffffffffffffffffffffff16905090565b600080fd5b600073ffffffffffffffffffffffffffffffffffffffff82169050919050565b600062000abf8262000a92565b9050919050565b62000ad18162000ab2565b811462000add57600080fd5b50565b60008151905062000af18162000ac6565b92915050565b6000806040838503121562000b115762000b1062000a8d565b5b600062000b218582860162000ae0565b925050602062000b348582860162000ae0565b9150509250929050565b600081905092915050565b7f417267656e74696e610000000000000000000000000000000000000000000000600082015250565b600062000b8160098362000b3e565b915062000b8e8262000b49565b600982019050919050565b600062000ba68262000b72565b9150819050919050565b600081519050919050565b6000819050602082019050919050565b6000819050919050565b600062000be3825162000bcb565b80915050919050565b600082821b905092915050565b600062000c068262000bb0565b8262000c128462000bbb565b905062000c1f8162000bd5565b9250602082101562000c625762000c5d7fffffffffffffffffffffffffffffffffffffffffffffffffffffffffffffffff8360200360080262000bec565b831692505b5050919050565b7f4175737472616c69610000000000000000000000000000000000000000000000600082015250565b600062000ca160098362000b3e565b915062000cae8262000c69565b600982019050919050565b600062000cc68262000c92565b9150819050919050565b7f42656c6769756d00000000000000000000000000000000000000000000000000600082015250565b600062000d0860078362000b3e565b915062000d158262000cd0565b600782019050919050565b600062000d2d8262000cf9565b9150819050919050565b7f4272617a696c0000000000000000000000000000000000000000000000000000600082015250565b600062000d6f60068362000b3e565b915062000d7c8262000d37565b600682019050919050565b600062000d948262000d60565b9150819050919050565b7f43616d65726f6f6e000000000000000000000000000000000000000000000000600082015250565b600062000dd660088362000b3e565b915062000de38262000d9e565b600882019050919050565b600062000dfb8262000dc7565b9150819050919050565b7f43616e6164610000000000000000000000000000000000000000000000000000600082015250565b600062000e3d60068362000b3e565b915062000e4a8262000e05565b600682019050919050565b600062000e628262000e2e565b9150819050919050565b7f436f737461205269636100000000000000000000000000000000000000000000600082015250565b600062000ea4600a8362000b3e565b915062000eb18262000e6c565b600a82019050919050565b600062000ec98262000e95565b9150819050919050565b7f43726f6174696100000000000000000000000000000000000000000000000000600082015250565b600062000f0b60078362000b3e565b915062000f188262000ed3565b600782019050919050565b600062000f308262000efc565b9150819050919050565b7f44656e6d61726b00000000000000000000000000000000000000000000000000600082015250565b600062000f7260078362000b3e565b915062000f7f8262000f3a565b600782019050919050565b600062000f978262000f63565b9150819050919050565b7f45637561646f7200000000000000000000000000000000000000000000000000600082015250565b600062000fd960078362000b3e565b915062000fe68262000fa1565b600782019050919050565b600062000ffe8262000fca565b9150819050919050565b7f456e676c616e6400000000000000000000000000000000000000000000000000600082015250565b60006200104060078362000b3e565b91506200104d8262001008565b600782019050919050565b6000620010658262001031565b9150819050919050565b7f4672616e63650000000000000000000000000000000000000000000000000000600082015250565b6000620010a760068362000b3e565b9150620010b4826200106f565b600682019050919050565b6000620010cc8262001098565b9150819050919050565b7f4765726d616e7900000000000000000000000000000000000000000000000000600082015250565b60006200110e60078362000b3e565b91506200111b82620010d6565b600782019050919050565b60006200113382620010ff565b9150819050919050565b7f4768616e61000000000000000000000000000000000000000000000000000000600082015250565b60006200117560058362000b3e565b915062001182826200113d565b600582019050919050565b60006200119a8262001166565b9150819050919050565b7f4972616e00000000000000000000000000000000000000000000000000000000600082015250565b6000620011dc60048362000b3e565b9150620011e982620011a4565b600482019050919050565b60006200120182620011cd565b9150819050919050565b7f4a6170616e000000000000000000000000000000000000000000000000000000600082015250565b60006200124360058362000b3e565b915062001250826200120b565b600582019050919050565b6000620012688262001234565b9150819050919050565b7f4d657869636f0000000000000000000000000000000000000000000000000000600082015250565b6000620012aa60068362000b3e565b9150620012b78262001272565b600682019050919050565b6000620012cf826200129b565b9150819050919050565b7f4d6f726f63636f00000000000000000000000000000000000000000000000000600082015250565b60006200131160078362000b3e565b91506200131e82620012d9565b600782019050919050565b6000620013368262001302565b9150819050919050565b7f4e65746865726c616e6473000000000000000000000000000000000000000000600082015250565b600062001378600b8362000b3e565b9150620013858262001340565b600b82019050919050565b60006200139d8262001369565b9150819050919050565b7f506f6c616e640000000000000000000000000000000000000000000000000000600082015250565b6000620013df60068362000b3e565b9150620013ec82620013a7565b600682019050919050565b60006200140482620013d0565b9150819050919050565b7f506f72747567616c000000000000000000000000000000000000000000000000600082015250565b60006200144660088362000b3e565b915062001453826200140e565b600882019050919050565b60006200146b8262001437565b9150819050919050565b7f5161746172000000000000000000000000000000000000000000000000000000600082015250565b6000620014ad60058362000b3e565b9150620014ba8262001475565b600582019050919050565b6000620014d2826200149e565b9150819050919050565b7f5361756469204172616269610000000000000000000000000000000000000000600082015250565b600062001514600c8362000b3e565b91506200152182620014dc565b600c82019050919050565b6000620015398262001505565b9150819050919050565b7f53656e6567616c00000000000000000000000000000000000000000000000000600082015250565b60006200157b60078362000b3e565b9150620015888262001543565b600782019050919050565b6000620015a0826200156c565b9150819050919050565b7f5365726269610000000000000000000000000000000000000000000000000000600082015250565b6000620015e260068362000b3e565b9150620015ef82620015aa565b600682019050919050565b60006200160782620015d3565b9150819050919050565b7f536f757468204b6f726561000000000000000000000000000000000000000000600082015250565b600062001649600b8362000b3e565b9150620016568262001611565b600b82019050919050565b60006200166e826200163a565b9150819050919050565b7f537061696e000000000000000000000000000000000000000000000000000000600082015250565b6000620016b060058362000b3e565b9150620016bd8262001678565b600582019050919050565b6000620016d582620016a1565b9150819050919050565b7f537769747a65726c616e64000000000000000000000000000000000000000000600082015250565b600062001717600b8362000b3e565b91506200172482620016df565b600b82019050919050565b60006200173c8262001708565b9150819050919050565b7f54756e6973696100000000000000000000000000000000000000000000000000600082015250565b60006200177e60078362000b3e565b91506200178b8262001746565b600782019050919050565b6000620017a3826200176f565b9150819050919050565b7f556e697465642053746174657300000000000000000000000000000000000000600082015250565b6000620017e5600d8362000b3e565b9150620017f282620017ad565b600d82019050919050565b60006200180a82620017d6565b9150819050919050565b7f5572756775617900000000000000000000000000000000000000000000000000600082015250565b60006200184c60078362000b3e565b9150620018598262001814565b600782019050919050565b600062001871826200183d565b9150819050919050565b7f57616c6573000000000000000000000000000000000000000000000000000000600082015250565b6000620018b360058362000b3e565b9150620018c0826200187b565b600582019050919050565b6000620018d882620018a4565b9150819050919050565b600082825260208201905092915050565b7f4f776e61626c653a206e6577206f776e657220697320746865207a65726f206160008201527f6464726573730000000000000000000000000000000000000000000000000000602082015250565b600062001951602683620018e2565b91506200195e82620018f3565b604082019050919050565b60006020820190508181036000830152620019848162001942565b9050919050565b7f4f776e61626c653a2063616c6c6572206973206e6f7420746865206f776e6572600082015250565b6000620019c3602083620018e2565b9150620019d0826200198b565b602082019050919050565b60006020820190508181036000830152620019f681620019b4565b9050919050565b610dee8062001a0d6000396000f3fe608060405234801561001057600080fd5b50600436106100ea5760003560e01c8063653721471161008c578063a4d4334a11610066578063a4d4334a14610217578063c67defc314610235578063de29278914610251578063f2fde38b1461026f576100ea565b806365372147146101d1578063715018a6146101ef5780638da5cb5b146101f9576100ea565b8063430e0ef4116100c8578063430e0ef4146101355780634494fd9f146101535780635109df6c1461017157806363b2e11d146101a1576100ea565b80631053eaa3146100ef5780631dbe2e0e1461010d57806327cf445e14610117575b600080fd5b6100f761028b565b60405161010491906107e0565b60405180910390f35b6101156102a1565b005b61011f610370565b60405161012c9190610814565b60405180910390f35b61013d61037d565b60405161014a91906108ae565b60405180910390f35b61015b6103a3565b60405161016891906108e2565b60405180910390f35b61018b6004803603810190610186919061092e565b6103b2565b60405161019891906108e2565b60405180910390f35b6101bb60048036038101906101b6919061092e565b6103da565b6040516101c891906108e2565b60405180910390f35b6101d96103fe565b6040516101e69190610814565b60405180910390f35b6101f7610404565b005b610201610418565b60405161020e919061097c565b60405180910390f35b61021f610442565b60405161022c9190610814565b60405180910390f35b61024f600480360381019061024a919061092e565b610451565b005b610259610505565b6040516102669190610814565b60405180910390f35b610289600480360381019061028491906109c3565b61050f565b005b60008060009054906101000a900460ff16905090565b6102a9610593565b6000600460009054906101000a900473ffffffffffffffffffffffffffffffffffffffff1673ffffffffffffffffffffffffffffffffffffffff1663e0c862896040518163ffffffff1660e01b81526004016020604051808303816000875af115801561031a573d6000803e3d6000fd5b505050506040513d601f19601f8201168201806040525081019061033e9190610a05565b9050807fc8229e4762795ad65d348e79b0ddba44ada91e26d1f59d9df89a3874824f8f5e60405160405180910390a250565b6000600280549050905090565b600460009054906101000a900473ffffffffffffffffffffffffffffffffffffffff1681565b60006103ad610611565b905090565b6000600282815481106103c8576103c7610a32565b5b90600052602060002001549050919050565b600281815481106103ea57600080fd5b906000526020600020016000915090505481565b60015481565b61040c610593565b610416600061063f565b565b6000600360009054906101000a900473ffffffffffffffffffffffffffffffffffffffff16905090565b600061044c610370565b905090565b600460009054906101000a900473ffffffffffffffffffffffffffffffffffffffff1673ffffffffffffffffffffffffffffffffffffffff163373ffffffffffffffffffffffffffffffffffffffff16146104e1576040517f08c379a00000000000000000000000000000000000000000000000000000000081526004016104d890610abe565b60405180910390fd5b60006104eb610370565b826104f69190610b0d565b905061050181610705565b5050565b6000600154905090565b610517610593565b600073ffffffffffffffffffffffffffffffffffffffff168173ffffffffffffffffffffffffffffffffffffffff161415610587576040517f08c379a000000000000000000000000000000000000000000000000000000000815260040161057e90610bb0565b60405180910390fd5b6105908161063f565b50565b61059b6107bd565b73ffffffffffffffffffffffffffffffffffffffff166105b9610418565b73ffffffffffffffffffffffffffffffffffffffff161461060f576040517f08c379a000000000000000000000000000000000000000000000000000000000815260040161060690610c1c565b60405180910390fd5b565b600060405160200161062290610c93565b60405160208183030381529060405261063a90610ce5565b905090565b6000600360009054906101000a900473ffffffffffffffffffffffffffffffffffffffff16905081600360006101000a81548173ffffffffffffffffffffffffffffffffffffffff021916908373ffffffffffffffffffffffffffffffffffffffff1602179055508173ffffffffffffffffffffffffffffffffffffffff168173ffffffffffffffffffffffffffffffffffffffff167f8be0079c531659141344cd1fd0a4f28419497f9722a3daafe3b4186f6b6457e060405160405180910390a35050565b60008054906101000a900460ff1615610753576040517f08c379a000000000000000000000000000000000000000000000000000000000815260040161074a90610d98565b60405180910390fd5b60016000806101000a81548160ff021916908315150217905550806001819055506001543073ffffffffffffffffffffffffffffffffffffffff167f19d22413a5e18244e9883866082c3fd384c3b031c96fac8b7a6a7c4dfbb90bf360405160405180910390a350565b600033905090565b60008115159050919050565b6107da816107c5565b82525050565b60006020820190506107f560008301846107d1565b92915050565b6000819050919050565b61080e816107fb565b82525050565b60006020820190506108296000830184610805565b92915050565b600073ffffffffffffffffffffffffffffffffffffffff82169050919050565b6000819050919050565b600061087461086f61086a8461082f565b61084f565b61082f565b9050919050565b600061088682610859565b9050919050565b60006108988261087b565b9050919050565b6108a88161088d565b82525050565b60006020820190506108c3600083018461089f565b92915050565b6000819050919050565b6108dc816108c9565b82525050565b60006020820190506108f760008301846108d3565b92915050565b600080fd5b61090b816107fb565b811461091657600080fd5b50565b60008135905061092881610902565b92915050565b600060208284031215610944576109436108fd565b5b600061095284828501610919565b91505092915050565b60006109668261082f565b9050919050565b6109768161095b565b82525050565b6000602082019050610991600083018461096d565b92915050565b6109a08161095b565b81146109ab57600080fd5b50565b6000813590506109bd81610997565b92915050565b6000602082840312156109d9576109d86108fd565b5b60006109e7848285016109ae565b91505092915050565b6000815190506109ff81610902565b92915050565b600060208284031215610a1b57610a1a6108fd565b5b6000610a29848285016109f0565b91505092915050565b7f4e487b7100000000000000000000000000000000000000000000000000000000600052603260045260246000fd5b600082825260208201905092915050565b7f4e6f74207468652072616e646f6d20776f72642067656e657261746f722e0000600082015250565b6000610aa8601e83610a61565b9150610ab382610a72565b602082019050919050565b60006020820190508181036000830152610ad781610a9b565b9050919050565b7f4e487b7100000000000000000000000000000000000000000000000000000000600052601260045260246000fd5b6000610b18826107fb565b9150610b23836107fb565b925082610b3357610b32610ade565b5b828206905092915050565b7f4f776e61626c653a206e6577206f776e657220697320746865207a65726f206160008201527f6464726573730000000000000000000000000000000000000000000000000000602082015250565b6000610b9a602683610a61565b9150610ba582610b3e565b604082019050919050565b60006020820190508181036000830152610bc981610b8d565b9050919050565b7f4f776e61626c653a2063616c6c6572206973206e6f7420746865206f776e6572600082015250565b6000610c06602083610a61565b9150610c1182610bd0565b602082019050919050565b60006020820190508181036000830152610c3581610bf9565b9050919050565b600081905092915050565b7f576f726c64204375700000000000000000000000000000000000000000000000600082015250565b6000610c7d600983610c3c565b9150610c8882610c47565b600982019050919050565b6000610c9e82610c70565b9150819050919050565b600081519050919050565b6000819050602082019050919050565b6000610ccf82516108c9565b80915050919050565b600082821b905092915050565b6000610cf082610ca8565b82610cfa84610cb3565b9050610d0581610cc3565b92506020821015610d4557610d407fffffffffffffffffffffffffffffffffffffffffffffffffffffffffffffffff83602003600802610cd8565b831692505b5050919050565b7f416c72656164792068617320726573756c742e00000000000000000000000000600082015250565b6000610d82601383610a61565b9150610d8d82610d4c565b602082019050919050565b60006020820190508181036000830152610db181610d75565b905091905056fea2646970667358221220302b5f7809c578f47b00862bed0a938ecc7ade12f291033584062bb7a619effc64736f6c634300080a003360806040523480156200001157600080fd5b50604051620014ff380380620014ff83398181016040528101906200003791906200040d565b818160008060006101000a81548160ff0219169083151502179055506200007362000067620000df60201b60201c565b620000e760201b60201c565b62000083620001ad60201b60201c565b80600460006101000a81548173ffffffffffffffffffffffffffffffffffffffff021916908373ffffffffffffffffffffffffffffffffffffffff160217905550620000d5826200022560201b60201c565b5050505062000701565b600033905090565b6000600360009054906101000a900473ffffffffffffffffffffffffffffffffffffffff16905081600360006101000a81548173ffffffffffffffffffffffffffffffffffffffff021916908373ffffffffffffffffffffffffffffffffffffffff1602179055508173ffffffffffffffffffffffffffffffffffffffff168173ffffffffffffffffffffffffffffffffffffffff167f8be0079c531659141344cd1fd0a4f28419497f9722a3daafe3b4186f6b6457e060405160405180910390a35050565b620001e8604051602001620001c290620004af565b604051602081830303815290604052620001dc906200050f565b620002bc60201b60201c565b62000223604051602001620001fd90620005cf565b60405160208183030381529060405262000217906200050f565b620002bc60201b60201c565b565b62000235620002e860201b60201c565b600073ffffffffffffffffffffffffffffffffffffffff168173ffffffffffffffffffffffffffffffffffffffff161415620002a8576040517f08c379a00000000000000000000000000000000000000000000000000000000081526004016200029f906200066d565b60405180910390fd5b620002b981620000e760201b60201c565b50565b600281908060018154018082558091505060019003906000526020600020016000909190919091505550565b620002f8620000df60201b60201c565b73ffffffffffffffffffffffffffffffffffffffff166200031e6200037960201b60201c565b73ffffffffffffffffffffffffffffffffffffffff161462000377576040517f08c379a00000000000000000000000000000000000000000000000000000000081526004016200036e90620006df565b60405180910390fd5b565b6000600360009054906101000a900473ffffffffffffffffffffffffffffffffffffffff16905090565b600080fd5b600073ffffffffffffffffffffffffffffffffffffffff82169050919050565b6000620003d582620003a8565b9050919050565b620003e781620003c8565b8114620003f357600080fd5b50565b6000815190506200040781620003dc565b92915050565b60008060408385031215620004275762000426620003a3565b5b60006200043785828601620003f6565b92505060206200044a85828601620003f6565b9150509250929050565b600081905092915050565b7f4865616473000000000000000000000000000000000000000000000000000000600082015250565b60006200049760058362000454565b9150620004a4826200045f565b600582019050919050565b6000620004bc8262000488565b9150819050919050565b600081519050919050565b6000819050602082019050919050565b6000819050919050565b6000620004f98251620004e1565b80915050919050565b600082821b905092915050565b60006200051c82620004c6565b826200052884620004d1565b90506200053581620004eb565b925060208210156200057857620005737fffffffffffffffffffffffffffffffffffffffffffffffffffffffffffffffff8360200360080262000502565b831692505b5050919050565b7f5461696c73000000000000000000000000000000000000000000000000000000600082015250565b6000620005b760058362000454565b9150620005c4826200057f565b600582019050919050565b6000620005dc82620005a8565b9150819050919050565b600082825260208201905092915050565b7f4f776e61626c653a206e6577206f776e657220697320746865207a65726f206160008201527f6464726573730000000000000000000000000000000000000000000000000000602082015250565b600062000655602683620005e6565b91506200066282620005f7565b604082019050919050565b60006020820190508181036000830152620006888162000646565b9050919050565b7f4f776e61626c653a2063616c6c6572206973206e6f7420746865206f776e6572600082015250565b6000620006c7602083620005e6565b9150620006d4826200068f565b602082019050919050565b60006020820190508181036000830152620006fa81620006b8565b9050919050565b610dee80620007116000396000f3fe608060405234801561001057600080fd5b50600436106100ea5760003560e01c8063653721471161008c578063a4d4334a11610066578063a4d4334a14610217578063c67defc314610235578063de29278914610251578063f2fde38b1461026f576100ea565b806365372147146101d1578063715018a6146101ef5780638da5cb5b146101f9576100ea565b8063430e0ef4116100c8578063430e0ef4146101355780634494fd9f146101535780635109df6c1461017157806363b2e11d146101a1576100ea565b80631053eaa3146100ef5780631dbe2e0e1461010d57806327cf445e14610117575b600080fd5b6100f761028b565b60405161010491906107e0565b60405180910390f35b6101156102a1565b005b61011f610370565b60405161012c9190610814565b60405180910390f35b61013d61037d565b60405161014a91906108ae565b60405180910390f35b61015b6103a3565b60405161016891906108e2565b60405180910390f35b61018b6004803603810190610186919061092e565b6103b2565b60405161019891906108e2565b60405180910390f35b6101bb60048036038101906101b6919061092e565b6103da565b6040516101c891906108e2565b60405180910390f35b6101d96103fe565b6040516101e69190610814565b60405180910390f35b6101f7610404565b005b610201610418565b60405161020e919061097c565b60405180910390f35b61021f610442565b60405161022c9190610814565b60405180910390f35b61024f600480360381019061024a919061092e565b610451565b005b610259610505565b6040516102669190610814565b60405180910390f35b610289600480360381019061028491906109c3565b61050f565b005b60008060009054906101000a900460ff16905090565b6102a9610593565b6000600460009054906101000a900473ffffffffffffffffffffffffffffffffffffffff1673ffffffffffffffffffffffffffffffffffffffff1663e0c862896040518163ffffffff1660e01b81526004016020604051808303816000875af115801561031a573d6000803e3d6000fd5b505050506040513d601f19601f8201168201806040525081019061033e9190610a05565b9050807fc8229e4762795ad65d348e79b0ddba44ada91e26d1f59d9df89a3874824f8f5e60405160405180910390a250565b6000600280549050905090565b600460009054906101000a900473ffffffffffffffffffffffffffffffffffffffff1681565b60006103ad610611565b905090565b6000600282815481106103c8576103c7610a32565b5b90600052602060002001549050919050565b600281815481106103ea57600080fd5b906000526020600020016000915090505481565b60015481565b61040c610593565b610416600061063f565b565b6000600360009054906101000a900473ffffffffffffffffffffffffffffffffffffffff16905090565b600061044c610370565b905090565b600460009054906101000a900473ffffffffffffffffffffffffffffffffffffffff1673ffffffffffffffffffffffffffffffffffffffff163373ffffffffffffffffffffffffffffffffffffffff16146104e1576040517f08c379a00000000000000000000000000000000000000000000000000000000081526004016104d890610abe565b60405180910390fd5b60006104eb610370565b826104f69190610b0d565b905061050181610705565b5050565b6000600154905090565b610517610593565b600073ffffffffffffffffffffffffffffffffffffffff168173ffffffffffffffffffffffffffffffffffffffff161415610587576040517f08c379a000000000000000000000000000000000000000000000000000000000815260040161057e90610bb0565b60405180910390fd5b6105908161063f565b50565b61059b6107bd565b73ffffffffffffffffffffffffffffffffffffffff166105b9610418565b73ffffffffffffffffffffffffffffffffffffffff161461060f576040517f08c379a000000000000000000000000000000000000000000000000000000000815260040161060690610c1c565b60405180910390fd5b565b600060405160200161062290610c93565b60405160208183030381529060405261063a90610ce5565b905090565b6000600360009054906101000a900473ffffffffffffffffffffffffffffffffffffffff16905081600360006101000a81548173ffffffffffffffffffffffffffffffffffffffff021916908373ffffffffffffffffffffffffffffffffffffffff1602179055508173ffffffffffffffffffffffffffffffffffffffff168173ffffffffffffffffffffffffffffffffffffffff167f8be0079c531659141344cd1fd0a4f28419497f9722a3daafe3b4186f6b6457e060405160405180910390a35050565b60008054906101000a900460ff1615610753576040517f08c379a000000000000000000000000000000000000000000000000000000000815260040161074a90610d98565b60405180910390fd5b60016000806101000a81548160ff021916908315150217905550806001819055506001543073ffffffffffffffffffffffffffffffffffffffff167f19d22413a5e18244e9883866082c3fd384c3b031c96fac8b7a6a7c4dfbb90bf360405160405180910390a350565b600033905090565b60008115159050919050565b6107da816107c5565b82525050565b60006020820190506107f560008301846107d1565b92915050565b6000819050919050565b61080e816107fb565b82525050565b60006020820190506108296000830184610805565b92915050565b600073ffffffffffffffffffffffffffffffffffffffff82169050919050565b6000819050919050565b600061087461086f61086a8461082f565b61084f565b61082f565b9050919050565b600061088682610859565b9050919050565b60006108988261087b565b9050919050565b6108a88161088d565b82525050565b60006020820190506108c3600083018461089f565b92915050565b6000819050919050565b6108dc816108c9565b82525050565b60006020820190506108f760008301846108d3565b92915050565b600080fd5b61090b816107fb565b811461091657600080fd5b50565b60008135905061092881610902565b92915050565b600060208284031215610944576109436108fd565b5b600061095284828501610919565b91505092915050565b60006109668261082f565b9050919050565b6109768161095b565b82525050565b6000602082019050610991600083018461096d565b92915050565b6109a08161095b565b81146109ab57600080fd5b50565b6000813590506109bd81610997565b92915050565b6000602082840312156109d9576109d86108fd565b5b60006109e7848285016109ae565b91505092915050565b6000815190506109ff81610902565b92915050565b600060208284031215610a1b57610a1a6108fd565b5b6000610a29848285016109f0565b91505092915050565b7f4e487b7100000000000000000000000000000000000000000000000000000000600052603260045260246000fd5b600082825260208201905092915050565b7f4e6f74207468652072616e646f6d20776f72642067656e657261746f722e0000600082015250565b6000610aa8601e83610a61565b9150610ab382610a72565b602082019050919050565b60006020820190508181036000830152610ad781610a9b565b9050919050565b7f4e487b7100000000000000000000000000000000000000000000000000000000600052601260045260246000fd5b6000610b18826107fb565b9150610b23836107fb565b925082610b3357610b32610ade565b5b828206905092915050565b7f4f776e61626c653a206e6577206f776e657220697320746865207a65726f206160008201527f6464726573730000000000000000000000000000000000000000000000000000602082015250565b6000610b9a602683610a61565b9150610ba582610b3e565b604082019050919050565b60006020820190508181036000830152610bc981610b8d565b9050919050565b7f4f776e61626c653a2063616c6c6572206973206e6f7420746865206f776e6572600082015250565b6000610c06602083610a61565b9150610c1182610bd0565b602082019050919050565b60006020820190508181036000830152610c3581610bf9565b9050919050565b600081905092915050565b7f436f696e20466c69700000000000000000000000000000000000000000000000600082015250565b6000610c7d600983610c3c565b9150610c8882610c47565b600982019050919050565b6000610c9e82610c70565b9150819050919050565b600081519050919050565b6000819050602082019050919050565b6000610ccf82516108c9565b80915050919050565b600082821b905092915050565b6000610cf082610ca8565b82610cfa84610cb3565b9050610d0581610cc3565b92506020821015610d4557610d407fffffffffffffffffffffffffffffffffffffffffffffffffffffffffffffffff83602003600802610cd8565b831692505b5050919050565b7f416c72656164792068617320726573756c742e00000000000000000000000000600082015250565b6000610d82601383610a61565b9150610d8d82610d4c565b602082019050919050565b60006020820190508181036000830152610db181610d75565b905091905056fea264697066735822122051026c763972912ea34260fd70efeb0228db65b776506f013c2205dbeed137ac64736f6c634300080a0033a2646970667358221220bc86fd1f1a4c508ffcb4499c1f21ca1bfaba55da7242cad7d11a97bd41cff41d64736f6c634300080a0033",
  "devdoc": {
    "kind": "dev",
    "methods": {
      "owner()": {
        "details": "Returns the address of the current owner."
      },
      "renounceOwnership()": {
        "details": "Leaves the contract without owner. It will not be possible to call `onlyOwner` functions anymore. Can only be called by the current owner. NOTE: Renouncing ownership will leave the contract without an owner, thereby removing any functionality that is only available to the owner."
      },
      "transferOwnership(address)": {
        "details": "Transfers ownership of the contract to a new account (`newOwner`). Can only be called by the current owner."
      }
    },
    "version": 1
  },
  "userdoc": {
    "kind": "user",
    "methods": {},
    "version": 1
  },
  "storageLayout": {
    "storage": [
      {
        "astId": 1119,
        "contract": "contracts/vrf/factory.sol:VRFResultFactory",
        "label": "_owner",
        "offset": 0,
        "slot": "0",
        "type": "t_address"
      },
      {
        "astId": 5351,
        "contract": "contracts/vrf/factory.sol:VRFResultFactory",
        "label": "COORDINATOR",
        "offset": 0,
        "slot": "1",
        "type": "t_contract(VRFCoordinatorV2Interface)248"
      },
      {
        "astId": 5353,
        "contract": "contracts/vrf/factory.sol:VRFResultFactory",
        "label": "s_subscriptionId",
        "offset": 20,
        "slot": "1",
        "type": "t_uint64"
      },
      {
        "astId": 5357,
        "contract": "contracts/vrf/factory.sol:VRFResultFactory",
        "label": "consumers",
        "offset": 0,
        "slot": "2",
        "type": "t_mapping(t_address,t_bool)"
      },
      {
        "astId": 5361,
        "contract": "contracts/vrf/factory.sol:VRFResultFactory",
        "label": "requestToConsumers",
        "offset": 0,
        "slot": "3",
        "type": "t_mapping(t_uint256,t_address)"
      },
      {
        "astId": 5364,
        "contract": "contracts/vrf/factory.sol:VRFResultFactory",
        "label": "keyHash",
        "offset": 0,
        "slot": "4",
        "type": "t_bytes32"
      },
      {
        "astId": 5367,
        "contract": "contracts/vrf/factory.sol:VRFResultFactory",
        "label": "callbackGasLimit",
        "offset": 0,
        "slot": "5",
        "type": "t_uint32"
      },
      {
        "astId": 5370,
        "contract": "contracts/vrf/factory.sol:VRFResultFactory",
        "label": "requestConfirmations",
        "offset": 4,
        "slot": "5",
        "type": "t_uint16"
      },
      {
        "astId": 5373,
        "contract": "contracts/vrf/factory.sol:VRFResultFactory",
        "label": "numWords",
        "offset": 6,
        "slot": "5",
        "type": "t_uint32"
      }
    ],
    "types": {
      "t_address": {
        "encoding": "inplace",
        "label": "address",
        "numberOfBytes": "20"
      },
      "t_bool": {
        "encoding": "inplace",
        "label": "bool",
        "numberOfBytes": "1"
      },
      "t_bytes32": {
        "encoding": "inplace",
        "label": "bytes32",
        "numberOfBytes": "32"
      },
      "t_contract(VRFCoordinatorV2Interface)248": {
        "encoding": "inplace",
        "label": "contract VRFCoordinatorV2Interface",
        "numberOfBytes": "20"
      },
      "t_mapping(t_address,t_bool)": {
        "encoding": "mapping",
        "key": "t_address",
        "label": "mapping(address => bool)",
        "numberOfBytes": "32",
        "value": "t_bool"
      },
      "t_mapping(t_uint256,t_address)": {
        "encoding": "mapping",
        "key": "t_uint256",
        "label": "mapping(uint256 => address)",
        "numberOfBytes": "32",
        "value": "t_address"
      },
      "t_uint16": {
        "encoding": "inplace",
        "label": "uint16",
        "numberOfBytes": "2"
      },
      "t_uint256": {
        "encoding": "inplace",
        "label": "uint256",
        "numberOfBytes": "32"
      },
      "t_uint32": {
        "encoding": "inplace",
        "label": "uint32",
        "numberOfBytes": "4"
      },
      "t_uint64": {
        "encoding": "inplace",
        "label": "uint64",
        "numberOfBytes": "8"
      }
    }
  }
}