{
  "_format": "hh-sol-artifact-1",
  "contractName": "VRFv2Consumer",
  "sourceName": "contracts/VRF.sol",
  "abi": [
    {
      "inputs": [
        {
          "internalType": "uint64",
          "name": "subscriptionId",
          "type": "uint64"
        }
      ],
      "stateMutability": "nonpayable",
      "type": "constructor"
    },
    {
      "inputs": [
        {
          "internalType": "address",
          "name": "have",
          "type": "address"
        },
        {
          "internalType": "address",
          "name": "want",
          "type": "address"
        }
      ],
      "name": "OnlyCoordinatorCanFulfill",
      "type": "error"
    },
    {
      "inputs": [
        {
          "internalType": "uint256",
          "name": "requestId",
          "type": "uint256"
        },
        {
          "internalType": "uint256[]",
          "name": "randomWords",
          "type": "uint256[]"
        }
      ],
      "name": "rawFulfillRandomWords",
      "outputs": [],
      "stateMutability": "nonpayable",
      "type": "function"
    },
    {
      "inputs": [],
      "name": "requestRandomWords",
      "outputs": [],
      "stateMutability": "nonpayable",
      "type": "function"
    },
    {
      "inputs": [
        {
          "internalType": "uint256",
          "name": "",
          "type": "uint256"
        }
      ],
      "name": "s_randomWords",
      "outputs": [
        {
          "internalType": "uint256",
          "name": "",
          "type": "uint256"
        }
      ],
      "stateMutability": "view",
      "type": "function"
    },
    {
      "inputs": [],
      "name": "s_requestId",
      "outputs": [
        {
          "internalType": "uint256",
          "name": "",
          "type": "uint256"
        }
      ],
      "stateMutability": "view",
      "type": "function"
    }
  ],
  "bytecode": "0x60a0604052737a1bac17ccc5b313516c5e16fb24f7659aa5ebed600160006101000a81548173ffffffffffffffffffffffffffffffffffffffff021916908373ffffffffffffffffffffffffffffffffffffffff1602179055507f4b09e658ed251bcafeebbc69400383d49f344ace09b9576fe248bb02c003fe9f60001b600255620493e0600360006101000a81548163ffffffff021916908363ffffffff16021790555060038060046101000a81548161ffff021916908361ffff1602179055506002600360066101000a81548163ffffffff021916908363ffffffff1602179055503480156100ef57600080fd5b50604051610a0c380380610a0c83398181016040528101906101119190610280565b600160009054906101000a900473ffffffffffffffffffffffffffffffffffffffff168073ffffffffffffffffffffffffffffffffffffffff1660808173ffffffffffffffffffffffffffffffffffffffff168152505050600160009054906101000a900473ffffffffffffffffffffffffffffffffffffffff166000806101000a81548173ffffffffffffffffffffffffffffffffffffffff021916908373ffffffffffffffffffffffffffffffffffffffff16021790555033600660006101000a81548173ffffffffffffffffffffffffffffffffffffffff021916908373ffffffffffffffffffffffffffffffffffffffff16021790555080600060146101000a81548167ffffffffffffffff021916908367ffffffffffffffff160217905550506102ad565b600080fd5b600067ffffffffffffffff82169050919050565b61025d81610240565b811461026857600080fd5b50565b60008151905061027a81610254565b92915050565b6000602082840312156102965761029561023b565b5b60006102a48482850161026b565b91505092915050565b60805161073e6102ce6000396000818160c7015261011b015261073e6000f3fe608060405234801561001057600080fd5b506004361061004c5760003560e01c80631fe543e314610051578063e0c862891461006d578063e89e106a14610077578063f6eaffc814610095575b600080fd5b61006b600480360381019061006691906104de565b6100c5565b005b610075610185565b005b61007f61028c565b60405161008c9190610549565b60405180910390f35b6100af60048036038101906100aa9190610564565b610292565b6040516100bc9190610549565b60405180910390f35b7f000000000000000000000000000000000000000000000000000000000000000073ffffffffffffffffffffffffffffffffffffffff163373ffffffffffffffffffffffffffffffffffffffff161461017757337f00000000000000000000000000000000000000000000000000000000000000006040517f1cf993f400000000000000000000000000000000000000000000000000000000815260040161016e9291906105d2565b60405180910390fd5b61018182826102b6565b5050565b60008054906101000a900473ffffffffffffffffffffffffffffffffffffffff1673ffffffffffffffffffffffffffffffffffffffff16635d3b1d30600254600060149054906101000a900467ffffffffffffffff16600360049054906101000a900461ffff16600360009054906101000a900463ffffffff16600360069054906101000a900463ffffffff166040518663ffffffff1660e01b8152600401610232959493929190610673565b602060405180830381600087803b15801561024c57600080fd5b505af1158015610260573d6000803e3d6000fd5b505050506040513d601f19601f8201168201806040525081019061028491906106db565b600581905550565b60055481565b600481815481106102a257600080fd5b906000526020600020016000915090505481565b80600490805190602001906102cc9291906102d1565b505050565b82805482825590600052602060002090810192821561030d579160200282015b8281111561030c5782518255916020019190600101906102f1565b5b50905061031a919061031e565b5090565b5b8082111561033757600081600090555060010161031f565b5090565b6000604051905090565b600080fd5b600080fd5b6000819050919050565b6103628161034f565b811461036d57600080fd5b50565b60008135905061037f81610359565b92915050565b600080fd5b6000601f19601f8301169050919050565b7f4e487b7100000000000000000000000000000000000000000000000000000000600052604160045260246000fd5b6103d38261038a565b810181811067ffffffffffffffff821117156103f2576103f161039b565b5b80604052505050565b600061040561033b565b905061041182826103ca565b919050565b600067ffffffffffffffff8211156104315761043061039b565b5b602082029050602081019050919050565b600080fd5b600061045a61045584610416565b6103fb565b9050808382526020820190506020840283018581111561047d5761047c610442565b5b835b818110156104a657806104928882610370565b84526020840193505060208101905061047f565b5050509392505050565b600082601f8301126104c5576104c4610385565b5b81356104d5848260208601610447565b91505092915050565b600080604083850312156104f5576104f4610345565b5b600061050385828601610370565b925050602083013567ffffffffffffffff8111156105245761052361034a565b5b610530858286016104b0565b9150509250929050565b6105438161034f565b82525050565b600060208201905061055e600083018461053a565b92915050565b60006020828403121561057a57610579610345565b5b600061058884828501610370565b91505092915050565b600073ffffffffffffffffffffffffffffffffffffffff82169050919050565b60006105bc82610591565b9050919050565b6105cc816105b1565b82525050565b60006040820190506105e760008301856105c3565b6105f460208301846105c3565b9392505050565b6000819050919050565b61060e816105fb565b82525050565b600067ffffffffffffffff82169050919050565b61063181610614565b82525050565b600061ffff82169050919050565b61064e81610637565b82525050565b600063ffffffff82169050919050565b61066d81610654565b82525050565b600060a0820190506106886000830188610605565b6106956020830187610628565b6106a26040830186610645565b6106af6060830185610664565b6106bc6080830184610664565b9695505050505050565b6000815190506106d581610359565b92915050565b6000602082840312156106f1576106f0610345565b5b60006106ff848285016106c6565b9150509291505056fea2646970667358221220187cec73e4f985fd76096926683a72ba8a1fd7f88dbbab4ac98db439b5ee909e64736f6c63430008090033",
  "linkReferences": {},
  "deployedLinkReferences": {}
}